{
	"data": {
		"bytecode": {
			"linkReferences": {},
			"object": "610160604052348015610010575f5ffd5b506040518060400160405280600f81526020017f4275696c64657253636f72654e465400000000000000000000000000000000008152506040518060400160405280600181526020017f3100000000000000000000000000000000000000000000000000000000000000815250336040518060400160405280600d81526020017f4275696c6465722053636f7265000000000000000000000000000000000000008152506040518060400160405280600581526020017f4255494c44000000000000000000000000000000000000000000000000000000815250815f90816100f8919061064f565b508060019081610108919061064f565b5050505f73ffffffffffffffffffffffffffffffffffffffff168173ffffffffffffffffffffffffffffffffffffffff160361017b575f6040517f1e4fbdf7000000000000000000000000000000000000000000000000000000008152600401610172919061075d565b60405180910390fd5b61018a8161023a60201b60201c565b5061019f6008836102fd60201b90919060201c565b61012081815250506101bb6009826102fd60201b90919060201c565b6101408181525050818051906020012060e08181525050808051906020012061010081815250504660a081815250506101f861034a60201b60201c565b608081815250503073ffffffffffffffffffffffffffffffffffffffff1660c08173ffffffffffffffffffffffffffffffffffffffff16815250505050610907565b5f60075f9054906101000a900473ffffffffffffffffffffffffffffffffffffffff1690508160075f6101000a81548173ffffffffffffffffffffffffffffffffffffffff021916908373ffffffffffffffffffffffffffffffffffffffff1602179055508173ffffffffffffffffffffffffffffffffffffffff168173ffffffffffffffffffffffffffffffffffffffff167f8be0079c531659141344cd1fd0a4f28419497f9722a3daafe3b4186f6b6457e060405160405180910390a35050565b5f60208351101561031e57610317836103a460201b60201c565b9050610344565b8261032e8361040960201b60201c565b5f01908161033c919061064f565b5060ff5f1b90505b92915050565b5f7f8b73c3c69bb8fe3d512ecc4cf759cc79239f7b179b0ffacaa9a75d522b39400f60e05161010051463060405160200161038995949392919061079d565b60405160208183030381529060405280519060200120905090565b5f5f829050601f815111156103f057826040517f305a27a90000000000000000000000000000000000000000000000000000000081526004016103e79190610854565b60405180910390fd5b8051816103fc906108a1565b5f1c175f1b915050919050565b5f819050919050565b5f81519050919050565b7f4e487b71000000000000000000000000000000000000000000000000000000005f52604160045260245ffd5b7f4e487b71000000000000000000000000000000000000000000000000000000005f52602260045260245ffd5b5f600282049050600182168061048d57607f821691505b6020821081036104a05761049f610449565b5b50919050565b5f819050815f5260205f209050919050565b5f6020601f8301049050919050565b5f82821b905092915050565b5f600883026105027fffffffffffffffffffffffffffffffffffffffffffffffffffffffffffffffff826104c7565b61050c86836104c7565b95508019841693508086168417925050509392505050565b5f819050919050565b5f819050919050565b5f61055061054b61054684610524565b61052d565b610524565b9050919050565b5f819050919050565b61056983610536565b61057d61057582610557565b8484546104d3565b825550505050565b5f5f905090565b610594610585565b61059f818484610560565b505050565b5b818110156105c2576105b75f8261058c565b6001810190506105a5565b5050565b601f821115610607576105d8816104a6565b6105e1846104b8565b810160208510156105f0578190505b6106046105fc856104b8565b8301826105a4565b50505b505050565b5f82821c905092915050565b5f6106275f198460080261060c565b1980831691505092915050565b5f61063f8383610618565b9150826002028217905092915050565b61065882610412565b67ffffffffffffffff8111156106715761067061041c565b5b61067b8254610476565b6106868282856105c6565b5f60209050601f8311600181146106b7575f84156106a5578287015190505b6106af8582610634565b865550610716565b601f1984166106c5866104a6565b5f5b828110156106ec578489015182556001820191506020850194506020810190506106c7565b868310156107095784890151610705601f891682610618565b8355505b6001600288020188555050505b505050505050565b5f73ffffffffffffffffffffffffffffffffffffffff82169050919050565b5f6107478261071e565b9050919050565b6107578161073d565b82525050565b5f6020820190506107705f83018461074e565b92915050565b5f819050919050565b61078881610776565b82525050565b61079781610524565b82525050565b5f60a0820190506107b05f83018861077f565b6107bd602083018761077f565b6107ca604083018661077f565b6107d7606083018561078e565b6107e4608083018461074e565b9695505050505050565b5f82825260208201905092915050565b8281835e5f83830152505050565b5f601f19601f8301169050919050565b5f61082682610412565b61083081856107ee565b93506108408185602086016107fe565b6108498161080c565b840191505092915050565b5f6020820190508181035f83015261086c818461081c565b905092915050565b5f81519050919050565b5f819050602082019050919050565b5f6108988251610776565b80915050919050565b5f6108ab82610874565b826108b58461087e565b90506108c08161088d565b92506020821015610900576108fb7fffffffffffffffffffffffffffffffffffffffffffffffffffffffffffffffff836020036008026104c7565b831692505b5050919050565b60805160a05160c05160e0516101005161012051610140516142886109585f395f61162d01525f6115f201525f6124ad01525f61248c01525f611e1e01525f611e7401525f611e9d01526142885ff3fe608060405234801561000f575f5ffd5b506004361061014b575f3560e01c8063715018a6116100c1578063a22cb4651161007a578063a22cb465146103b3578063b88d4fde146103cf578063c87b56dd146103eb578063e985e9c51461041b578063f2fde38b1461044b578063f50e3da1146104675761014b565b8063715018a6146102e95780637ecebe00146102f357806384b0196e1461032357806386481d40146103475780638da5cb5b1461037757806395d89b41146103955761014b565b806323b872dd1161011357806323b872dd1461021957806342842e0e1461023557806346c389bb146102515780636352211e1461026d57806365d977241461029d57806370a08231146102b95761014b565b806301ffc9a71461014f57806303a1b24e1461017f57806306fdde03146101af578063081812fc146101cd578063095ea7b3146101fd575b5f5ffd5b61016960048036038101906101649190612add565b610497565b6040516101769190612b22565b60405180910390f35b61019960048036038101906101949190612b95565b6104a8565b6040516101a69190612bd8565b60405180910390f35b6101b76104bd565b6040516101c49190612c61565b60405180910390f35b6101e760048036038101906101e29190612cab565b61054c565b6040516101f49190612ce5565b60405180910390f35b61021760048036038101906102129190612cfe565b610567565b005b610233600480360381019061022e9190612d3c565b61057d565b005b61024f600480360381019061024a9190612d3c565b61067c565b005b61026b60048036038101906102669190612eb8565b61069b565b005b61028760048036038101906102829190612cab565b6109db565b6040516102949190612ce5565b60405180910390f35b6102b760048036038101906102b29190612cfe565b6109ec565b005b6102d360048036038101906102ce9190612b95565b610b13565b6040516102e09190612bd8565b60405180910390f35b6102f1610bc9565b005b61030d60048036038101906103089190612b95565b610bdc565b60405161031a9190612bd8565b60405180910390f35b61032b610bf1565b60405161033e9796959493929190613041565b60405180910390f35b610361600480360381019061035c9190612cab565b610c96565b60405161036e9190612c61565b60405180910390f35b61037f610dec565b60405161038c9190612ce5565b60405180910390f35b61039d610e14565b6040516103aa9190612c61565b60405180910390f35b6103cd60048036038101906103c891906130ed565b610ea4565b005b6103e960048036038101906103e4919061312b565b610eba565b005b61040560048036038101906104009190612cab565b610edf565b6040516104129190612c61565b60405180910390f35b610435600480360381019061043091906131ab565b610ef1565b6040516104429190612b22565b60405180910390f35b61046560048036038101906104609190612b95565b610f7f565b005b610481600480360381019061047c9190612b95565b611003565b60405161048e9190612bd8565b60405180910390f35b5f6104a182611018565b9050919050565b600c602052805f5260405f205f915090505481565b60605f80546104cb90613216565b80601f01602080910402602001604051908101604052809291908181526020018280546104f790613216565b80156105425780601f1061051957610100808354040283529160200191610542565b820191905f5260205f20905b81548152906001019060200180831161052557829003601f168201915b5050505050905090565b5f61055682611078565b50610560826110fe565b9050919050565b6105798282610574611137565b61113e565b5050565b5f73ffffffffffffffffffffffffffffffffffffffff168273ffffffffffffffffffffffffffffffffffffffff16036105ed575f6040517f64a0ae920000000000000000000000000000000000000000000000000000000081526004016105e49190612ce5565b60405180910390fd5b5f61060083836105fb611137565b611150565b90508373ffffffffffffffffffffffffffffffffffffffff168173ffffffffffffffffffffffffffffffffffffffff1614610676578382826040517f64283d7b00000000000000000000000000000000000000000000000000000000815260040161066d93929190613246565b60405180910390fd5b50505050565b61069683838360405180602001604052805f815250610eba565b505050565b5f600c5f8673ffffffffffffffffffffffffffffffffffffffff1673ffffffffffffffffffffffffffffffffffffffff1681526020019081526020015f20541461071a576040517f08c379a0000000000000000000000000000000000000000000000000000000008152600401610711906132c5565b60405180910390fd5b5f831161075c576040517f08c379a00000000000000000000000000000000000000000000000000000000081526004016107539061332d565b60405180910390fd5b5f7f6be93e55f7ed1686c47ae49ba1aac187b22ceab71498b45f204970b1e6c12a9d858585604051602001610794949392919061334b565b6040516020818303038152906040528051906020012090505f6107b68261135b565b90505f6107cc848361137490919063ffffffff16565b90506107d6610dec565b73ffffffffffffffffffffffffffffffffffffffff168173ffffffffffffffffffffffffffffffffffffffff1614610843576040517f08c379a000000000000000000000000000000000000000000000000000000000815260040161083a906133d8565b60405180910390fd5b84600d5f8973ffffffffffffffffffffffffffffffffffffffff1673ffffffffffffffffffffffffffffffffffffffff1681526020019081526020015f2054146108c2576040517f08c379a00000000000000000000000000000000000000000000000000000000081526004016108b990613440565b60405180910390fd5b600d5f8873ffffffffffffffffffffffffffffffffffffffff1673ffffffffffffffffffffffffffffffffffffffff1681526020019081526020015f205f81548092919061090f9061348b565b91905055505f600a5f81546109239061348b565b9190508190559050610935888261139e565b86600b5f8a73ffffffffffffffffffffffffffffffffffffffff1673ffffffffffffffffffffffffffffffffffffffff1681526020019081526020015f208190555080600c5f8a73ffffffffffffffffffffffffffffffffffffffff1673ffffffffffffffffffffffffffffffffffffffff1681526020019081526020015f20819055505f6109c488836113bb565b90506109d08282611445565b505050505050505050565b5f6109e582611078565b9050919050565b6109f461149f565b5f600c5f8473ffffffffffffffffffffffffffffffffffffffff1673ffffffffffffffffffffffffffffffffffffffff1681526020019081526020015f205403610a73576040517f08c379a0000000000000000000000000000000000000000000000000000000008152600401610a6a9061351c565b60405180910390fd5b80600b5f8473ffffffffffffffffffffffffffffffffffffffff1673ffffffffffffffffffffffffffffffffffffffff1681526020019081526020015f20819055505f600c5f8473ffffffffffffffffffffffffffffffffffffffff1673ffffffffffffffffffffffffffffffffffffffff1681526020019081526020015f205490505f610b0183836113bb565b9050610b0d8282611445565b50505050565b5f5f73ffffffffffffffffffffffffffffffffffffffff168273ffffffffffffffffffffffffffffffffffffffff1603610b84575f6040517f89c62b64000000000000000000000000000000000000000000000000000000008152600401610b7b9190612ce5565b60405180910390fd5b60035f8373ffffffffffffffffffffffffffffffffffffffff1673ffffffffffffffffffffffffffffffffffffffff1681526020019081526020015f20549050919050565b610bd161149f565b610bda5f611526565b565b600d602052805f5260405f205f915090505481565b5f6060805f5f5f6060610c026115e9565b610c0a611624565b46305f5f1b5f67ffffffffffffffff811115610c2957610c28612d94565b5b604051908082528060200260200182016040528015610c575781602001602082028036833780820191505090505b507f0f00000000000000000000000000000000000000000000000000000000000000959493929190965096509650965096509650965090919293949596565b60606101908210610cde576040518060400160405280600881526020017f476f6420546965720000000000000000000000000000000000000000000000008152509050610de7565b61012c8210610d24576040518060400160405280600f81526020017f4469616d6f6e64204275696c64657200000000000000000000000000000000008152509050610de7565b60c88210610d69576040518060400160405280600c81526020017f476f6c64204275696c64657200000000000000000000000000000000000000008152509050610de7565b60648210610dae576040518060400160405280600e81526020017f53696c766572204275696c6465720000000000000000000000000000000000008152509050610de7565b6040518060400160405280600e81526020017f42726f6e7a65204275696c64657200000000000000000000000000000000000081525090505b919050565b5f60075f9054906101000a900473ffffffffffffffffffffffffffffffffffffffff16905090565b606060018054610e2390613216565b80601f0160208091040260200160405190810160405280929190818152602001828054610e4f90613216565b8015610e9a5780601f10610e7157610100808354040283529160200191610e9a565b820191905f5260205f20905b815481529060010190602001808311610e7d57829003601f168201915b5050505050905090565b610eb6610eaf611137565b838361165f565b5050565b610ec584848461057d565b610ed9610ed0611137565b858585856117c8565b50505050565b6060610eea82611974565b9050919050565b5f60055f8473ffffffffffffffffffffffffffffffffffffffff1673ffffffffffffffffffffffffffffffffffffffff1681526020019081526020015f205f8373ffffffffffffffffffffffffffffffffffffffff1673ffffffffffffffffffffffffffffffffffffffff1681526020019081526020015f205f9054906101000a900460ff16905092915050565b610f8761149f565b5f73ffffffffffffffffffffffffffffffffffffffff168173ffffffffffffffffffffffffffffffffffffffff1603610ff7575f6040517f1e4fbdf7000000000000000000000000000000000000000000000000000000008152600401610fee9190612ce5565b60405180910390fd5b61100081611526565b50565b600b602052805f5260405f205f915090505481565b5f634906490660e01b7bffffffffffffffffffffffffffffffffffffffffffffffffffffffff1916827bffffffffffffffffffffffffffffffffffffffffffffffffffffffff19161480611071575061107082611a7f565b5b9050919050565b5f5f61108383611b60565b90505f73ffffffffffffffffffffffffffffffffffffffff168173ffffffffffffffffffffffffffffffffffffffff16036110f557826040517f7e2732890000000000000000000000000000000000000000000000000000000081526004016110ec9190612bd8565b60405180910390fd5b80915050919050565b5f60045f8381526020019081526020015f205f9054906101000a900473ffffffffffffffffffffffffffffffffffffffff169050919050565b5f33905090565b61114b8383836001611b99565b505050565b5f5f61115b84611b60565b90505f73ffffffffffffffffffffffffffffffffffffffff168373ffffffffffffffffffffffffffffffffffffffff161461119c5761119b818486611d58565b5b5f73ffffffffffffffffffffffffffffffffffffffff168173ffffffffffffffffffffffffffffffffffffffff1614611227576111db5f855f5f611b99565b600160035f8373ffffffffffffffffffffffffffffffffffffffff1673ffffffffffffffffffffffffffffffffffffffff1681526020019081526020015f205f82825403925050819055505b5f73ffffffffffffffffffffffffffffffffffffffff168573ffffffffffffffffffffffffffffffffffffffff16146112a657600160035f8773ffffffffffffffffffffffffffffffffffffffff1673ffffffffffffffffffffffffffffffffffffffff1681526020019081526020015f205f82825401925050819055505b8460025f8681526020019081526020015f205f6101000a81548173ffffffffffffffffffffffffffffffffffffffff021916908373ffffffffffffffffffffffffffffffffffffffff160217905550838573ffffffffffffffffffffffffffffffffffffffff168273ffffffffffffffffffffffffffffffffffffffff167fddf252ad1be2c89b69c2b068fc378daa952ba7f163c4a11628f55a4df523b3ef60405160405180910390a4809150509392505050565b5f61136d611367611e1b565b83611ed1565b9050919050565b5f5f5f5f6113828686611f11565b9250925092506113928282611f66565b82935050505092915050565b6113b7828260405180602001604052805f8152506120c8565b5050565b60605f6113c784610c96565b90505f6113dc6113d786846120eb565b61211f565b905061141c6113ea8561214c565b826113f48861214c565b8560405160200161140894939291906137ec565b60405160208183030381529060405261211f565b60405160200161142c91906138c0565b6040516020818303038152906040529250505092915050565b8060065f8481526020019081526020015f2090816114639190613a81565b507ff8e1a15aba9398e019f0b49df1a4fde98ee17ae345cb5f6b5e2c27f5033e8ce7826040516114939190612bd8565b60405180910390a15050565b6114a7611137565b73ffffffffffffffffffffffffffffffffffffffff166114c5610dec565b73ffffffffffffffffffffffffffffffffffffffff1614611524576114e8611137565b6040517f118cdaa700000000000000000000000000000000000000000000000000000000815260040161151b9190612ce5565b60405180910390fd5b565b5f60075f9054906101000a900473ffffffffffffffffffffffffffffffffffffffff1690508160075f6101000a81548173ffffffffffffffffffffffffffffffffffffffff021916908373ffffffffffffffffffffffffffffffffffffffff1602179055508173ffffffffffffffffffffffffffffffffffffffff168173ffffffffffffffffffffffffffffffffffffffff167f8be0079c531659141344cd1fd0a4f28419497f9722a3daafe3b4186f6b6457e060405160405180910390a35050565b606061161f60087f000000000000000000000000000000000000000000000000000000000000000061221690919063ffffffff16565b905090565b606061165a60097f000000000000000000000000000000000000000000000000000000000000000061221690919063ffffffff16565b905090565b5f73ffffffffffffffffffffffffffffffffffffffff168273ffffffffffffffffffffffffffffffffffffffff16036116cf57816040517f5b08ba180000000000000000000000000000000000000000000000000000000081526004016116c69190612ce5565b60405180910390fd5b8060055f8573ffffffffffffffffffffffffffffffffffffffff1673ffffffffffffffffffffffffffffffffffffffff1681526020019081526020015f205f8473ffffffffffffffffffffffffffffffffffffffff1673ffffffffffffffffffffffffffffffffffffffff1681526020019081526020015f205f6101000a81548160ff0219169083151502179055508173ffffffffffffffffffffffffffffffffffffffff168373ffffffffffffffffffffffffffffffffffffffff167f17307eab39ab6107e8899845ad3d59bd9653f200f220920489ca2b5937696c31836040516117bb9190612b22565b60405180910390a3505050565b5f8373ffffffffffffffffffffffffffffffffffffffff163b111561196d578273ffffffffffffffffffffffffffffffffffffffff1663150b7a02868685856040518563ffffffff1660e01b81526004016118269493929190613ba2565b6020604051808303815f875af192505050801561186157506040513d601f19601f8201168201806040525081019061185e9190613c00565b60015b6118e2573d805f811461188f576040519150601f19603f3d011682016040523d82523d5f602084013e611894565b606091505b505f8151036118da57836040517f64a0ae920000000000000000000000000000000000000000000000000000000081526004016118d19190612ce5565b60405180910390fd5b805160208201fd5b63150b7a0260e01b7bffffffffffffffffffffffffffffffffffffffffffffffffffffffff1916817bffffffffffffffffffffffffffffffffffffffffffffffffffffffff19161461196b57836040517f64a0ae920000000000000000000000000000000000000000000000000000000081526004016119629190612ce5565b60405180910390fd5b505b5050505050565b606061197f82611078565b505f60065f8481526020019081526020015f20805461199d90613216565b80601f01602080910402602001604051908101604052809291908181526020018280546119c990613216565b8015611a145780601f106119eb57610100808354040283529160200191611a14565b820191905f5260205f20905b8154815290600101906020018083116119f757829003601f168201915b505050505090505f611a246122c3565b90505f815103611a38578192505050611a7a565b5f82511115611a6c578082604051602001611a54929190613c2b565b60405160208183030381529060405292505050611a7a565b611a75846122d9565b925050505b919050565b5f7f80ac58cd000000000000000000000000000000000000000000000000000000007bffffffffffffffffffffffffffffffffffffffffffffffffffffffff1916827bffffffffffffffffffffffffffffffffffffffffffffffffffffffff19161480611b4957507f5b5e139f000000000000000000000000000000000000000000000000000000007bffffffffffffffffffffffffffffffffffffffffffffffffffffffff1916827bffffffffffffffffffffffffffffffffffffffffffffffffffffffff1916145b80611b595750611b588261233f565b5b9050919050565b5f60025f8381526020019081526020015f205f9054906101000a900473ffffffffffffffffffffffffffffffffffffffff169050919050565b8080611bd157505f73ffffffffffffffffffffffffffffffffffffffff168273ffffffffffffffffffffffffffffffffffffffff1614155b15611d03575f611be084611078565b90505f73ffffffffffffffffffffffffffffffffffffffff168373ffffffffffffffffffffffffffffffffffffffff1614158015611c4a57508273ffffffffffffffffffffffffffffffffffffffff168173ffffffffffffffffffffffffffffffffffffffff1614155b8015611c5d5750611c5b8184610ef1565b155b15611c9f57826040517fa9fbf51f000000000000000000000000000000000000000000000000000000008152600401611c969190612ce5565b60405180910390fd5b8115611d0157838573ffffffffffffffffffffffffffffffffffffffff168273ffffffffffffffffffffffffffffffffffffffff167f8c5be1e5ebec7d5bd14f71427d1e84f3dd0314c0f7b2291e5b200ac8c7c3b92560405160405180910390a45b505b8360045f8581526020019081526020015f205f6101000a81548173ffffffffffffffffffffffffffffffffffffffff021916908373ffffffffffffffffffffffffffffffffffffffff16021790555050505050565b611d638383836123a8565b611e16575f73ffffffffffffffffffffffffffffffffffffffff168373ffffffffffffffffffffffffffffffffffffffff1603611dd757806040517f7e273289000000000000000000000000000000000000000000000000000000008152600401611dce9190612bd8565b60405180910390fd5b81816040517f177e802f000000000000000000000000000000000000000000000000000000008152600401611e0d929190613c4e565b60405180910390fd5b505050565b5f7f000000000000000000000000000000000000000000000000000000000000000073ffffffffffffffffffffffffffffffffffffffff163073ffffffffffffffffffffffffffffffffffffffff16148015611e9657507f000000000000000000000000000000000000000000000000000000000000000046145b15611ec3577f00000000000000000000000000000000000000000000000000000000000000009050611ece565b611ecb612468565b90505b90565b5f6040517f190100000000000000000000000000000000000000000000000000000000000081528360028201528260228201526042812091505092915050565b5f5f5f6041845103611f51575f5f5f602087015192506040870151915060608701515f1a9050611f43888285856124fd565b955095509550505050611f5f565b5f600285515f1b9250925092505b9250925092565b5f6003811115611f7957611f78613c75565b5b826003811115611f8c57611f8b613c75565b5b03156120c45760016003811115611fa657611fa5613c75565b5b826003811115611fb957611fb8613c75565b5b03611ff0576040517ff645eedf00000000000000000000000000000000000000000000000000000000815260040160405180910390fd5b6002600381111561200457612003613c75565b5b82600381111561201757612016613c75565b5b0361205b57805f1c6040517ffce698f70000000000000000000000000000000000000000000000000000000081526004016120529190612bd8565b60405180910390fd5b60038081111561206e5761206d613c75565b5b82600381111561208157612080613c75565b5b036120c357806040517fd78bce0c0000000000000000000000000000000000000000000000000000000081526004016120ba9190613ca2565b60405180910390fd5b5b5050565b6120d283836125e4565b6120e66120dd611137565b5f8585856117c8565b505050565b60606120f68361214c565b82604051602001612108929190614017565b604051602081830303815290604052905092915050565b6060612145826040518060600160405280604081526020016142136040913960016126d7565b9050919050565b60605f600161215a84612866565b0190505f8167ffffffffffffffff81111561217857612177612d94565b5b6040519080825280601f01601f1916602001820160405280156121aa5781602001600182028036833780820191505090505b5090505f82602083010190505b60011561220b578080600190039150507f3031323334353637383961626364656600000000000000000000000000000000600a86061a8153600a8581612200576121ff614092565b5b0494505f85036121b7575b819350505050919050565b606060ff5f1b83146122325761222b836129b7565b90506122bd565b81805461223e90613216565b80601f016020809104026020016040519081016040528092919081815260200182805461226a90613216565b80156122b55780601f1061228c576101008083540402835291602001916122b5565b820191905f5260205f20905b81548152906001019060200180831161229857829003601f168201915b505050505090505b92915050565b606060405180602001604052805f815250905090565b60606122e482611078565b505f6122ee6122c3565b90505f81511161230c5760405180602001604052805f815250612337565b806123168461214c565b604051602001612327929190613c2b565b6040516020818303038152906040525b915050919050565b5f7f01ffc9a7000000000000000000000000000000000000000000000000000000007bffffffffffffffffffffffffffffffffffffffffffffffffffffffff1916827bffffffffffffffffffffffffffffffffffffffffffffffffffffffff1916149050919050565b5f5f73ffffffffffffffffffffffffffffffffffffffff168373ffffffffffffffffffffffffffffffffffffffff161415801561245f57508273ffffffffffffffffffffffffffffffffffffffff168473ffffffffffffffffffffffffffffffffffffffff161480612420575061241f8484610ef1565b5b8061245e57508273ffffffffffffffffffffffffffffffffffffffff16612446836110fe565b73ffffffffffffffffffffffffffffffffffffffff16145b5b90509392505050565b5f7f8b73c3c69bb8fe3d512ecc4cf759cc79239f7b179b0ffacaa9a75d522b39400f7f00000000000000000000000000000000000000000000000000000000000000007f000000000000000000000000000000000000000000000000000000000000000046306040516020016124e29594939291906140bf565b60405160208183030381529060405280519060200120905090565b5f5f5f7f7fffffffffffffffffffffffffffffff5d576e7357a4501ddfe92f46681b20a0845f1c1115612539575f6003859250925092506125da565b5f6001888888886040515f815260200160405260405161255c949392919061412b565b6020604051602081039080840390855afa15801561257c573d5f5f3e3d5ffd5b5050506020604051035190505f73ffffffffffffffffffffffffffffffffffffffff168173ffffffffffffffffffffffffffffffffffffffff16036125cd575f60015f5f1b935093509350506125da565b805f5f5f1b935093509350505b9450945094915050565b5f73ffffffffffffffffffffffffffffffffffffffff168273ffffffffffffffffffffffffffffffffffffffff1603612654575f6040517f64a0ae9200000000000000000000000000000000000000000000000000000000815260040161264b9190612ce5565b60405180910390fd5b5f61266083835f611150565b90505f73ffffffffffffffffffffffffffffffffffffffff168173ffffffffffffffffffffffffffffffffffffffff16146126d2575f6040517f73c6ac6e0000000000000000000000000000000000000000000000000000000081526004016126c99190612ce5565b60405180910390fd5b505050565b60605f8451036126f75760405180602001604052805f815250905061285f565b5f8261272857600360028651600461270f919061416e565b61271991906141af565b61272391906141e2565b61274f565b60036002865161273891906141af565b61274291906141e2565b600461274e919061416e565b5b90505f8167ffffffffffffffff81111561276c5761276b612d94565b5b6040519080825280601f01601f19166020018201604052801561279e5781602001600182028036833780820191505090505b509050600185016020820187885189016020810180515f82525b82841015612813576003840193508351603f8160121c168701518653600186019550603f81600c1c168701518653600186019550603f8160061c168701518653600186019550603f81168701518653600186019550506127b8565b80825289156128535760038c510660018114612836576002811461284957612851565b603d6001870353603d6002870353612851565b603d60018703535b505b50505050505080925050505b9392505050565b5f5f5f90507a184f03e93ff9f4daa797ed6e38ed64bf6a1f01000000000000000083106128c2577a184f03e93ff9f4daa797ed6e38ed64bf6a1f01000000000000000083816128b8576128b7614092565b5b0492506040810190505b6d04ee2d6d415b85acef810000000083106128ff576d04ee2d6d415b85acef810000000083816128f5576128f4614092565b5b0492506020810190505b662386f26fc10000831061292e57662386f26fc10000838161292457612923614092565b5b0492506010810190505b6305f5e1008310612957576305f5e100838161294d5761294c614092565b5b0492506008810190505b612710831061297c57612710838161297257612971614092565b5b0492506004810190505b6064831061299f576064838161299557612994614092565b5b0492506002810190505b600a83106129ae576001810190505b80915050919050565b60605f6129c383612a29565b90505f602067ffffffffffffffff8111156129e1576129e0612d94565b5b6040519080825280601f01601f191660200182016040528015612a135781602001600182028036833780820191505090505b5090508181528360208201528092505050919050565b5f5f60ff835f1c169050601f811115612a6e576040517fb3512b0c00000000000000000000000000000000000000000000000000000000815260040160405180910390fd5b80915050919050565b5f604051905090565b5f5ffd5b5f5ffd5b5f7fffffffff0000000000000000000000000000000000000000000000000000000082169050919050565b612abc81612a88565b8114612ac6575f5ffd5b50565b5f81359050612ad781612ab3565b92915050565b5f60208284031215612af257612af1612a80565b5b5f612aff84828501612ac9565b91505092915050565b5f8115159050919050565b612b1c81612b08565b82525050565b5f602082019050612b355f830184612b13565b92915050565b5f73ffffffffffffffffffffffffffffffffffffffff82169050919050565b5f612b6482612b3b565b9050919050565b612b7481612b5a565b8114612b7e575f5ffd5b50565b5f81359050612b8f81612b6b565b92915050565b5f60208284031215612baa57612ba9612a80565b5b5f612bb784828501612b81565b91505092915050565b5f819050919050565b612bd281612bc0565b82525050565b5f602082019050612beb5f830184612bc9565b92915050565b5f81519050919050565b5f82825260208201905092915050565b8281835e5f83830152505050565b5f601f19601f8301169050919050565b5f612c3382612bf1565b612c3d8185612bfb565b9350612c4d818560208601612c0b565b612c5681612c19565b840191505092915050565b5f6020820190508181035f830152612c798184612c29565b905092915050565b612c8a81612bc0565b8114612c94575f5ffd5b50565b5f81359050612ca581612c81565b92915050565b5f60208284031215612cc057612cbf612a80565b5b5f612ccd84828501612c97565b91505092915050565b612cdf81612b5a565b82525050565b5f602082019050612cf85f830184612cd6565b92915050565b5f5f60408385031215612d1457612d13612a80565b5b5f612d2185828601612b81565b9250506020612d3285828601612c97565b9150509250929050565b5f5f5f60608486031215612d5357612d52612a80565b5b5f612d6086828701612b81565b9350506020612d7186828701612b81565b9250506040612d8286828701612c97565b9150509250925092565b5f5ffd5b5f5ffd5b7f4e487b71000000000000000000000000000000000000000000000000000000005f52604160045260245ffd5b612dca82612c19565b810181811067ffffffffffffffff82111715612de957612de8612d94565b5b80604052505050565b5f612dfb612a77565b9050612e078282612dc1565b919050565b5f67ffffffffffffffff821115612e2657612e25612d94565b5b612e2f82612c19565b9050602081019050919050565b828183375f83830152505050565b5f612e5c612e5784612e0c565b612df2565b905082815260208101848484011115612e7857612e77612d90565b5b612e83848285612e3c565b509392505050565b5f82601f830112612e9f57612e9e612d8c565b5b8135612eaf848260208601612e4a565b91505092915050565b5f5f5f5f60808587031215612ed057612ecf612a80565b5b5f612edd87828801612b81565b9450506020612eee87828801612c97565b9350506040612eff87828801612c97565b925050606085013567ffffffffffffffff811115612f2057612f1f612a84565b5b612f2c87828801612e8b565b91505092959194509250565b5f7fff0000000000000000000000000000000000000000000000000000000000000082169050919050565b612f6c81612f38565b82525050565b5f819050919050565b612f8481612f72565b82525050565b5f81519050919050565b5f82825260208201905092915050565b5f819050602082019050919050565b612fbc81612bc0565b82525050565b5f612fcd8383612fb3565b60208301905092915050565b5f602082019050919050565b5f612fef82612f8a565b612ff98185612f94565b935061300483612fa4565b805f5b8381101561303457815161301b8882612fc2565b975061302683612fd9565b925050600181019050613007565b5085935050505092915050565b5f60e0820190506130545f83018a612f63565b81810360208301526130668189612c29565b9050818103604083015261307a8188612c29565b90506130896060830187612bc9565b6130966080830186612cd6565b6130a360a0830185612f7b565b81810360c08301526130b58184612fe5565b905098975050505050505050565b6130cc81612b08565b81146130d6575f5ffd5b50565b5f813590506130e7816130c3565b92915050565b5f5f6040838503121561310357613102612a80565b5b5f61311085828601612b81565b9250506020613121858286016130d9565b9150509250929050565b5f5f5f5f6080858703121561314357613142612a80565b5b5f61315087828801612b81565b945050602061316187828801612b81565b935050604061317287828801612c97565b925050606085013567ffffffffffffffff81111561319357613192612a84565b5b61319f87828801612e8b565b91505092959194509250565b5f5f604083850312156131c1576131c0612a80565b5b5f6131ce85828601612b81565b92505060206131df85828601612b81565b9150509250929050565b7f4e487b71000000000000000000000000000000000000000000000000000000005f52602260045260245ffd5b5f600282049050600182168061322d57607f821691505b6020821081036132405761323f6131e9565b5b50919050565b5f6060820190506132595f830186612cd6565b6132666020830185612bc9565b6132736040830184612cd6565b949350505050565b7f416c726561647920686173204e465400000000000000000000000000000000005f82015250565b5f6132af600f83612bfb565b91506132ba8261327b565b602082019050919050565b5f6020820190508181035f8301526132dc816132a3565b9050919050565b7f496e76616c69642073636f7265000000000000000000000000000000000000005f82015250565b5f613317600d83612bfb565b9150613322826132e3565b602082019050919050565b5f6020820190508181035f8301526133448161330b565b9050919050565b5f60808201905061335e5f830187612f7b565b61336b6020830186612cd6565b6133786040830185612bc9565b6133856060830184612bc9565b95945050505050565b7f496e76616c6964207369670000000000000000000000000000000000000000005f82015250565b5f6133c2600b83612bfb565b91506133cd8261338e565b602082019050919050565b5f6020820190508181035f8301526133ef816133b6565b9050919050565b7f496e76616c6964206e6f6e6365000000000000000000000000000000000000005f82015250565b5f61342a600d83612bfb565b9150613435826133f6565b602082019050919050565b5f6020820190508181035f8301526134578161341e565b9050919050565b7f4e487b71000000000000000000000000000000000000000000000000000000005f52601160045260245ffd5b5f61349582612bc0565b91507fffffffffffffffffffffffffffffffffffffffffffffffffffffffffffffffff82036134c7576134c661345e565b5b600182019050919050565b7f4e6f204e465420796574000000000000000000000000000000000000000000005f82015250565b5f613506600a83612bfb565b9150613511826134d2565b602082019050919050565b5f6020820190508181035f830152613533816134fa565b9050919050565b5f81905092915050565b7f7b226e616d65223a224275696c6465722053636f7265202300000000000000005f82015250565b5f61357860188361353a565b915061358382613544565b601882019050919050565b5f61359882612bf1565b6135a2818561353a565b93506135b2818560208601612c0b565b80840191505092915050565b7f222c226465736372697074696f6e223a224f6e2d636861696e206275696c64655f8201527f722072657075746174696f6e2073636f7265222c000000000000000000000000602082015250565b5f61361860348361353a565b9150613623826135be565b603482019050919050565b7f22696d616765223a2200000000000000000000000000000000000000000000005f82015250565b5f61366260098361353a565b915061366d8261362e565b600982019050919050565b7f222c0000000000000000000000000000000000000000000000000000000000005f82015250565b5f6136ac60028361353a565b91506136b782613678565b600282019050919050565b7f2261747472696275746573223a5b7b2274726169745f74797065223a2253636f5f8201527f7265222c2276616c7565223a0000000000000000000000000000000000000000602082015250565b5f61371c602c8361353a565b9150613727826136c2565b602c82019050919050565b7f7d2c7b2274726169745f74797065223a224c6576656c222c2276616c7565223a5f8201527f2200000000000000000000000000000000000000000000000000000000000000602082015250565b5f61378c60218361353a565b915061379782613732565b602182019050919050565b7f227d5d7d000000000000000000000000000000000000000000000000000000005f82015250565b5f6137d660048361353a565b91506137e1826137a2565b600482019050919050565b5f6137f68261356c565b9150613802828761358e565b915061380d8261360c565b915061381882613656565b9150613824828661358e565b915061382f826136a0565b915061383a82613710565b9150613846828561358e565b915061385182613780565b915061385d828461358e565b9150613868826137ca565b915081905095945050505050565b7f646174613a6170706c69636174696f6e2f6a736f6e3b6261736536342c0000005f82015250565b5f6138aa601d8361353a565b91506138b582613876565b601d82019050919050565b5f6138ca8261389e565b91506138d6828461358e565b915081905092915050565b5f819050815f5260205f209050919050565b5f6020601f8301049050919050565b5f82821b905092915050565b5f6008830261393d7fffffffffffffffffffffffffffffffffffffffffffffffffffffffffffffffff82613902565b6139478683613902565b95508019841693508086168417925050509392505050565b5f819050919050565b5f61398261397d61397884612bc0565b61395f565b612bc0565b9050919050565b5f819050919050565b61399b83613968565b6139af6139a782613989565b84845461390e565b825550505050565b5f5f905090565b6139c66139b7565b6139d1818484613992565b505050565b5b818110156139f4576139e95f826139be565b6001810190506139d7565b5050565b601f821115613a3957613a0a816138e1565b613a13846138f3565b81016020851015613a22578190505b613a36613a2e856138f3565b8301826139d6565b50505b505050565b5f82821c905092915050565b5f613a595f1984600802613a3e565b1980831691505092915050565b5f613a718383613a4a565b9150826002028217905092915050565b613a8a82612bf1565b67ffffffffffffffff811115613aa357613aa2612d94565b5b613aad8254613216565b613ab88282856139f8565b5f60209050601f831160018114613ae9575f8415613ad7578287015190505b613ae18582613a66565b865550613b48565b601f198416613af7866138e1565b5f5b82811015613b1e57848901518255600182019150602085019450602081019050613af9565b86831015613b3b5784890151613b37601f891682613a4a565b8355505b6001600288020188555050505b505050505050565b5f81519050919050565b5f82825260208201905092915050565b5f613b7482613b50565b613b7e8185613b5a565b9350613b8e818560208601612c0b565b613b9781612c19565b840191505092915050565b5f608082019050613bb55f830187612cd6565b613bc26020830186612cd6565b613bcf6040830185612bc9565b8181036060830152613be18184613b6a565b905095945050505050565b5f81519050613bfa81612ab3565b92915050565b5f60208284031215613c1557613c14612a80565b5b5f613c2284828501613bec565b91505092915050565b5f613c36828561358e565b9150613c42828461358e565b91508190509392505050565b5f604082019050613c615f830185612cd6565b613c6e6020830184612bc9565b9392505050565b7f4e487b71000000000000000000000000000000000000000000000000000000005f52602160045260245ffd5b5f602082019050613cb55f830184612f7b565b92915050565b7f3c73766720786d6c6e733d22687474703a2f2f7777772e77332e6f72672f32305f8201527f30302f737667222077696474683d2235303022206865696768743d223530302260208201527f207374796c653d226261636b67726f756e643a23306631373261223e00000000604082015250565b5f613d3b605c8361353a565b9150613d4682613cbb565b605c82019050919050565b7f3c7265637420783d22302220793d2230222077696474683d22353030222068655f8201527f696768743d22353030222066696c6c3d2223316532393362222f3e0000000000602082015250565b5f613dab603b8361353a565b9150613db682613d51565b603b82019050919050565b7f3c7465787420783d223235302220793d223138302220666f6e742d66616d696c5f8201527f793d22417269616c2220666f6e742d73697a653d223630222066696c6c3d222360208201527f3630613566612220746578742d616e63686f723d226d6964646c65223e000000604082015250565b5f613e41605d8361353a565b9150613e4c82613dc1565b605d82019050919050565b7f3c2f746578743e000000000000000000000000000000000000000000000000005f82015250565b5f613e8b60078361353a565b9150613e9682613e57565b600782019050919050565b7f3c7465787420783d223235302220793d223238302220666f6e742d66616d696c5f8201527f793d22417269616c2220666f6e742d73697a653d223336222066696c6c3d222360208201527f3934613362382220746578742d616e63686f723d226d6964646c65223e000000604082015250565b5f613f21605d8361353a565b9150613f2c82613ea1565b605d82019050919050565b7f3c7465787420783d223235302220793d223332302220666f6e742d66616d696c5f8201527f793d22417269616c2220666f6e742d73697a653d223230222066696c6c3d222360208201527f3634373438622220746578742d616e63686f723d226d6964646c65223e000000604082015250565b5f613fb7605d8361353a565b9150613fc282613f37565b605d82019050919050565b7f4275696c6465722053636f72653c2f746578743e3c2f7376673e0000000000005f82015250565b5f614001601a8361353a565b915061400c82613fcd565b601a82019050919050565b5f61402182613d2f565b915061402c82613d9f565b915061403782613e35565b9150614043828561358e565b915061404e82613e7f565b915061405982613f15565b9150614065828461358e565b915061407082613e7f565b915061407b82613fab565b915061408682613ff5565b91508190509392505050565b7f4e487b71000000000000000000000000000000000000000000000000000000005f52601260045260245ffd5b5f60a0820190506140d25f830188612f7b565b6140df6020830187612f7b565b6140ec6040830186612f7b565b6140f96060830185612bc9565b6141066080830184612cd6565b9695505050505050565b5f60ff82169050919050565b61412581614110565b82525050565b5f60808201905061413e5f830187612f7b565b61414b602083018661411c565b6141586040830185612f7b565b6141656060830184612f7b565b95945050505050565b5f61417882612bc0565b915061418383612bc0565b925082820261419181612bc0565b915082820484148315176141a8576141a761345e565b5b5092915050565b5f6141b982612bc0565b91506141c483612bc0565b92508282019050808211156141dc576141db61345e565b5b92915050565b5f6141ec82612bc0565b91506141f783612bc0565b92508261420757614206614092565b5b82820490509291505056fe4142434445464748494a4b4c4d4e4f505152535455565758595a6162636465666768696a6b6c6d6e6f707172737475767778797a303132333435363738392b2fa2646970667358221220c6f231f5b0a8d609c890943ab968644ca06914d85aae843785ea80d02436206764736f6c634300081e0033",
			"opcodes": "PUSH2 0x160 PUSH1 0x40 MSTORE CALLVALUE DUP1 ISZERO PUSH2 0x10 JUMPI PUSH0 PUSH0 REVERT JUMPDEST POP PUSH1 0x40 MLOAD DUP1 PUSH1 0x40 ADD PUSH1 0x40 MSTORE DUP1 PUSH1 0xF DUP2 MSTORE PUSH1 0x20 ADD PUSH32 0x4275696C64657253636F72654E46540000000000000000000000000000000000 DUP2 MSTORE POP PUSH1 0x40 MLOAD DUP1 PUSH1 0x40 ADD PUSH1 0x40 MSTORE DUP1 PUSH1 0x1 DUP2 MSTORE PUSH1 0x20 ADD PUSH32 0x3100000000000000000000000000000000000000000000000000000000000000 DUP2 MSTORE POP CALLER PUSH1 0x40 MLOAD DUP1 PUSH1 0x40 ADD PUSH1 0x40 MSTORE DUP1 PUSH1 0xD DUP2 MSTORE PUSH1 0x20 ADD PUSH32 0x4275696C6465722053636F726500000000000000000000000000000000000000 DUP2 MSTORE POP PUSH1 0x40 MLOAD DUP1 PUSH1 0x40 ADD PUSH1 0x40 MSTORE DUP1 PUSH1 0x5 DUP2 MSTORE PUSH1 0x20 ADD PUSH32 0x4255494C44000000000000000000000000000000000000000000000000000000 DUP2 MSTORE POP DUP2 PUSH0 SWAP1 DUP2 PUSH2 0xF8 SWAP2 SWAP1 PUSH2 0x64F JUMP JUMPDEST POP DUP1 PUSH1 0x1 SWAP1 DUP2 PUSH2 0x108 SWAP2 SWAP1 PUSH2 0x64F JUMP JUMPDEST POP POP POP PUSH0 PUSH20 0xFFFFFFFFFFFFFFFFFFFFFFFFFFFFFFFFFFFFFFFF AND DUP2 PUSH20 0xFFFFFFFFFFFFFFFFFFFFFFFFFFFFFFFFFFFFFFFF AND SUB PUSH2 0x17B JUMPI PUSH0 PUSH1 0x40 MLOAD PUSH32 0x1E4FBDF700000000000000000000000000000000000000000000000000000000 DUP2 MSTORE PUSH1 0x4 ADD PUSH2 0x172 SWAP2 SWAP1 PUSH2 0x75D JUMP JUMPDEST PUSH1 0x40 MLOAD DUP1 SWAP2 SUB SWAP1 REVERT JUMPDEST PUSH2 0x18A DUP2 PUSH2 0x23A PUSH1 0x20 SHL PUSH1 0x20 SHR JUMP JUMPDEST POP PUSH2 0x19F PUSH1 0x8 DUP4 PUSH2 0x2FD PUSH1 0x20 SHL SWAP1 SWAP2 SWAP1 PUSH1 0x20 SHR JUMP JUMPDEST PUSH2 0x120 DUP2 DUP2 MSTORE POP POP PUSH2 0x1BB PUSH1 0x9 DUP3 PUSH2 0x2FD PUSH1 0x20 SHL SWAP1 SWAP2 SWAP1 PUSH1 0x20 SHR JUMP JUMPDEST PUSH2 0x140 DUP2 DUP2 MSTORE POP POP DUP2 DUP1 MLOAD SWAP1 PUSH1 0x20 ADD KECCAK256 PUSH1 0xE0 DUP2 DUP2 MSTORE POP POP DUP1 DUP1 MLOAD SWAP1 PUSH1 0x20 ADD KECCAK256 PUSH2 0x100 DUP2 DUP2 MSTORE POP POP CHAINID PUSH1 0xA0 DUP2 DUP2 MSTORE POP POP PUSH2 0x1F8 PUSH2 0x34A PUSH1 0x20 SHL PUSH1 0x20 SHR JUMP JUMPDEST PUSH1 0x80 DUP2 DUP2 MSTORE POP POP ADDRESS PUSH20 0xFFFFFFFFFFFFFFFFFFFFFFFFFFFFFFFFFFFFFFFF AND PUSH1 0xC0 DUP2 PUSH20 0xFFFFFFFFFFFFFFFFFFFFFFFFFFFFFFFFFFFFFFFF AND DUP2 MSTORE POP POP POP POP PUSH2 0x907 JUMP JUMPDEST PUSH0 PUSH1 0x7 PUSH0 SWAP1 SLOAD SWAP1 PUSH2 0x100 EXP SWAP1 DIV PUSH20 0xFFFFFFFFFFFFFFFFFFFFFFFFFFFFFFFFFFFFFFFF AND SWAP1 POP DUP2 PUSH1 0x7 PUSH0 PUSH2 0x100 EXP DUP2 SLOAD DUP2 PUSH20 0xFFFFFFFFFFFFFFFFFFFFFFFFFFFFFFFFFFFFFFFF MUL NOT AND SWAP1 DUP4 PUSH20 0xFFFFFFFFFFFFFFFFFFFFFFFFFFFFFFFFFFFFFFFF AND MUL OR SWAP1 SSTORE POP DUP2 PUSH20 0xFFFFFFFFFFFFFFFFFFFFFFFFFFFFFFFFFFFFFFFF AND DUP2 PUSH20 0xFFFFFFFFFFFFFFFFFFFFFFFFFFFFFFFFFFFFFFFF AND PUSH32 0x8BE0079C531659141344CD1FD0A4F28419497F9722A3DAAFE3B4186F6B6457E0 PUSH1 0x40 MLOAD PUSH1 0x40 MLOAD DUP1 SWAP2 SUB SWAP1 LOG3 POP POP JUMP JUMPDEST PUSH0 PUSH1 0x20 DUP4 MLOAD LT ISZERO PUSH2 0x31E JUMPI PUSH2 0x317 DUP4 PUSH2 0x3A4 PUSH1 0x20 SHL PUSH1 0x20 SHR JUMP JUMPDEST SWAP1 POP PUSH2 0x344 JUMP JUMPDEST DUP3 PUSH2 0x32E DUP4 PUSH2 0x409 PUSH1 0x20 SHL PUSH1 0x20 SHR JUMP JUMPDEST PUSH0 ADD SWAP1 DUP2 PUSH2 0x33C SWAP2 SWAP1 PUSH2 0x64F JUMP JUMPDEST POP PUSH1 0xFF PUSH0 SHL SWAP1 POP JUMPDEST SWAP3 SWAP2 POP POP JUMP JUMPDEST PUSH0 PUSH32 0x8B73C3C69BB8FE3D512ECC4CF759CC79239F7B179B0FFACAA9A75D522B39400F PUSH1 0xE0 MLOAD PUSH2 0x100 MLOAD CHAINID ADDRESS PUSH1 0x40 MLOAD PUSH1 0x20 ADD PUSH2 0x389 SWAP6 SWAP5 SWAP4 SWAP3 SWAP2 SWAP1 PUSH2 0x79D JUMP JUMPDEST PUSH1 0x40 MLOAD PUSH1 0x20 DUP2 DUP4 SUB SUB DUP2 MSTORE SWAP1 PUSH1 0x40 MSTORE DUP1 MLOAD SWAP1 PUSH1 0x20 ADD KECCAK256 SWAP1 POP SWAP1 JUMP JUMPDEST PUSH0 PUSH0 DUP3 SWAP1 POP PUSH1 0x1F DUP2 MLOAD GT ISZERO PUSH2 0x3F0 JUMPI DUP3 PUSH1 0x40 MLOAD PUSH32 0x305A27A900000000000000000000000000000000000000000000000000000000 DUP2 MSTORE PUSH1 0x4 ADD PUSH2 0x3E7 SWAP2 SWAP1 PUSH2 0x854 JUMP JUMPDEST PUSH1 0x40 MLOAD DUP1 SWAP2 SUB SWAP1 REVERT JUMPDEST DUP1 MLOAD DUP2 PUSH2 0x3FC SWAP1 PUSH2 0x8A1 JUMP JUMPDEST PUSH0 SHR OR PUSH0 SHL SWAP2 POP POP SWAP2 SWAP1 POP JUMP JUMPDEST PUSH0 DUP2 SWAP1 POP SWAP2 SWAP1 POP JUMP JUMPDEST PUSH0 DUP2 MLOAD SWAP1 POP SWAP2 SWAP1 POP JUMP JUMPDEST PUSH32 0x4E487B7100000000000000000000000000000000000000000000000000000000 PUSH0 MSTORE PUSH1 0x41 PUSH1 0x4 MSTORE PUSH1 0x24 PUSH0 REVERT JUMPDEST PUSH32 0x4E487B7100000000000000000000000000000000000000000000000000000000 PUSH0 MSTORE PUSH1 0x22 PUSH1 0x4 MSTORE PUSH1 0x24 PUSH0 REVERT JUMPDEST PUSH0 PUSH1 0x2 DUP3 DIV SWAP1 POP PUSH1 0x1 DUP3 AND DUP1 PUSH2 0x48D JUMPI PUSH1 0x7F DUP3 AND SWAP2 POP JUMPDEST PUSH1 0x20 DUP3 LT DUP2 SUB PUSH2 0x4A0 JUMPI PUSH2 0x49F PUSH2 0x449 JUMP JUMPDEST JUMPDEST POP SWAP2 SWAP1 POP JUMP JUMPDEST PUSH0 DUP2 SWAP1 POP DUP2 PUSH0 MSTORE PUSH1 0x20 PUSH0 KECCAK256 SWAP1 POP SWAP2 SWAP1 POP JUMP JUMPDEST PUSH0 PUSH1 0x20 PUSH1 0x1F DUP4 ADD DIV SWAP1 POP SWAP2 SWAP1 POP JUMP JUMPDEST PUSH0 DUP3 DUP3 SHL SWAP1 POP SWAP3 SWAP2 POP POP JUMP JUMPDEST PUSH0 PUSH1 0x8 DUP4 MUL PUSH2 0x502 PUSH32 0xFFFFFFFFFFFFFFFFFFFFFFFFFFFFFFFFFFFFFFFFFFFFFFFFFFFFFFFFFFFFFFFF DUP3 PUSH2 0x4C7 JUMP JUMPDEST PUSH2 0x50C DUP7 DUP4 PUSH2 0x4C7 JUMP JUMPDEST SWAP6 POP DUP1 NOT DUP5 AND SWAP4 POP DUP1 DUP7 AND DUP5 OR SWAP3 POP POP POP SWAP4 SWAP3 POP POP POP JUMP JUMPDEST PUSH0 DUP2 SWAP1 POP SWAP2 SWAP1 POP JUMP JUMPDEST PUSH0 DUP2 SWAP1 POP SWAP2 SWAP1 POP JUMP JUMPDEST PUSH0 PUSH2 0x550 PUSH2 0x54B PUSH2 0x546 DUP5 PUSH2 0x524 JUMP JUMPDEST PUSH2 0x52D JUMP JUMPDEST PUSH2 0x524 JUMP JUMPDEST SWAP1 POP SWAP2 SWAP1 POP JUMP JUMPDEST PUSH0 DUP2 SWAP1 POP SWAP2 SWAP1 POP JUMP JUMPDEST PUSH2 0x569 DUP4 PUSH2 0x536 JUMP JUMPDEST PUSH2 0x57D PUSH2 0x575 DUP3 PUSH2 0x557 JUMP JUMPDEST DUP5 DUP5 SLOAD PUSH2 0x4D3 JUMP JUMPDEST DUP3 SSTORE POP POP POP POP JUMP JUMPDEST PUSH0 PUSH0 SWAP1 POP SWAP1 JUMP JUMPDEST PUSH2 0x594 PUSH2 0x585 JUMP JUMPDEST PUSH2 0x59F DUP2 DUP5 DUP5 PUSH2 0x560 JUMP JUMPDEST POP POP POP JUMP JUMPDEST JUMPDEST DUP2 DUP2 LT ISZERO PUSH2 0x5C2 JUMPI PUSH2 0x5B7 PUSH0 DUP3 PUSH2 0x58C JUMP JUMPDEST PUSH1 0x1 DUP2 ADD SWAP1 POP PUSH2 0x5A5 JUMP JUMPDEST POP POP JUMP JUMPDEST PUSH1 0x1F DUP3 GT ISZERO PUSH2 0x607 JUMPI PUSH2 0x5D8 DUP2 PUSH2 0x4A6 JUMP JUMPDEST PUSH2 0x5E1 DUP5 PUSH2 0x4B8 JUMP JUMPDEST DUP2 ADD PUSH1 0x20 DUP6 LT ISZERO PUSH2 0x5F0 JUMPI DUP2 SWAP1 POP JUMPDEST PUSH2 0x604 PUSH2 0x5FC DUP6 PUSH2 0x4B8 JUMP JUMPDEST DUP4 ADD DUP3 PUSH2 0x5A4 JUMP JUMPDEST POP POP JUMPDEST POP POP POP JUMP JUMPDEST PUSH0 DUP3 DUP3 SHR SWAP1 POP SWAP3 SWAP2 POP POP JUMP JUMPDEST PUSH0 PUSH2 0x627 PUSH0 NOT DUP5 PUSH1 0x8 MUL PUSH2 0x60C JUMP JUMPDEST NOT DUP1 DUP4 AND SWAP2 POP POP SWAP3 SWAP2 POP POP JUMP JUMPDEST PUSH0 PUSH2 0x63F DUP4 DUP4 PUSH2 0x618 JUMP JUMPDEST SWAP2 POP DUP3 PUSH1 0x2 MUL DUP3 OR SWAP1 POP SWAP3 SWAP2 POP POP JUMP JUMPDEST PUSH2 0x658 DUP3 PUSH2 0x412 JUMP JUMPDEST PUSH8 0xFFFFFFFFFFFFFFFF DUP2 GT ISZERO PUSH2 0x671 JUMPI PUSH2 0x670 PUSH2 0x41C JUMP JUMPDEST JUMPDEST PUSH2 0x67B DUP3 SLOAD PUSH2 0x476 JUMP JUMPDEST PUSH2 0x686 DUP3 DUP3 DUP6 PUSH2 0x5C6 JUMP JUMPDEST PUSH0 PUSH1 0x20 SWAP1 POP PUSH1 0x1F DUP4 GT PUSH1 0x1 DUP2 EQ PUSH2 0x6B7 JUMPI PUSH0 DUP5 ISZERO PUSH2 0x6A5 JUMPI DUP3 DUP8 ADD MLOAD SWAP1 POP JUMPDEST PUSH2 0x6AF DUP6 DUP3 PUSH2 0x634 JUMP JUMPDEST DUP7 SSTORE POP PUSH2 0x716 JUMP JUMPDEST PUSH1 0x1F NOT DUP5 AND PUSH2 0x6C5 DUP7 PUSH2 0x4A6 JUMP JUMPDEST PUSH0 JUMPDEST DUP3 DUP2 LT ISZERO PUSH2 0x6EC JUMPI DUP5 DUP10 ADD MLOAD DUP3 SSTORE PUSH1 0x1 DUP3 ADD SWAP2 POP PUSH1 0x20 DUP6 ADD SWAP5 POP PUSH1 0x20 DUP2 ADD SWAP1 POP PUSH2 0x6C7 JUMP JUMPDEST DUP7 DUP4 LT ISZERO PUSH2 0x709 JUMPI DUP5 DUP10 ADD MLOAD PUSH2 0x705 PUSH1 0x1F DUP10 AND DUP3 PUSH2 0x618 JUMP JUMPDEST DUP4 SSTORE POP JUMPDEST PUSH1 0x1 PUSH1 0x2 DUP9 MUL ADD DUP9 SSTORE POP POP POP JUMPDEST POP POP POP POP POP POP JUMP JUMPDEST PUSH0 PUSH20 0xFFFFFFFFFFFFFFFFFFFFFFFFFFFFFFFFFFFFFFFF DUP3 AND SWAP1 POP SWAP2 SWAP1 POP JUMP JUMPDEST PUSH0 PUSH2 0x747 DUP3 PUSH2 0x71E JUMP JUMPDEST SWAP1 POP SWAP2 SWAP1 POP JUMP JUMPDEST PUSH2 0x757 DUP2 PUSH2 0x73D JUMP JUMPDEST DUP3 MSTORE POP POP JUMP JUMPDEST PUSH0 PUSH1 0x20 DUP3 ADD SWAP1 POP PUSH2 0x770 PUSH0 DUP4 ADD DUP5 PUSH2 0x74E JUMP JUMPDEST SWAP3 SWAP2 POP POP JUMP JUMPDEST PUSH0 DUP2 SWAP1 POP SWAP2 SWAP1 POP JUMP JUMPDEST PUSH2 0x788 DUP2 PUSH2 0x776 JUMP JUMPDEST DUP3 MSTORE POP POP JUMP JUMPDEST PUSH2 0x797 DUP2 PUSH2 0x524 JUMP JUMPDEST DUP3 MSTORE POP POP JUMP JUMPDEST PUSH0 PUSH1 0xA0 DUP3 ADD SWAP1 POP PUSH2 0x7B0 PUSH0 DUP4 ADD DUP9 PUSH2 0x77F JUMP JUMPDEST PUSH2 0x7BD PUSH1 0x20 DUP4 ADD DUP8 PUSH2 0x77F JUMP JUMPDEST PUSH2 0x7CA PUSH1 0x40 DUP4 ADD DUP7 PUSH2 0x77F JUMP JUMPDEST PUSH2 0x7D7 PUSH1 0x60 DUP4 ADD DUP6 PUSH2 0x78E JUMP JUMPDEST PUSH2 0x7E4 PUSH1 0x80 DUP4 ADD DUP5 PUSH2 0x74E JUMP JUMPDEST SWAP7 SWAP6 POP POP POP POP POP POP JUMP JUMPDEST PUSH0 DUP3 DUP3 MSTORE PUSH1 0x20 DUP3 ADD SWAP1 POP SWAP3 SWAP2 POP POP JUMP JUMPDEST DUP3 DUP2 DUP4 MCOPY PUSH0 DUP4 DUP4 ADD MSTORE POP POP POP JUMP JUMPDEST PUSH0 PUSH1 0x1F NOT PUSH1 0x1F DUP4 ADD AND SWAP1 POP SWAP2 SWAP1 POP JUMP JUMPDEST PUSH0 PUSH2 0x826 DUP3 PUSH2 0x412 JUMP JUMPDEST PUSH2 0x830 DUP2 DUP6 PUSH2 0x7EE JUMP JUMPDEST SWAP4 POP PUSH2 0x840 DUP2 DUP6 PUSH1 0x20 DUP7 ADD PUSH2 0x7FE JUMP JUMPDEST PUSH2 0x849 DUP2 PUSH2 0x80C JUMP JUMPDEST DUP5 ADD SWAP2 POP POP SWAP3 SWAP2 POP POP JUMP JUMPDEST PUSH0 PUSH1 0x20 DUP3 ADD SWAP1 POP DUP2 DUP2 SUB PUSH0 DUP4 ADD MSTORE PUSH2 0x86C DUP2 DUP5 PUSH2 0x81C JUMP JUMPDEST SWAP1 POP SWAP3 SWAP2 POP POP JUMP JUMPDEST PUSH0 DUP2 MLOAD SWAP1 POP SWAP2 SWAP1 POP JUMP JUMPDEST PUSH0 DUP2 SWAP1 POP PUSH1 0x20 DUP3 ADD SWAP1 POP SWAP2 SWAP1 POP JUMP JUMPDEST PUSH0 PUSH2 0x898 DUP3 MLOAD PUSH2 0x776 JUMP JUMPDEST DUP1 SWAP2 POP POP SWAP2 SWAP1 POP JUMP JUMPDEST PUSH0 PUSH2 0x8AB DUP3 PUSH2 0x874 JUMP JUMPDEST DUP3 PUSH2 0x8B5 DUP5 PUSH2 0x87E JUMP JUMPDEST SWAP1 POP PUSH2 0x8C0 DUP2 PUSH2 0x88D JUMP JUMPDEST SWAP3 POP PUSH1 0x20 DUP3 LT ISZERO PUSH2 0x900 JUMPI PUSH2 0x8FB PUSH32 0xFFFFFFFFFFFFFFFFFFFFFFFFFFFFFFFFFFFFFFFFFFFFFFFFFFFFFFFFFFFFFFFF DUP4 PUSH1 0x20 SUB PUSH1 0x8 MUL PUSH2 0x4C7 JUMP JUMPDEST DUP4 AND SWAP3 POP JUMPDEST POP POP SWAP2 SWAP1 POP JUMP JUMPDEST PUSH1 0x80 MLOAD PUSH1 0xA0 MLOAD PUSH1 0xC0 MLOAD PUSH1 0xE0 MLOAD PUSH2 0x100 MLOAD PUSH2 0x120 MLOAD PUSH2 0x140 MLOAD PUSH2 0x4288 PUSH2 0x958 PUSH0 CODECOPY PUSH0 PUSH2 0x162D ADD MSTORE PUSH0 PUSH2 0x15F2 ADD MSTORE PUSH0 PUSH2 0x24AD ADD MSTORE PUSH0 PUSH2 0x248C ADD MSTORE PUSH0 PUSH2 0x1E1E ADD MSTORE PUSH0 PUSH2 0x1E74 ADD MSTORE PUSH0 PUSH2 0x1E9D ADD MSTORE PUSH2 0x4288 PUSH0 RETURN INVALID PUSH1 0x80 PUSH1 0x40 MSTORE CALLVALUE DUP1 ISZERO PUSH2 0xF JUMPI PUSH0 PUSH0 REVERT JUMPDEST POP PUSH1 0x4 CALLDATASIZE LT PUSH2 0x14B JUMPI PUSH0 CALLDATALOAD PUSH1 0xE0 SHR DUP1 PUSH4 0x715018A6 GT PUSH2 0xC1 JUMPI DUP1 PUSH4 0xA22CB465 GT PUSH2 0x7A JUMPI DUP1 PUSH4 0xA22CB465 EQ PUSH2 0x3B3 JUMPI DUP1 PUSH4 0xB88D4FDE EQ PUSH2 0x3CF JUMPI DUP1 PUSH4 0xC87B56DD EQ PUSH2 0x3EB JUMPI DUP1 PUSH4 0xE985E9C5 EQ PUSH2 0x41B JUMPI DUP1 PUSH4 0xF2FDE38B EQ PUSH2 0x44B JUMPI DUP1 PUSH4 0xF50E3DA1 EQ PUSH2 0x467 JUMPI PUSH2 0x14B JUMP JUMPDEST DUP1 PUSH4 0x715018A6 EQ PUSH2 0x2E9 JUMPI DUP1 PUSH4 0x7ECEBE00 EQ PUSH2 0x2F3 JUMPI DUP1 PUSH4 0x84B0196E EQ PUSH2 0x323 JUMPI DUP1 PUSH4 0x86481D40 EQ PUSH2 0x347 JUMPI DUP1 PUSH4 0x8DA5CB5B EQ PUSH2 0x377 JUMPI DUP1 PUSH4 0x95D89B41 EQ PUSH2 0x395 JUMPI PUSH2 0x14B JUMP JUMPDEST DUP1 PUSH4 0x23B872DD GT PUSH2 0x113 JUMPI DUP1 PUSH4 0x23B872DD EQ PUSH2 0x219 JUMPI DUP1 PUSH4 0x42842E0E EQ PUSH2 0x235 JUMPI DUP1 PUSH4 0x46C389BB EQ PUSH2 0x251 JUMPI DUP1 PUSH4 0x6352211E EQ PUSH2 0x26D JUMPI DUP1 PUSH4 0x65D97724 EQ PUSH2 0x29D JUMPI DUP1 PUSH4 0x70A08231 EQ PUSH2 0x2B9 JUMPI PUSH2 0x14B JUMP JUMPDEST DUP1 PUSH4 0x1FFC9A7 EQ PUSH2 0x14F JUMPI DUP1 PUSH4 0x3A1B24E EQ PUSH2 0x17F JUMPI DUP1 PUSH4 0x6FDDE03 EQ PUSH2 0x1AF JUMPI DUP1 PUSH4 0x81812FC EQ PUSH2 0x1CD JUMPI DUP1 PUSH4 0x95EA7B3 EQ PUSH2 0x1FD JUMPI JUMPDEST PUSH0 PUSH0 REVERT JUMPDEST PUSH2 0x169 PUSH1 0x4 DUP1 CALLDATASIZE SUB DUP2 ADD SWAP1 PUSH2 0x164 SWAP2 SWAP1 PUSH2 0x2ADD JUMP JUMPDEST PUSH2 0x497 JUMP JUMPDEST PUSH1 0x40 MLOAD PUSH2 0x176 SWAP2 SWAP1 PUSH2 0x2B22 JUMP JUMPDEST PUSH1 0x40 MLOAD DUP1 SWAP2 SUB SWAP1 RETURN JUMPDEST PUSH2 0x199 PUSH1 0x4 DUP1 CALLDATASIZE SUB DUP2 ADD SWAP1 PUSH2 0x194 SWAP2 SWAP1 PUSH2 0x2B95 JUMP JUMPDEST PUSH2 0x4A8 JUMP JUMPDEST PUSH1 0x40 MLOAD PUSH2 0x1A6 SWAP2 SWAP1 PUSH2 0x2BD8 JUMP JUMPDEST PUSH1 0x40 MLOAD DUP1 SWAP2 SUB SWAP1 RETURN JUMPDEST PUSH2 0x1B7 PUSH2 0x4BD JUMP JUMPDEST PUSH1 0x40 MLOAD PUSH2 0x1C4 SWAP2 SWAP1 PUSH2 0x2C61 JUMP JUMPDEST PUSH1 0x40 MLOAD DUP1 SWAP2 SUB SWAP1 RETURN JUMPDEST PUSH2 0x1E7 PUSH1 0x4 DUP1 CALLDATASIZE SUB DUP2 ADD SWAP1 PUSH2 0x1E2 SWAP2 SWAP1 PUSH2 0x2CAB JUMP JUMPDEST PUSH2 0x54C JUMP JUMPDEST PUSH1 0x40 MLOAD PUSH2 0x1F4 SWAP2 SWAP1 PUSH2 0x2CE5 JUMP JUMPDEST PUSH1 0x40 MLOAD DUP1 SWAP2 SUB SWAP1 RETURN JUMPDEST PUSH2 0x217 PUSH1 0x4 DUP1 CALLDATASIZE SUB DUP2 ADD SWAP1 PUSH2 0x212 SWAP2 SWAP1 PUSH2 0x2CFE JUMP JUMPDEST PUSH2 0x567 JUMP JUMPDEST STOP JUMPDEST PUSH2 0x233 PUSH1 0x4 DUP1 CALLDATASIZE SUB DUP2 ADD SWAP1 PUSH2 0x22E SWAP2 SWAP1 PUSH2 0x2D3C JUMP JUMPDEST PUSH2 0x57D JUMP JUMPDEST STOP JUMPDEST PUSH2 0x24F PUSH1 0x4 DUP1 CALLDATASIZE SUB DUP2 ADD SWAP1 PUSH2 0x24A SWAP2 SWAP1 PUSH2 0x2D3C JUMP JUMPDEST PUSH2 0x67C JUMP JUMPDEST STOP JUMPDEST PUSH2 0x26B PUSH1 0x4 DUP1 CALLDATASIZE SUB DUP2 ADD SWAP1 PUSH2 0x266 SWAP2 SWAP1 PUSH2 0x2EB8 JUMP JUMPDEST PUSH2 0x69B JUMP JUMPDEST STOP JUMPDEST PUSH2 0x287 PUSH1 0x4 DUP1 CALLDATASIZE SUB DUP2 ADD SWAP1 PUSH2 0x282 SWAP2 SWAP1 PUSH2 0x2CAB JUMP JUMPDEST PUSH2 0x9DB JUMP JUMPDEST PUSH1 0x40 MLOAD PUSH2 0x294 SWAP2 SWAP1 PUSH2 0x2CE5 JUMP JUMPDEST PUSH1 0x40 MLOAD DUP1 SWAP2 SUB SWAP1 RETURN JUMPDEST PUSH2 0x2B7 PUSH1 0x4 DUP1 CALLDATASIZE SUB DUP2 ADD SWAP1 PUSH2 0x2B2 SWAP2 SWAP1 PUSH2 0x2CFE JUMP JUMPDEST PUSH2 0x9EC JUMP JUMPDEST STOP JUMPDEST PUSH2 0x2D3 PUSH1 0x4 DUP1 CALLDATASIZE SUB DUP2 ADD SWAP1 PUSH2 0x2CE SWAP2 SWAP1 PUSH2 0x2B95 JUMP JUMPDEST PUSH2 0xB13 JUMP JUMPDEST PUSH1 0x40 MLOAD PUSH2 0x2E0 SWAP2 SWAP1 PUSH2 0x2BD8 JUMP JUMPDEST PUSH1 0x40 MLOAD DUP1 SWAP2 SUB SWAP1 RETURN JUMPDEST PUSH2 0x2F1 PUSH2 0xBC9 JUMP JUMPDEST STOP JUMPDEST PUSH2 0x30D PUSH1 0x4 DUP1 CALLDATASIZE SUB DUP2 ADD SWAP1 PUSH2 0x308 SWAP2 SWAP1 PUSH2 0x2B95 JUMP JUMPDEST PUSH2 0xBDC JUMP JUMPDEST PUSH1 0x40 MLOAD PUSH2 0x31A SWAP2 SWAP1 PUSH2 0x2BD8 JUMP JUMPDEST PUSH1 0x40 MLOAD DUP1 SWAP2 SUB SWAP1 RETURN JUMPDEST PUSH2 0x32B PUSH2 0xBF1 JUMP JUMPDEST PUSH1 0x40 MLOAD PUSH2 0x33E SWAP8 SWAP7 SWAP6 SWAP5 SWAP4 SWAP3 SWAP2 SWAP1 PUSH2 0x3041 JUMP JUMPDEST PUSH1 0x40 MLOAD DUP1 SWAP2 SUB SWAP1 RETURN JUMPDEST PUSH2 0x361 PUSH1 0x4 DUP1 CALLDATASIZE SUB DUP2 ADD SWAP1 PUSH2 0x35C SWAP2 SWAP1 PUSH2 0x2CAB JUMP JUMPDEST PUSH2 0xC96 JUMP JUMPDEST PUSH1 0x40 MLOAD PUSH2 0x36E SWAP2 SWAP1 PUSH2 0x2C61 JUMP JUMPDEST PUSH1 0x40 MLOAD DUP1 SWAP2 SUB SWAP1 RETURN JUMPDEST PUSH2 0x37F PUSH2 0xDEC JUMP JUMPDEST PUSH1 0x40 MLOAD PUSH2 0x38C SWAP2 SWAP1 PUSH2 0x2CE5 JUMP JUMPDEST PUSH1 0x40 MLOAD DUP1 SWAP2 SUB SWAP1 RETURN JUMPDEST PUSH2 0x39D PUSH2 0xE14 JUMP JUMPDEST PUSH1 0x40 MLOAD PUSH2 0x3AA SWAP2 SWAP1 PUSH2 0x2C61 JUMP JUMPDEST PUSH1 0x40 MLOAD DUP1 SWAP2 SUB SWAP1 RETURN JUMPDEST PUSH2 0x3CD PUSH1 0x4 DUP1 CALLDATASIZE SUB DUP2 ADD SWAP1 PUSH2 0x3C8 SWAP2 SWAP1 PUSH2 0x30ED JUMP JUMPDEST PUSH2 0xEA4 JUMP JUMPDEST STOP JUMPDEST PUSH2 0x3E9 PUSH1 0x4 DUP1 CALLDATASIZE SUB DUP2 ADD SWAP1 PUSH2 0x3E4 SWAP2 SWAP1 PUSH2 0x312B JUMP JUMPDEST PUSH2 0xEBA JUMP JUMPDEST STOP JUMPDEST PUSH2 0x405 PUSH1 0x4 DUP1 CALLDATASIZE SUB DUP2 ADD SWAP1 PUSH2 0x400 SWAP2 SWAP1 PUSH2 0x2CAB JUMP JUMPDEST PUSH2 0xEDF JUMP JUMPDEST PUSH1 0x40 MLOAD PUSH2 0x412 SWAP2 SWAP1 PUSH2 0x2C61 JUMP JUMPDEST PUSH1 0x40 MLOAD DUP1 SWAP2 SUB SWAP1 RETURN JUMPDEST PUSH2 0x435 PUSH1 0x4 DUP1 CALLDATASIZE SUB DUP2 ADD SWAP1 PUSH2 0x430 SWAP2 SWAP1 PUSH2 0x31AB JUMP JUMPDEST PUSH2 0xEF1 JUMP JUMPDEST PUSH1 0x40 MLOAD PUSH2 0x442 SWAP2 SWAP1 PUSH2 0x2B22 JUMP JUMPDEST PUSH1 0x40 MLOAD DUP1 SWAP2 SUB SWAP1 RETURN JUMPDEST PUSH2 0x465 PUSH1 0x4 DUP1 CALLDATASIZE SUB DUP2 ADD SWAP1 PUSH2 0x460 SWAP2 SWAP1 PUSH2 0x2B95 JUMP JUMPDEST PUSH2 0xF7F JUMP JUMPDEST STOP JUMPDEST PUSH2 0x481 PUSH1 0x4 DUP1 CALLDATASIZE SUB DUP2 ADD SWAP1 PUSH2 0x47C SWAP2 SWAP1 PUSH2 0x2B95 JUMP JUMPDEST PUSH2 0x1003 JUMP JUMPDEST PUSH1 0x40 MLOAD PUSH2 0x48E SWAP2 SWAP1 PUSH2 0x2BD8 JUMP JUMPDEST PUSH1 0x40 MLOAD DUP1 SWAP2 SUB SWAP1 RETURN JUMPDEST PUSH0 PUSH2 0x4A1 DUP3 PUSH2 0x1018 JUMP JUMPDEST SWAP1 POP SWAP2 SWAP1 POP JUMP JUMPDEST PUSH1 0xC PUSH1 0x20 MSTORE DUP1 PUSH0 MSTORE PUSH1 0x40 PUSH0 KECCAK256 PUSH0 SWAP2 POP SWAP1 POP SLOAD DUP2 JUMP JUMPDEST PUSH1 0x60 PUSH0 DUP1 SLOAD PUSH2 0x4CB SWAP1 PUSH2 0x3216 JUMP JUMPDEST DUP1 PUSH1 0x1F ADD PUSH1 0x20 DUP1 SWAP2 DIV MUL PUSH1 0x20 ADD PUSH1 0x40 MLOAD SWAP1 DUP2 ADD PUSH1 0x40 MSTORE DUP1 SWAP3 SWAP2 SWAP1 DUP2 DUP2 MSTORE PUSH1 0x20 ADD DUP3 DUP1 SLOAD PUSH2 0x4F7 SWAP1 PUSH2 0x3216 JUMP JUMPDEST DUP1 ISZERO PUSH2 0x542 JUMPI DUP1 PUSH1 0x1F LT PUSH2 0x519 JUMPI PUSH2 0x100 DUP1 DUP4 SLOAD DIV MUL DUP4 MSTORE SWAP2 PUSH1 0x20 ADD SWAP2 PUSH2 0x542 JUMP JUMPDEST DUP3 ADD SWAP2 SWAP1 PUSH0 MSTORE PUSH1 0x20 PUSH0 KECCAK256 SWAP1 JUMPDEST DUP2 SLOAD DUP2 MSTORE SWAP1 PUSH1 0x1 ADD SWAP1 PUSH1 0x20 ADD DUP1 DUP4 GT PUSH2 0x525 JUMPI DUP3 SWAP1 SUB PUSH1 0x1F AND DUP3 ADD SWAP2 JUMPDEST POP POP POP POP POP SWAP1 POP SWAP1 JUMP JUMPDEST PUSH0 PUSH2 0x556 DUP3 PUSH2 0x1078 JUMP JUMPDEST POP PUSH2 0x560 DUP3 PUSH2 0x10FE JUMP JUMPDEST SWAP1 POP SWAP2 SWAP1 POP JUMP JUMPDEST PUSH2 0x579 DUP3 DUP3 PUSH2 0x574 PUSH2 0x1137 JUMP JUMPDEST PUSH2 0x113E JUMP JUMPDEST POP POP JUMP JUMPDEST PUSH0 PUSH20 0xFFFFFFFFFFFFFFFFFFFFFFFFFFFFFFFFFFFFFFFF AND DUP3 PUSH20 0xFFFFFFFFFFFFFFFFFFFFFFFFFFFFFFFFFFFFFFFF AND SUB PUSH2 0x5ED JUMPI PUSH0 PUSH1 0x40 MLOAD PUSH32 0x64A0AE9200000000000000000000000000000000000000000000000000000000 DUP2 MSTORE PUSH1 0x4 ADD PUSH2 0x5E4 SWAP2 SWAP1 PUSH2 0x2CE5 JUMP JUMPDEST PUSH1 0x40 MLOAD DUP1 SWAP2 SUB SWAP1 REVERT JUMPDEST PUSH0 PUSH2 0x600 DUP4 DUP4 PUSH2 0x5FB PUSH2 0x1137 JUMP JUMPDEST PUSH2 0x1150 JUMP JUMPDEST SWAP1 POP DUP4 PUSH20 0xFFFFFFFFFFFFFFFFFFFFFFFFFFFFFFFFFFFFFFFF AND DUP2 PUSH20 0xFFFFFFFFFFFFFFFFFFFFFFFFFFFFFFFFFFFFFFFF AND EQ PUSH2 0x676 JUMPI DUP4 DUP3 DUP3 PUSH1 0x40 MLOAD PUSH32 0x64283D7B00000000000000000000000000000000000000000000000000000000 DUP2 MSTORE PUSH1 0x4 ADD PUSH2 0x66D SWAP4 SWAP3 SWAP2 SWAP1 PUSH2 0x3246 JUMP JUMPDEST PUSH1 0x40 MLOAD DUP1 SWAP2 SUB SWAP1 REVERT JUMPDEST POP POP POP POP JUMP JUMPDEST PUSH2 0x696 DUP4 DUP4 DUP4 PUSH1 0x40 MLOAD DUP1 PUSH1 0x20 ADD PUSH1 0x40 MSTORE DUP1 PUSH0 DUP2 MSTORE POP PUSH2 0xEBA JUMP JUMPDEST POP POP POP JUMP JUMPDEST PUSH0 PUSH1 0xC PUSH0 DUP7 PUSH20 0xFFFFFFFFFFFFFFFFFFFFFFFFFFFFFFFFFFFFFFFF AND PUSH20 0xFFFFFFFFFFFFFFFFFFFFFFFFFFFFFFFFFFFFFFFF AND DUP2 MSTORE PUSH1 0x20 ADD SWAP1 DUP2 MSTORE PUSH1 0x20 ADD PUSH0 KECCAK256 SLOAD EQ PUSH2 0x71A JUMPI PUSH1 0x40 MLOAD PUSH32 0x8C379A000000000000000000000000000000000000000000000000000000000 DUP2 MSTORE PUSH1 0x4 ADD PUSH2 0x711 SWAP1 PUSH2 0x32C5 JUMP JUMPDEST PUSH1 0x40 MLOAD DUP1 SWAP2 SUB SWAP1 REVERT JUMPDEST PUSH0 DUP4 GT PUSH2 0x75C JUMPI PUSH1 0x40 MLOAD PUSH32 0x8C379A000000000000000000000000000000000000000000000000000000000 DUP2 MSTORE PUSH1 0x4 ADD PUSH2 0x753 SWAP1 PUSH2 0x332D JUMP JUMPDEST PUSH1 0x40 MLOAD DUP1 SWAP2 SUB SWAP1 REVERT JUMPDEST PUSH0 PUSH32 0x6BE93E55F7ED1686C47AE49BA1AAC187B22CEAB71498B45F204970B1E6C12A9D DUP6 DUP6 DUP6 PUSH1 0x40 MLOAD PUSH1 0x20 ADD PUSH2 0x794 SWAP5 SWAP4 SWAP3 SWAP2 SWAP1 PUSH2 0x334B JUMP JUMPDEST PUSH1 0x40 MLOAD PUSH1 0x20 DUP2 DUP4 SUB SUB DUP2 MSTORE SWAP1 PUSH1 0x40 MSTORE DUP1 MLOAD SWAP1 PUSH1 0x20 ADD KECCAK256 SWAP1 POP PUSH0 PUSH2 0x7B6 DUP3 PUSH2 0x135B JUMP JUMPDEST SWAP1 POP PUSH0 PUSH2 0x7CC DUP5 DUP4 PUSH2 0x1374 SWAP1 SWAP2 SWAP1 PUSH4 0xFFFFFFFF AND JUMP JUMPDEST SWAP1 POP PUSH2 0x7D6 PUSH2 0xDEC JUMP JUMPDEST PUSH20 0xFFFFFFFFFFFFFFFFFFFFFFFFFFFFFFFFFFFFFFFF AND DUP2 PUSH20 0xFFFFFFFFFFFFFFFFFFFFFFFFFFFFFFFFFFFFFFFF AND EQ PUSH2 0x843 JUMPI PUSH1 0x40 MLOAD PUSH32 0x8C379A000000000000000000000000000000000000000000000000000000000 DUP2 MSTORE PUSH1 0x4 ADD PUSH2 0x83A SWAP1 PUSH2 0x33D8 JUMP JUMPDEST PUSH1 0x40 MLOAD DUP1 SWAP2 SUB SWAP1 REVERT JUMPDEST DUP5 PUSH1 0xD PUSH0 DUP10 PUSH20 0xFFFFFFFFFFFFFFFFFFFFFFFFFFFFFFFFFFFFFFFF AND PUSH20 0xFFFFFFFFFFFFFFFFFFFFFFFFFFFFFFFFFFFFFFFF AND DUP2 MSTORE PUSH1 0x20 ADD SWAP1 DUP2 MSTORE PUSH1 0x20 ADD PUSH0 KECCAK256 SLOAD EQ PUSH2 0x8C2 JUMPI PUSH1 0x40 MLOAD PUSH32 0x8C379A000000000000000000000000000000000000000000000000000000000 DUP2 MSTORE PUSH1 0x4 ADD PUSH2 0x8B9 SWAP1 PUSH2 0x3440 JUMP JUMPDEST PUSH1 0x40 MLOAD DUP1 SWAP2 SUB SWAP1 REVERT JUMPDEST PUSH1 0xD PUSH0 DUP9 PUSH20 0xFFFFFFFFFFFFFFFFFFFFFFFFFFFFFFFFFFFFFFFF AND PUSH20 0xFFFFFFFFFFFFFFFFFFFFFFFFFFFFFFFFFFFFFFFF AND DUP2 MSTORE PUSH1 0x20 ADD SWAP1 DUP2 MSTORE PUSH1 0x20 ADD PUSH0 KECCAK256 PUSH0 DUP2 SLOAD DUP1 SWAP3 SWAP2 SWAP1 PUSH2 0x90F SWAP1 PUSH2 0x348B JUMP JUMPDEST SWAP2 SWAP1 POP SSTORE POP PUSH0 PUSH1 0xA PUSH0 DUP2 SLOAD PUSH2 0x923 SWAP1 PUSH2 0x348B JUMP JUMPDEST SWAP2 SWAP1 POP DUP2 SWAP1 SSTORE SWAP1 POP PUSH2 0x935 DUP9 DUP3 PUSH2 0x139E JUMP JUMPDEST DUP7 PUSH1 0xB PUSH0 DUP11 PUSH20 0xFFFFFFFFFFFFFFFFFFFFFFFFFFFFFFFFFFFFFFFF AND PUSH20 0xFFFFFFFFFFFFFFFFFFFFFFFFFFFFFFFFFFFFFFFF AND DUP2 MSTORE PUSH1 0x20 ADD SWAP1 DUP2 MSTORE PUSH1 0x20 ADD PUSH0 KECCAK256 DUP2 SWAP1 SSTORE POP DUP1 PUSH1 0xC PUSH0 DUP11 PUSH20 0xFFFFFFFFFFFFFFFFFFFFFFFFFFFFFFFFFFFFFFFF AND PUSH20 0xFFFFFFFFFFFFFFFFFFFFFFFFFFFFFFFFFFFFFFFF AND DUP2 MSTORE PUSH1 0x20 ADD SWAP1 DUP2 MSTORE PUSH1 0x20 ADD PUSH0 KECCAK256 DUP2 SWAP1 SSTORE POP PUSH0 PUSH2 0x9C4 DUP9 DUP4 PUSH2 0x13BB JUMP JUMPDEST SWAP1 POP PUSH2 0x9D0 DUP3 DUP3 PUSH2 0x1445 JUMP JUMPDEST POP POP POP POP POP POP POP POP POP JUMP JUMPDEST PUSH0 PUSH2 0x9E5 DUP3 PUSH2 0x1078 JUMP JUMPDEST SWAP1 POP SWAP2 SWAP1 POP JUMP JUMPDEST PUSH2 0x9F4 PUSH2 0x149F JUMP JUMPDEST PUSH0 PUSH1 0xC PUSH0 DUP5 PUSH20 0xFFFFFFFFFFFFFFFFFFFFFFFFFFFFFFFFFFFFFFFF AND PUSH20 0xFFFFFFFFFFFFFFFFFFFFFFFFFFFFFFFFFFFFFFFF AND DUP2 MSTORE PUSH1 0x20 ADD SWAP1 DUP2 MSTORE PUSH1 0x20 ADD PUSH0 KECCAK256 SLOAD SUB PUSH2 0xA73 JUMPI PUSH1 0x40 MLOAD PUSH32 0x8C379A000000000000000000000000000000000000000000000000000000000 DUP2 MSTORE PUSH1 0x4 ADD PUSH2 0xA6A SWAP1 PUSH2 0x351C JUMP JUMPDEST PUSH1 0x40 MLOAD DUP1 SWAP2 SUB SWAP1 REVERT JUMPDEST DUP1 PUSH1 0xB PUSH0 DUP5 PUSH20 0xFFFFFFFFFFFFFFFFFFFFFFFFFFFFFFFFFFFFFFFF AND PUSH20 0xFFFFFFFFFFFFFFFFFFFFFFFFFFFFFFFFFFFFFFFF AND DUP2 MSTORE PUSH1 0x20 ADD SWAP1 DUP2 MSTORE PUSH1 0x20 ADD PUSH0 KECCAK256 DUP2 SWAP1 SSTORE POP PUSH0 PUSH1 0xC PUSH0 DUP5 PUSH20 0xFFFFFFFFFFFFFFFFFFFFFFFFFFFFFFFFFFFFFFFF AND PUSH20 0xFFFFFFFFFFFFFFFFFFFFFFFFFFFFFFFFFFFFFFFF AND DUP2 MSTORE PUSH1 0x20 ADD SWAP1 DUP2 MSTORE PUSH1 0x20 ADD PUSH0 KECCAK256 SLOAD SWAP1 POP PUSH0 PUSH2 0xB01 DUP4 DUP4 PUSH2 0x13BB JUMP JUMPDEST SWAP1 POP PUSH2 0xB0D DUP3 DUP3 PUSH2 0x1445 JUMP JUMPDEST POP POP POP POP JUMP JUMPDEST PUSH0 PUSH0 PUSH20 0xFFFFFFFFFFFFFFFFFFFFFFFFFFFFFFFFFFFFFFFF AND DUP3 PUSH20 0xFFFFFFFFFFFFFFFFFFFFFFFFFFFFFFFFFFFFFFFF AND SUB PUSH2 0xB84 JUMPI PUSH0 PUSH1 0x40 MLOAD PUSH32 0x89C62B6400000000000000000000000000000000000000000000000000000000 DUP2 MSTORE PUSH1 0x4 ADD PUSH2 0xB7B SWAP2 SWAP1 PUSH2 0x2CE5 JUMP JUMPDEST PUSH1 0x40 MLOAD DUP1 SWAP2 SUB SWAP1 REVERT JUMPDEST PUSH1 0x3 PUSH0 DUP4 PUSH20 0xFFFFFFFFFFFFFFFFFFFFFFFFFFFFFFFFFFFFFFFF AND PUSH20 0xFFFFFFFFFFFFFFFFFFFFFFFFFFFFFFFFFFFFFFFF AND DUP2 MSTORE PUSH1 0x20 ADD SWAP1 DUP2 MSTORE PUSH1 0x20 ADD PUSH0 KECCAK256 SLOAD SWAP1 POP SWAP2 SWAP1 POP JUMP JUMPDEST PUSH2 0xBD1 PUSH2 0x149F JUMP JUMPDEST PUSH2 0xBDA PUSH0 PUSH2 0x1526 JUMP JUMPDEST JUMP JUMPDEST PUSH1 0xD PUSH1 0x20 MSTORE DUP1 PUSH0 MSTORE PUSH1 0x40 PUSH0 KECCAK256 PUSH0 SWAP2 POP SWAP1 POP SLOAD DUP2 JUMP JUMPDEST PUSH0 PUSH1 0x60 DUP1 PUSH0 PUSH0 PUSH0 PUSH1 0x60 PUSH2 0xC02 PUSH2 0x15E9 JUMP JUMPDEST PUSH2 0xC0A PUSH2 0x1624 JUMP JUMPDEST CHAINID ADDRESS PUSH0 PUSH0 SHL PUSH0 PUSH8 0xFFFFFFFFFFFFFFFF DUP2 GT ISZERO PUSH2 0xC29 JUMPI PUSH2 0xC28 PUSH2 0x2D94 JUMP JUMPDEST JUMPDEST PUSH1 0x40 MLOAD SWAP1 DUP1 DUP3 MSTORE DUP1 PUSH1 0x20 MUL PUSH1 0x20 ADD DUP3 ADD PUSH1 0x40 MSTORE DUP1 ISZERO PUSH2 0xC57 JUMPI DUP2 PUSH1 0x20 ADD PUSH1 0x20 DUP3 MUL DUP1 CALLDATASIZE DUP4 CALLDATACOPY DUP1 DUP3 ADD SWAP2 POP POP SWAP1 POP JUMPDEST POP PUSH32 0xF00000000000000000000000000000000000000000000000000000000000000 SWAP6 SWAP5 SWAP4 SWAP3 SWAP2 SWAP1 SWAP7 POP SWAP7 POP SWAP7 POP SWAP7 POP SWAP7 POP SWAP7 POP SWAP7 POP SWAP1 SWAP2 SWAP3 SWAP4 SWAP5 SWAP6 SWAP7 JUMP JUMPDEST PUSH1 0x60 PUSH2 0x190 DUP3 LT PUSH2 0xCDE JUMPI PUSH1 0x40 MLOAD DUP1 PUSH1 0x40 ADD PUSH1 0x40 MSTORE DUP1 PUSH1 0x8 DUP2 MSTORE PUSH1 0x20 ADD PUSH32 0x476F642054696572000000000000000000000000000000000000000000000000 DUP2 MSTORE POP SWAP1 POP PUSH2 0xDE7 JUMP JUMPDEST PUSH2 0x12C DUP3 LT PUSH2 0xD24 JUMPI PUSH1 0x40 MLOAD DUP1 PUSH1 0x40 ADD PUSH1 0x40 MSTORE DUP1 PUSH1 0xF DUP2 MSTORE PUSH1 0x20 ADD PUSH32 0x4469616D6F6E64204275696C6465720000000000000000000000000000000000 DUP2 MSTORE POP SWAP1 POP PUSH2 0xDE7 JUMP JUMPDEST PUSH1 0xC8 DUP3 LT PUSH2 0xD69 JUMPI PUSH1 0x40 MLOAD DUP1 PUSH1 0x40 ADD PUSH1 0x40 MSTORE DUP1 PUSH1 0xC DUP2 MSTORE PUSH1 0x20 ADD PUSH32 0x476F6C64204275696C6465720000000000000000000000000000000000000000 DUP2 MSTORE POP SWAP1 POP PUSH2 0xDE7 JUMP JUMPDEST PUSH1 0x64 DUP3 LT PUSH2 0xDAE JUMPI PUSH1 0x40 MLOAD DUP1 PUSH1 0x40 ADD PUSH1 0x40 MSTORE DUP1 PUSH1 0xE DUP2 MSTORE PUSH1 0x20 ADD PUSH32 0x53696C766572204275696C646572000000000000000000000000000000000000 DUP2 MSTORE POP SWAP1 POP PUSH2 0xDE7 JUMP JUMPDEST PUSH1 0x40 MLOAD DUP1 PUSH1 0x40 ADD PUSH1 0x40 MSTORE DUP1 PUSH1 0xE DUP2 MSTORE PUSH1 0x20 ADD PUSH32 0x42726F6E7A65204275696C646572000000000000000000000000000000000000 DUP2 MSTORE POP SWAP1 POP JUMPDEST SWAP2 SWAP1 POP JUMP JUMPDEST PUSH0 PUSH1 0x7 PUSH0 SWAP1 SLOAD SWAP1 PUSH2 0x100 EXP SWAP1 DIV PUSH20 0xFFFFFFFFFFFFFFFFFFFFFFFFFFFFFFFFFFFFFFFF AND SWAP1 POP SWAP1 JUMP JUMPDEST PUSH1 0x60 PUSH1 0x1 DUP1 SLOAD PUSH2 0xE23 SWAP1 PUSH2 0x3216 JUMP JUMPDEST DUP1 PUSH1 0x1F ADD PUSH1 0x20 DUP1 SWAP2 DIV MUL PUSH1 0x20 ADD PUSH1 0x40 MLOAD SWAP1 DUP2 ADD PUSH1 0x40 MSTORE DUP1 SWAP3 SWAP2 SWAP1 DUP2 DUP2 MSTORE PUSH1 0x20 ADD DUP3 DUP1 SLOAD PUSH2 0xE4F SWAP1 PUSH2 0x3216 JUMP JUMPDEST DUP1 ISZERO PUSH2 0xE9A JUMPI DUP1 PUSH1 0x1F LT PUSH2 0xE71 JUMPI PUSH2 0x100 DUP1 DUP4 SLOAD DIV MUL DUP4 MSTORE SWAP2 PUSH1 0x20 ADD SWAP2 PUSH2 0xE9A JUMP JUMPDEST DUP3 ADD SWAP2 SWAP1 PUSH0 MSTORE PUSH1 0x20 PUSH0 KECCAK256 SWAP1 JUMPDEST DUP2 SLOAD DUP2 MSTORE SWAP1 PUSH1 0x1 ADD SWAP1 PUSH1 0x20 ADD DUP1 DUP4 GT PUSH2 0xE7D JUMPI DUP3 SWAP1 SUB PUSH1 0x1F AND DUP3 ADD SWAP2 JUMPDEST POP POP POP POP POP SWAP1 POP SWAP1 JUMP JUMPDEST PUSH2 0xEB6 PUSH2 0xEAF PUSH2 0x1137 JUMP JUMPDEST DUP4 DUP4 PUSH2 0x165F JUMP JUMPDEST POP POP JUMP JUMPDEST PUSH2 0xEC5 DUP5 DUP5 DUP5 PUSH2 0x57D JUMP JUMPDEST PUSH2 0xED9 PUSH2 0xED0 PUSH2 0x1137 JUMP JUMPDEST DUP6 DUP6 DUP6 DUP6 PUSH2 0x17C8 JUMP JUMPDEST POP POP POP POP JUMP JUMPDEST PUSH1 0x60 PUSH2 0xEEA DUP3 PUSH2 0x1974 JUMP JUMPDEST SWAP1 POP SWAP2 SWAP1 POP JUMP JUMPDEST PUSH0 PUSH1 0x5 PUSH0 DUP5 PUSH20 0xFFFFFFFFFFFFFFFFFFFFFFFFFFFFFFFFFFFFFFFF AND PUSH20 0xFFFFFFFFFFFFFFFFFFFFFFFFFFFFFFFFFFFFFFFF AND DUP2 MSTORE PUSH1 0x20 ADD SWAP1 DUP2 MSTORE PUSH1 0x20 ADD PUSH0 KECCAK256 PUSH0 DUP4 PUSH20 0xFFFFFFFFFFFFFFFFFFFFFFFFFFFFFFFFFFFFFFFF AND PUSH20 0xFFFFFFFFFFFFFFFFFFFFFFFFFFFFFFFFFFFFFFFF AND DUP2 MSTORE PUSH1 0x20 ADD SWAP1 DUP2 MSTORE PUSH1 0x20 ADD PUSH0 KECCAK256 PUSH0 SWAP1 SLOAD SWAP1 PUSH2 0x100 EXP SWAP1 DIV PUSH1 0xFF AND SWAP1 POP SWAP3 SWAP2 POP POP JUMP JUMPDEST PUSH2 0xF87 PUSH2 0x149F JUMP JUMPDEST PUSH0 PUSH20 0xFFFFFFFFFFFFFFFFFFFFFFFFFFFFFFFFFFFFFFFF AND DUP2 PUSH20 0xFFFFFFFFFFFFFFFFFFFFFFFFFFFFFFFFFFFFFFFF AND SUB PUSH2 0xFF7 JUMPI PUSH0 PUSH1 0x40 MLOAD PUSH32 0x1E4FBDF700000000000000000000000000000000000000000000000000000000 DUP2 MSTORE PUSH1 0x4 ADD PUSH2 0xFEE SWAP2 SWAP1 PUSH2 0x2CE5 JUMP JUMPDEST PUSH1 0x40 MLOAD DUP1 SWAP2 SUB SWAP1 REVERT JUMPDEST PUSH2 0x1000 DUP2 PUSH2 0x1526 JUMP JUMPDEST POP JUMP JUMPDEST PUSH1 0xB PUSH1 0x20 MSTORE DUP1 PUSH0 MSTORE PUSH1 0x40 PUSH0 KECCAK256 PUSH0 SWAP2 POP SWAP1 POP SLOAD DUP2 JUMP JUMPDEST PUSH0 PUSH4 0x49064906 PUSH1 0xE0 SHL PUSH28 0xFFFFFFFFFFFFFFFFFFFFFFFFFFFFFFFFFFFFFFFFFFFFFFFFFFFFFFFF NOT AND DUP3 PUSH28 0xFFFFFFFFFFFFFFFFFFFFFFFFFFFFFFFFFFFFFFFFFFFFFFFFFFFFFFFF NOT AND EQ DUP1 PUSH2 0x1071 JUMPI POP PUSH2 0x1070 DUP3 PUSH2 0x1A7F JUMP JUMPDEST JUMPDEST SWAP1 POP SWAP2 SWAP1 POP JUMP JUMPDEST PUSH0 PUSH0 PUSH2 0x1083 DUP4 PUSH2 0x1B60 JUMP JUMPDEST SWAP1 POP PUSH0 PUSH20 0xFFFFFFFFFFFFFFFFFFFFFFFFFFFFFFFFFFFFFFFF AND DUP2 PUSH20 0xFFFFFFFFFFFFFFFFFFFFFFFFFFFFFFFFFFFFFFFF AND SUB PUSH2 0x10F5 JUMPI DUP3 PUSH1 0x40 MLOAD PUSH32 0x7E27328900000000000000000000000000000000000000000000000000000000 DUP2 MSTORE PUSH1 0x4 ADD PUSH2 0x10EC SWAP2 SWAP1 PUSH2 0x2BD8 JUMP JUMPDEST PUSH1 0x40 MLOAD DUP1 SWAP2 SUB SWAP1 REVERT JUMPDEST DUP1 SWAP2 POP POP SWAP2 SWAP1 POP JUMP JUMPDEST PUSH0 PUSH1 0x4 PUSH0 DUP4 DUP2 MSTORE PUSH1 0x20 ADD SWAP1 DUP2 MSTORE PUSH1 0x20 ADD PUSH0 KECCAK256 PUSH0 SWAP1 SLOAD SWAP1 PUSH2 0x100 EXP SWAP1 DIV PUSH20 0xFFFFFFFFFFFFFFFFFFFFFFFFFFFFFFFFFFFFFFFF AND SWAP1 POP SWAP2 SWAP1 POP JUMP JUMPDEST PUSH0 CALLER SWAP1 POP SWAP1 JUMP JUMPDEST PUSH2 0x114B DUP4 DUP4 DUP4 PUSH1 0x1 PUSH2 0x1B99 JUMP JUMPDEST POP POP POP JUMP JUMPDEST PUSH0 PUSH0 PUSH2 0x115B DUP5 PUSH2 0x1B60 JUMP JUMPDEST SWAP1 POP PUSH0 PUSH20 0xFFFFFFFFFFFFFFFFFFFFFFFFFFFFFFFFFFFFFFFF AND DUP4 PUSH20 0xFFFFFFFFFFFFFFFFFFFFFFFFFFFFFFFFFFFFFFFF AND EQ PUSH2 0x119C JUMPI PUSH2 0x119B DUP2 DUP5 DUP7 PUSH2 0x1D58 JUMP JUMPDEST JUMPDEST PUSH0 PUSH20 0xFFFFFFFFFFFFFFFFFFFFFFFFFFFFFFFFFFFFFFFF AND DUP2 PUSH20 0xFFFFFFFFFFFFFFFFFFFFFFFFFFFFFFFFFFFFFFFF AND EQ PUSH2 0x1227 JUMPI PUSH2 0x11DB PUSH0 DUP6 PUSH0 PUSH0 PUSH2 0x1B99 JUMP JUMPDEST PUSH1 0x1 PUSH1 0x3 PUSH0 DUP4 PUSH20 0xFFFFFFFFFFFFFFFFFFFFFFFFFFFFFFFFFFFFFFFF AND PUSH20 0xFFFFFFFFFFFFFFFFFFFFFFFFFFFFFFFFFFFFFFFF AND DUP2 MSTORE PUSH1 0x20 ADD SWAP1 DUP2 MSTORE PUSH1 0x20 ADD PUSH0 KECCAK256 PUSH0 DUP3 DUP3 SLOAD SUB SWAP3 POP POP DUP2 SWAP1 SSTORE POP JUMPDEST PUSH0 PUSH20 0xFFFFFFFFFFFFFFFFFFFFFFFFFFFFFFFFFFFFFFFF AND DUP6 PUSH20 0xFFFFFFFFFFFFFFFFFFFFFFFFFFFFFFFFFFFFFFFF AND EQ PUSH2 0x12A6 JUMPI PUSH1 0x1 PUSH1 0x3 PUSH0 DUP8 PUSH20 0xFFFFFFFFFFFFFFFFFFFFFFFFFFFFFFFFFFFFFFFF AND PUSH20 0xFFFFFFFFFFFFFFFFFFFFFFFFFFFFFFFFFFFFFFFF AND DUP2 MSTORE PUSH1 0x20 ADD SWAP1 DUP2 MSTORE PUSH1 0x20 ADD PUSH0 KECCAK256 PUSH0 DUP3 DUP3 SLOAD ADD SWAP3 POP POP DUP2 SWAP1 SSTORE POP JUMPDEST DUP5 PUSH1 0x2 PUSH0 DUP7 DUP2 MSTORE PUSH1 0x20 ADD SWAP1 DUP2 MSTORE PUSH1 0x20 ADD PUSH0 KECCAK256 PUSH0 PUSH2 0x100 EXP DUP2 SLOAD DUP2 PUSH20 0xFFFFFFFFFFFFFFFFFFFFFFFFFFFFFFFFFFFFFFFF MUL NOT AND SWAP1 DUP4 PUSH20 0xFFFFFFFFFFFFFFFFFFFFFFFFFFFFFFFFFFFFFFFF AND MUL OR SWAP1 SSTORE POP DUP4 DUP6 PUSH20 0xFFFFFFFFFFFFFFFFFFFFFFFFFFFFFFFFFFFFFFFF AND DUP3 PUSH20 0xFFFFFFFFFFFFFFFFFFFFFFFFFFFFFFFFFFFFFFFF AND PUSH32 0xDDF252AD1BE2C89B69C2B068FC378DAA952BA7F163C4A11628F55A4DF523B3EF PUSH1 0x40 MLOAD PUSH1 0x40 MLOAD DUP1 SWAP2 SUB SWAP1 LOG4 DUP1 SWAP2 POP POP SWAP4 SWAP3 POP POP POP JUMP JUMPDEST PUSH0 PUSH2 0x136D PUSH2 0x1367 PUSH2 0x1E1B JUMP JUMPDEST DUP4 PUSH2 0x1ED1 JUMP JUMPDEST SWAP1 POP SWAP2 SWAP1 POP JUMP JUMPDEST PUSH0 PUSH0 PUSH0 PUSH0 PUSH2 0x1382 DUP7 DUP7 PUSH2 0x1F11 JUMP JUMPDEST SWAP3 POP SWAP3 POP SWAP3 POP PUSH2 0x1392 DUP3 DUP3 PUSH2 0x1F66 JUMP JUMPDEST DUP3 SWAP4 POP POP POP POP SWAP3 SWAP2 POP POP JUMP JUMPDEST PUSH2 0x13B7 DUP3 DUP3 PUSH1 0x40 MLOAD DUP1 PUSH1 0x20 ADD PUSH1 0x40 MSTORE DUP1 PUSH0 DUP2 MSTORE POP PUSH2 0x20C8 JUMP JUMPDEST POP POP JUMP JUMPDEST PUSH1 0x60 PUSH0 PUSH2 0x13C7 DUP5 PUSH2 0xC96 JUMP JUMPDEST SWAP1 POP PUSH0 PUSH2 0x13DC PUSH2 0x13D7 DUP7 DUP5 PUSH2 0x20EB JUMP JUMPDEST PUSH2 0x211F JUMP JUMPDEST SWAP1 POP PUSH2 0x141C PUSH2 0x13EA DUP6 PUSH2 0x214C JUMP JUMPDEST DUP3 PUSH2 0x13F4 DUP9 PUSH2 0x214C JUMP JUMPDEST DUP6 PUSH1 0x40 MLOAD PUSH1 0x20 ADD PUSH2 0x1408 SWAP5 SWAP4 SWAP3 SWAP2 SWAP1 PUSH2 0x37EC JUMP JUMPDEST PUSH1 0x40 MLOAD PUSH1 0x20 DUP2 DUP4 SUB SUB DUP2 MSTORE SWAP1 PUSH1 0x40 MSTORE PUSH2 0x211F JUMP JUMPDEST PUSH1 0x40 MLOAD PUSH1 0x20 ADD PUSH2 0x142C SWAP2 SWAP1 PUSH2 0x38C0 JUMP JUMPDEST PUSH1 0x40 MLOAD PUSH1 0x20 DUP2 DUP4 SUB SUB DUP2 MSTORE SWAP1 PUSH1 0x40 MSTORE SWAP3 POP POP POP SWAP3 SWAP2 POP POP JUMP JUMPDEST DUP1 PUSH1 0x6 PUSH0 DUP5 DUP2 MSTORE PUSH1 0x20 ADD SWAP1 DUP2 MSTORE PUSH1 0x20 ADD PUSH0 KECCAK256 SWAP1 DUP2 PUSH2 0x1463 SWAP2 SWAP1 PUSH2 0x3A81 JUMP JUMPDEST POP PUSH32 0xF8E1A15ABA9398E019F0B49DF1A4FDE98EE17AE345CB5F6B5E2C27F5033E8CE7 DUP3 PUSH1 0x40 MLOAD PUSH2 0x1493 SWAP2 SWAP1 PUSH2 0x2BD8 JUMP JUMPDEST PUSH1 0x40 MLOAD DUP1 SWAP2 SUB SWAP1 LOG1 POP POP JUMP JUMPDEST PUSH2 0x14A7 PUSH2 0x1137 JUMP JUMPDEST PUSH20 0xFFFFFFFFFFFFFFFFFFFFFFFFFFFFFFFFFFFFFFFF AND PUSH2 0x14C5 PUSH2 0xDEC JUMP JUMPDEST PUSH20 0xFFFFFFFFFFFFFFFFFFFFFFFFFFFFFFFFFFFFFFFF AND EQ PUSH2 0x1524 JUMPI PUSH2 0x14E8 PUSH2 0x1137 JUMP JUMPDEST PUSH1 0x40 MLOAD PUSH32 0x118CDAA700000000000000000000000000000000000000000000000000000000 DUP2 MSTORE PUSH1 0x4 ADD PUSH2 0x151B SWAP2 SWAP1 PUSH2 0x2CE5 JUMP JUMPDEST PUSH1 0x40 MLOAD DUP1 SWAP2 SUB SWAP1 REVERT JUMPDEST JUMP JUMPDEST PUSH0 PUSH1 0x7 PUSH0 SWAP1 SLOAD SWAP1 PUSH2 0x100 EXP SWAP1 DIV PUSH20 0xFFFFFFFFFFFFFFFFFFFFFFFFFFFFFFFFFFFFFFFF AND SWAP1 POP DUP2 PUSH1 0x7 PUSH0 PUSH2 0x100 EXP DUP2 SLOAD DUP2 PUSH20 0xFFFFFFFFFFFFFFFFFFFFFFFFFFFFFFFFFFFFFFFF MUL NOT AND SWAP1 DUP4 PUSH20 0xFFFFFFFFFFFFFFFFFFFFFFFFFFFFFFFFFFFFFFFF AND MUL OR SWAP1 SSTORE POP DUP2 PUSH20 0xFFFFFFFFFFFFFFFFFFFFFFFFFFFFFFFFFFFFFFFF AND DUP2 PUSH20 0xFFFFFFFFFFFFFFFFFFFFFFFFFFFFFFFFFFFFFFFF AND PUSH32 0x8BE0079C531659141344CD1FD0A4F28419497F9722A3DAAFE3B4186F6B6457E0 PUSH1 0x40 MLOAD PUSH1 0x40 MLOAD DUP1 SWAP2 SUB SWAP1 LOG3 POP POP JUMP JUMPDEST PUSH1 0x60 PUSH2 0x161F PUSH1 0x8 PUSH32 0x0 PUSH2 0x2216 SWAP1 SWAP2 SWAP1 PUSH4 0xFFFFFFFF AND JUMP JUMPDEST SWAP1 POP SWAP1 JUMP JUMPDEST PUSH1 0x60 PUSH2 0x165A PUSH1 0x9 PUSH32 0x0 PUSH2 0x2216 SWAP1 SWAP2 SWAP1 PUSH4 0xFFFFFFFF AND JUMP JUMPDEST SWAP1 POP SWAP1 JUMP JUMPDEST PUSH0 PUSH20 0xFFFFFFFFFFFFFFFFFFFFFFFFFFFFFFFFFFFFFFFF AND DUP3 PUSH20 0xFFFFFFFFFFFFFFFFFFFFFFFFFFFFFFFFFFFFFFFF AND SUB PUSH2 0x16CF JUMPI DUP2 PUSH1 0x40 MLOAD PUSH32 0x5B08BA1800000000000000000000000000000000000000000000000000000000 DUP2 MSTORE PUSH1 0x4 ADD PUSH2 0x16C6 SWAP2 SWAP1 PUSH2 0x2CE5 JUMP JUMPDEST PUSH1 0x40 MLOAD DUP1 SWAP2 SUB SWAP1 REVERT JUMPDEST DUP1 PUSH1 0x5 PUSH0 DUP6 PUSH20 0xFFFFFFFFFFFFFFFFFFFFFFFFFFFFFFFFFFFFFFFF AND PUSH20 0xFFFFFFFFFFFFFFFFFFFFFFFFFFFFFFFFFFFFFFFF AND DUP2 MSTORE PUSH1 0x20 ADD SWAP1 DUP2 MSTORE PUSH1 0x20 ADD PUSH0 KECCAK256 PUSH0 DUP5 PUSH20 0xFFFFFFFFFFFFFFFFFFFFFFFFFFFFFFFFFFFFFFFF AND PUSH20 0xFFFFFFFFFFFFFFFFFFFFFFFFFFFFFFFFFFFFFFFF AND DUP2 MSTORE PUSH1 0x20 ADD SWAP1 DUP2 MSTORE PUSH1 0x20 ADD PUSH0 KECCAK256 PUSH0 PUSH2 0x100 EXP DUP2 SLOAD DUP2 PUSH1 0xFF MUL NOT AND SWAP1 DUP4 ISZERO ISZERO MUL OR SWAP1 SSTORE POP DUP2 PUSH20 0xFFFFFFFFFFFFFFFFFFFFFFFFFFFFFFFFFFFFFFFF AND DUP4 PUSH20 0xFFFFFFFFFFFFFFFFFFFFFFFFFFFFFFFFFFFFFFFF AND PUSH32 0x17307EAB39AB6107E8899845AD3D59BD9653F200F220920489CA2B5937696C31 DUP4 PUSH1 0x40 MLOAD PUSH2 0x17BB SWAP2 SWAP1 PUSH2 0x2B22 JUMP JUMPDEST PUSH1 0x40 MLOAD DUP1 SWAP2 SUB SWAP1 LOG3 POP POP POP JUMP JUMPDEST PUSH0 DUP4 PUSH20 0xFFFFFFFFFFFFFFFFFFFFFFFFFFFFFFFFFFFFFFFF AND EXTCODESIZE GT ISZERO PUSH2 0x196D JUMPI DUP3 PUSH20 0xFFFFFFFFFFFFFFFFFFFFFFFFFFFFFFFFFFFFFFFF AND PUSH4 0x150B7A02 DUP7 DUP7 DUP6 DUP6 PUSH1 0x40 MLOAD DUP6 PUSH4 0xFFFFFFFF AND PUSH1 0xE0 SHL DUP2 MSTORE PUSH1 0x4 ADD PUSH2 0x1826 SWAP5 SWAP4 SWAP3 SWAP2 SWAP1 PUSH2 0x3BA2 JUMP JUMPDEST PUSH1 0x20 PUSH1 0x40 MLOAD DUP1 DUP4 SUB DUP2 PUSH0 DUP8 GAS CALL SWAP3 POP POP POP DUP1 ISZERO PUSH2 0x1861 JUMPI POP PUSH1 0x40 MLOAD RETURNDATASIZE PUSH1 0x1F NOT PUSH1 0x1F DUP3 ADD AND DUP3 ADD DUP1 PUSH1 0x40 MSTORE POP DUP2 ADD SWAP1 PUSH2 0x185E SWAP2 SWAP1 PUSH2 0x3C00 JUMP JUMPDEST PUSH1 0x1 JUMPDEST PUSH2 0x18E2 JUMPI RETURNDATASIZE DUP1 PUSH0 DUP2 EQ PUSH2 0x188F JUMPI PUSH1 0x40 MLOAD SWAP2 POP PUSH1 0x1F NOT PUSH1 0x3F RETURNDATASIZE ADD AND DUP3 ADD PUSH1 0x40 MSTORE RETURNDATASIZE DUP3 MSTORE RETURNDATASIZE PUSH0 PUSH1 0x20 DUP5 ADD RETURNDATACOPY PUSH2 0x1894 JUMP JUMPDEST PUSH1 0x60 SWAP2 POP JUMPDEST POP PUSH0 DUP2 MLOAD SUB PUSH2 0x18DA JUMPI DUP4 PUSH1 0x40 MLOAD PUSH32 0x64A0AE9200000000000000000000000000000000000000000000000000000000 DUP2 MSTORE PUSH1 0x4 ADD PUSH2 0x18D1 SWAP2 SWAP1 PUSH2 0x2CE5 JUMP JUMPDEST PUSH1 0x40 MLOAD DUP1 SWAP2 SUB SWAP1 REVERT JUMPDEST DUP1 MLOAD PUSH1 0x20 DUP3 ADD REVERT JUMPDEST PUSH4 0x150B7A02 PUSH1 0xE0 SHL PUSH28 0xFFFFFFFFFFFFFFFFFFFFFFFFFFFFFFFFFFFFFFFFFFFFFFFFFFFFFFFF NOT AND DUP2 PUSH28 0xFFFFFFFFFFFFFFFFFFFFFFFFFFFFFFFFFFFFFFFFFFFFFFFFFFFFFFFF NOT AND EQ PUSH2 0x196B JUMPI DUP4 PUSH1 0x40 MLOAD PUSH32 0x64A0AE9200000000000000000000000000000000000000000000000000000000 DUP2 MSTORE PUSH1 0x4 ADD PUSH2 0x1962 SWAP2 SWAP1 PUSH2 0x2CE5 JUMP JUMPDEST PUSH1 0x40 MLOAD DUP1 SWAP2 SUB SWAP1 REVERT JUMPDEST POP JUMPDEST POP POP POP POP POP JUMP JUMPDEST PUSH1 0x60 PUSH2 0x197F DUP3 PUSH2 0x1078 JUMP JUMPDEST POP PUSH0 PUSH1 0x6 PUSH0 DUP5 DUP2 MSTORE PUSH1 0x20 ADD SWAP1 DUP2 MSTORE PUSH1 0x20 ADD PUSH0 KECCAK256 DUP1 SLOAD PUSH2 0x199D SWAP1 PUSH2 0x3216 JUMP JUMPDEST DUP1 PUSH1 0x1F ADD PUSH1 0x20 DUP1 SWAP2 DIV MUL PUSH1 0x20 ADD PUSH1 0x40 MLOAD SWAP1 DUP2 ADD PUSH1 0x40 MSTORE DUP1 SWAP3 SWAP2 SWAP1 DUP2 DUP2 MSTORE PUSH1 0x20 ADD DUP3 DUP1 SLOAD PUSH2 0x19C9 SWAP1 PUSH2 0x3216 JUMP JUMPDEST DUP1 ISZERO PUSH2 0x1A14 JUMPI DUP1 PUSH1 0x1F LT PUSH2 0x19EB JUMPI PUSH2 0x100 DUP1 DUP4 SLOAD DIV MUL DUP4 MSTORE SWAP2 PUSH1 0x20 ADD SWAP2 PUSH2 0x1A14 JUMP JUMPDEST DUP3 ADD SWAP2 SWAP1 PUSH0 MSTORE PUSH1 0x20 PUSH0 KECCAK256 SWAP1 JUMPDEST DUP2 SLOAD DUP2 MSTORE SWAP1 PUSH1 0x1 ADD SWAP1 PUSH1 0x20 ADD DUP1 DUP4 GT PUSH2 0x19F7 JUMPI DUP3 SWAP1 SUB PUSH1 0x1F AND DUP3 ADD SWAP2 JUMPDEST POP POP POP POP POP SWAP1 POP PUSH0 PUSH2 0x1A24 PUSH2 0x22C3 JUMP JUMPDEST SWAP1 POP PUSH0 DUP2 MLOAD SUB PUSH2 0x1A38 JUMPI DUP2 SWAP3 POP POP POP PUSH2 0x1A7A JUMP JUMPDEST PUSH0 DUP3 MLOAD GT ISZERO PUSH2 0x1A6C JUMPI DUP1 DUP3 PUSH1 0x40 MLOAD PUSH1 0x20 ADD PUSH2 0x1A54 SWAP3 SWAP2 SWAP1 PUSH2 0x3C2B JUMP JUMPDEST PUSH1 0x40 MLOAD PUSH1 0x20 DUP2 DUP4 SUB SUB DUP2 MSTORE SWAP1 PUSH1 0x40 MSTORE SWAP3 POP POP POP PUSH2 0x1A7A JUMP JUMPDEST PUSH2 0x1A75 DUP5 PUSH2 0x22D9 JUMP JUMPDEST SWAP3 POP POP POP JUMPDEST SWAP2 SWAP1 POP JUMP JUMPDEST PUSH0 PUSH32 0x80AC58CD00000000000000000000000000000000000000000000000000000000 PUSH28 0xFFFFFFFFFFFFFFFFFFFFFFFFFFFFFFFFFFFFFFFFFFFFFFFFFFFFFFFF NOT AND DUP3 PUSH28 0xFFFFFFFFFFFFFFFFFFFFFFFFFFFFFFFFFFFFFFFFFFFFFFFFFFFFFFFF NOT AND EQ DUP1 PUSH2 0x1B49 JUMPI POP PUSH32 0x5B5E139F00000000000000000000000000000000000000000000000000000000 PUSH28 0xFFFFFFFFFFFFFFFFFFFFFFFFFFFFFFFFFFFFFFFFFFFFFFFFFFFFFFFF NOT AND DUP3 PUSH28 0xFFFFFFFFFFFFFFFFFFFFFFFFFFFFFFFFFFFFFFFFFFFFFFFFFFFFFFFF NOT AND EQ JUMPDEST DUP1 PUSH2 0x1B59 JUMPI POP PUSH2 0x1B58 DUP3 PUSH2 0x233F JUMP JUMPDEST JUMPDEST SWAP1 POP SWAP2 SWAP1 POP JUMP JUMPDEST PUSH0 PUSH1 0x2 PUSH0 DUP4 DUP2 MSTORE PUSH1 0x20 ADD SWAP1 DUP2 MSTORE PUSH1 0x20 ADD PUSH0 KECCAK256 PUSH0 SWAP1 SLOAD SWAP1 PUSH2 0x100 EXP SWAP1 DIV PUSH20 0xFFFFFFFFFFFFFFFFFFFFFFFFFFFFFFFFFFFFFFFF AND SWAP1 POP SWAP2 SWAP1 POP JUMP JUMPDEST DUP1 DUP1 PUSH2 0x1BD1 JUMPI POP PUSH0 PUSH20 0xFFFFFFFFFFFFFFFFFFFFFFFFFFFFFFFFFFFFFFFF AND DUP3 PUSH20 0xFFFFFFFFFFFFFFFFFFFFFFFFFFFFFFFFFFFFFFFF AND EQ ISZERO JUMPDEST ISZERO PUSH2 0x1D03 JUMPI PUSH0 PUSH2 0x1BE0 DUP5 PUSH2 0x1078 JUMP JUMPDEST SWAP1 POP PUSH0 PUSH20 0xFFFFFFFFFFFFFFFFFFFFFFFFFFFFFFFFFFFFFFFF AND DUP4 PUSH20 0xFFFFFFFFFFFFFFFFFFFFFFFFFFFFFFFFFFFFFFFF AND EQ ISZERO DUP1 ISZERO PUSH2 0x1C4A JUMPI POP DUP3 PUSH20 0xFFFFFFFFFFFFFFFFFFFFFFFFFFFFFFFFFFFFFFFF AND DUP2 PUSH20 0xFFFFFFFFFFFFFFFFFFFFFFFFFFFFFFFFFFFFFFFF AND EQ ISZERO JUMPDEST DUP1 ISZERO PUSH2 0x1C5D JUMPI POP PUSH2 0x1C5B DUP2 DUP5 PUSH2 0xEF1 JUMP JUMPDEST ISZERO JUMPDEST ISZERO PUSH2 0x1C9F JUMPI DUP3 PUSH1 0x40 MLOAD PUSH32 0xA9FBF51F00000000000000000000000000000000000000000000000000000000 DUP2 MSTORE PUSH1 0x4 ADD PUSH2 0x1C96 SWAP2 SWAP1 PUSH2 0x2CE5 JUMP JUMPDEST PUSH1 0x40 MLOAD DUP1 SWAP2 SUB SWAP1 REVERT JUMPDEST DUP2 ISZERO PUSH2 0x1D01 JUMPI DUP4 DUP6 PUSH20 0xFFFFFFFFFFFFFFFFFFFFFFFFFFFFFFFFFFFFFFFF AND DUP3 PUSH20 0xFFFFFFFFFFFFFFFFFFFFFFFFFFFFFFFFFFFFFFFF AND PUSH32 0x8C5BE1E5EBEC7D5BD14F71427D1E84F3DD0314C0F7B2291E5B200AC8C7C3B925 PUSH1 0x40 MLOAD PUSH1 0x40 MLOAD DUP1 SWAP2 SUB SWAP1 LOG4 JUMPDEST POP JUMPDEST DUP4 PUSH1 0x4 PUSH0 DUP6 DUP2 MSTORE PUSH1 0x20 ADD SWAP1 DUP2 MSTORE PUSH1 0x20 ADD PUSH0 KECCAK256 PUSH0 PUSH2 0x100 EXP DUP2 SLOAD DUP2 PUSH20 0xFFFFFFFFFFFFFFFFFFFFFFFFFFFFFFFFFFFFFFFF MUL NOT AND SWAP1 DUP4 PUSH20 0xFFFFFFFFFFFFFFFFFFFFFFFFFFFFFFFFFFFFFFFF AND MUL OR SWAP1 SSTORE POP POP POP POP POP JUMP JUMPDEST PUSH2 0x1D63 DUP4 DUP4 DUP4 PUSH2 0x23A8 JUMP JUMPDEST PUSH2 0x1E16 JUMPI PUSH0 PUSH20 0xFFFFFFFFFFFFFFFFFFFFFFFFFFFFFFFFFFFFFFFF AND DUP4 PUSH20 0xFFFFFFFFFFFFFFFFFFFFFFFFFFFFFFFFFFFFFFFF AND SUB PUSH2 0x1DD7 JUMPI DUP1 PUSH1 0x40 MLOAD PUSH32 0x7E27328900000000000000000000000000000000000000000000000000000000 DUP2 MSTORE PUSH1 0x4 ADD PUSH2 0x1DCE SWAP2 SWAP1 PUSH2 0x2BD8 JUMP JUMPDEST PUSH1 0x40 MLOAD DUP1 SWAP2 SUB SWAP1 REVERT JUMPDEST DUP2 DUP2 PUSH1 0x40 MLOAD PUSH32 0x177E802F00000000000000000000000000000000000000000000000000000000 DUP2 MSTORE PUSH1 0x4 ADD PUSH2 0x1E0D SWAP3 SWAP2 SWAP1 PUSH2 0x3C4E JUMP JUMPDEST PUSH1 0x40 MLOAD DUP1 SWAP2 SUB SWAP1 REVERT JUMPDEST POP POP POP JUMP JUMPDEST PUSH0 PUSH32 0x0 PUSH20 0xFFFFFFFFFFFFFFFFFFFFFFFFFFFFFFFFFFFFFFFF AND ADDRESS PUSH20 0xFFFFFFFFFFFFFFFFFFFFFFFFFFFFFFFFFFFFFFFF AND EQ DUP1 ISZERO PUSH2 0x1E96 JUMPI POP PUSH32 0x0 CHAINID EQ JUMPDEST ISZERO PUSH2 0x1EC3 JUMPI PUSH32 0x0 SWAP1 POP PUSH2 0x1ECE JUMP JUMPDEST PUSH2 0x1ECB PUSH2 0x2468 JUMP JUMPDEST SWAP1 POP JUMPDEST SWAP1 JUMP JUMPDEST PUSH0 PUSH1 0x40 MLOAD PUSH32 0x1901000000000000000000000000000000000000000000000000000000000000 DUP2 MSTORE DUP4 PUSH1 0x2 DUP3 ADD MSTORE DUP3 PUSH1 0x22 DUP3 ADD MSTORE PUSH1 0x42 DUP2 KECCAK256 SWAP2 POP POP SWAP3 SWAP2 POP POP JUMP JUMPDEST PUSH0 PUSH0 PUSH0 PUSH1 0x41 DUP5 MLOAD SUB PUSH2 0x1F51 JUMPI PUSH0 PUSH0 PUSH0 PUSH1 0x20 DUP8 ADD MLOAD SWAP3 POP PUSH1 0x40 DUP8 ADD MLOAD SWAP2 POP PUSH1 0x60 DUP8 ADD MLOAD PUSH0 BYTE SWAP1 POP PUSH2 0x1F43 DUP9 DUP3 DUP6 DUP6 PUSH2 0x24FD JUMP JUMPDEST SWAP6 POP SWAP6 POP SWAP6 POP POP POP POP PUSH2 0x1F5F JUMP JUMPDEST PUSH0 PUSH1 0x2 DUP6 MLOAD PUSH0 SHL SWAP3 POP SWAP3 POP SWAP3 POP JUMPDEST SWAP3 POP SWAP3 POP SWAP3 JUMP JUMPDEST PUSH0 PUSH1 0x3 DUP2 GT ISZERO PUSH2 0x1F79 JUMPI PUSH2 0x1F78 PUSH2 0x3C75 JUMP JUMPDEST JUMPDEST DUP3 PUSH1 0x3 DUP2 GT ISZERO PUSH2 0x1F8C JUMPI PUSH2 0x1F8B PUSH2 0x3C75 JUMP JUMPDEST JUMPDEST SUB ISZERO PUSH2 0x20C4 JUMPI PUSH1 0x1 PUSH1 0x3 DUP2 GT ISZERO PUSH2 0x1FA6 JUMPI PUSH2 0x1FA5 PUSH2 0x3C75 JUMP JUMPDEST JUMPDEST DUP3 PUSH1 0x3 DUP2 GT ISZERO PUSH2 0x1FB9 JUMPI PUSH2 0x1FB8 PUSH2 0x3C75 JUMP JUMPDEST JUMPDEST SUB PUSH2 0x1FF0 JUMPI PUSH1 0x40 MLOAD PUSH32 0xF645EEDF00000000000000000000000000000000000000000000000000000000 DUP2 MSTORE PUSH1 0x4 ADD PUSH1 0x40 MLOAD DUP1 SWAP2 SUB SWAP1 REVERT JUMPDEST PUSH1 0x2 PUSH1 0x3 DUP2 GT ISZERO PUSH2 0x2004 JUMPI PUSH2 0x2003 PUSH2 0x3C75 JUMP JUMPDEST JUMPDEST DUP3 PUSH1 0x3 DUP2 GT ISZERO PUSH2 0x2017 JUMPI PUSH2 0x2016 PUSH2 0x3C75 JUMP JUMPDEST JUMPDEST SUB PUSH2 0x205B JUMPI DUP1 PUSH0 SHR PUSH1 0x40 MLOAD PUSH32 0xFCE698F700000000000000000000000000000000000000000000000000000000 DUP2 MSTORE PUSH1 0x4 ADD PUSH2 0x2052 SWAP2 SWAP1 PUSH2 0x2BD8 JUMP JUMPDEST PUSH1 0x40 MLOAD DUP1 SWAP2 SUB SWAP1 REVERT JUMPDEST PUSH1 0x3 DUP1 DUP2 GT ISZERO PUSH2 0x206E JUMPI PUSH2 0x206D PUSH2 0x3C75 JUMP JUMPDEST JUMPDEST DUP3 PUSH1 0x3 DUP2 GT ISZERO PUSH2 0x2081 JUMPI PUSH2 0x2080 PUSH2 0x3C75 JUMP JUMPDEST JUMPDEST SUB PUSH2 0x20C3 JUMPI DUP1 PUSH1 0x40 MLOAD PUSH32 0xD78BCE0C00000000000000000000000000000000000000000000000000000000 DUP2 MSTORE PUSH1 0x4 ADD PUSH2 0x20BA SWAP2 SWAP1 PUSH2 0x3CA2 JUMP JUMPDEST PUSH1 0x40 MLOAD DUP1 SWAP2 SUB SWAP1 REVERT JUMPDEST JUMPDEST POP POP JUMP JUMPDEST PUSH2 0x20D2 DUP4 DUP4 PUSH2 0x25E4 JUMP JUMPDEST PUSH2 0x20E6 PUSH2 0x20DD PUSH2 0x1137 JUMP JUMPDEST PUSH0 DUP6 DUP6 DUP6 PUSH2 0x17C8 JUMP JUMPDEST POP POP POP JUMP JUMPDEST PUSH1 0x60 PUSH2 0x20F6 DUP4 PUSH2 0x214C JUMP JUMPDEST DUP3 PUSH1 0x40 MLOAD PUSH1 0x20 ADD PUSH2 0x2108 SWAP3 SWAP2 SWAP1 PUSH2 0x4017 JUMP JUMPDEST PUSH1 0x40 MLOAD PUSH1 0x20 DUP2 DUP4 SUB SUB DUP2 MSTORE SWAP1 PUSH1 0x40 MSTORE SWAP1 POP SWAP3 SWAP2 POP POP JUMP JUMPDEST PUSH1 0x60 PUSH2 0x2145 DUP3 PUSH1 0x40 MLOAD DUP1 PUSH1 0x60 ADD PUSH1 0x40 MSTORE DUP1 PUSH1 0x40 DUP2 MSTORE PUSH1 0x20 ADD PUSH2 0x4213 PUSH1 0x40 SWAP2 CODECOPY PUSH1 0x1 PUSH2 0x26D7 JUMP JUMPDEST SWAP1 POP SWAP2 SWAP1 POP JUMP JUMPDEST PUSH1 0x60 PUSH0 PUSH1 0x1 PUSH2 0x215A DUP5 PUSH2 0x2866 JUMP JUMPDEST ADD SWAP1 POP PUSH0 DUP2 PUSH8 0xFFFFFFFFFFFFFFFF DUP2 GT ISZERO PUSH2 0x2178 JUMPI PUSH2 0x2177 PUSH2 0x2D94 JUMP JUMPDEST JUMPDEST PUSH1 0x40 MLOAD SWAP1 DUP1 DUP3 MSTORE DUP1 PUSH1 0x1F ADD PUSH1 0x1F NOT AND PUSH1 0x20 ADD DUP3 ADD PUSH1 0x40 MSTORE DUP1 ISZERO PUSH2 0x21AA JUMPI DUP2 PUSH1 0x20 ADD PUSH1 0x1 DUP3 MUL DUP1 CALLDATASIZE DUP4 CALLDATACOPY DUP1 DUP3 ADD SWAP2 POP POP SWAP1 POP JUMPDEST POP SWAP1 POP PUSH0 DUP3 PUSH1 0x20 DUP4 ADD ADD SWAP1 POP JUMPDEST PUSH1 0x1 ISZERO PUSH2 0x220B JUMPI DUP1 DUP1 PUSH1 0x1 SWAP1 SUB SWAP2 POP POP PUSH32 0x3031323334353637383961626364656600000000000000000000000000000000 PUSH1 0xA DUP7 MOD BYTE DUP2 MSTORE8 PUSH1 0xA DUP6 DUP2 PUSH2 0x2200 JUMPI PUSH2 0x21FF PUSH2 0x4092 JUMP JUMPDEST JUMPDEST DIV SWAP5 POP PUSH0 DUP6 SUB PUSH2 0x21B7 JUMPI JUMPDEST DUP2 SWAP4 POP POP POP POP SWAP2 SWAP1 POP JUMP JUMPDEST PUSH1 0x60 PUSH1 0xFF PUSH0 SHL DUP4 EQ PUSH2 0x2232 JUMPI PUSH2 0x222B DUP4 PUSH2 0x29B7 JUMP JUMPDEST SWAP1 POP PUSH2 0x22BD JUMP JUMPDEST DUP2 DUP1 SLOAD PUSH2 0x223E SWAP1 PUSH2 0x3216 JUMP JUMPDEST DUP1 PUSH1 0x1F ADD PUSH1 0x20 DUP1 SWAP2 DIV MUL PUSH1 0x20 ADD PUSH1 0x40 MLOAD SWAP1 DUP2 ADD PUSH1 0x40 MSTORE DUP1 SWAP3 SWAP2 SWAP1 DUP2 DUP2 MSTORE PUSH1 0x20 ADD DUP3 DUP1 SLOAD PUSH2 0x226A SWAP1 PUSH2 0x3216 JUMP JUMPDEST DUP1 ISZERO PUSH2 0x22B5 JUMPI DUP1 PUSH1 0x1F LT PUSH2 0x228C JUMPI PUSH2 0x100 DUP1 DUP4 SLOAD DIV MUL DUP4 MSTORE SWAP2 PUSH1 0x20 ADD SWAP2 PUSH2 0x22B5 JUMP JUMPDEST DUP3 ADD SWAP2 SWAP1 PUSH0 MSTORE PUSH1 0x20 PUSH0 KECCAK256 SWAP1 JUMPDEST DUP2 SLOAD DUP2 MSTORE SWAP1 PUSH1 0x1 ADD SWAP1 PUSH1 0x20 ADD DUP1 DUP4 GT PUSH2 0x2298 JUMPI DUP3 SWAP1 SUB PUSH1 0x1F AND DUP3 ADD SWAP2 JUMPDEST POP POP POP POP POP SWAP1 POP JUMPDEST SWAP3 SWAP2 POP POP JUMP JUMPDEST PUSH1 0x60 PUSH1 0x40 MLOAD DUP1 PUSH1 0x20 ADD PUSH1 0x40 MSTORE DUP1 PUSH0 DUP2 MSTORE POP SWAP1 POP SWAP1 JUMP JUMPDEST PUSH1 0x60 PUSH2 0x22E4 DUP3 PUSH2 0x1078 JUMP JUMPDEST POP PUSH0 PUSH2 0x22EE PUSH2 0x22C3 JUMP JUMPDEST SWAP1 POP PUSH0 DUP2 MLOAD GT PUSH2 0x230C JUMPI PUSH1 0x40 MLOAD DUP1 PUSH1 0x20 ADD PUSH1 0x40 MSTORE DUP1 PUSH0 DUP2 MSTORE POP PUSH2 0x2337 JUMP JUMPDEST DUP1 PUSH2 0x2316 DUP5 PUSH2 0x214C JUMP JUMPDEST PUSH1 0x40 MLOAD PUSH1 0x20 ADD PUSH2 0x2327 SWAP3 SWAP2 SWAP1 PUSH2 0x3C2B JUMP JUMPDEST PUSH1 0x40 MLOAD PUSH1 0x20 DUP2 DUP4 SUB SUB DUP2 MSTORE SWAP1 PUSH1 0x40 MSTORE JUMPDEST SWAP2 POP POP SWAP2 SWAP1 POP JUMP JUMPDEST PUSH0 PUSH32 0x1FFC9A700000000000000000000000000000000000000000000000000000000 PUSH28 0xFFFFFFFFFFFFFFFFFFFFFFFFFFFFFFFFFFFFFFFFFFFFFFFFFFFFFFFF NOT AND DUP3 PUSH28 0xFFFFFFFFFFFFFFFFFFFFFFFFFFFFFFFFFFFFFFFFFFFFFFFFFFFFFFFF NOT AND EQ SWAP1 POP SWAP2 SWAP1 POP JUMP JUMPDEST PUSH0 PUSH0 PUSH20 0xFFFFFFFFFFFFFFFFFFFFFFFFFFFFFFFFFFFFFFFF AND DUP4 PUSH20 0xFFFFFFFFFFFFFFFFFFFFFFFFFFFFFFFFFFFFFFFF AND EQ ISZERO DUP1 ISZERO PUSH2 0x245F JUMPI POP DUP3 PUSH20 0xFFFFFFFFFFFFFFFFFFFFFFFFFFFFFFFFFFFFFFFF AND DUP5 PUSH20 0xFFFFFFFFFFFFFFFFFFFFFFFFFFFFFFFFFFFFFFFF AND EQ DUP1 PUSH2 0x2420 JUMPI POP PUSH2 0x241F DUP5 DUP5 PUSH2 0xEF1 JUMP JUMPDEST JUMPDEST DUP1 PUSH2 0x245E JUMPI POP DUP3 PUSH20 0xFFFFFFFFFFFFFFFFFFFFFFFFFFFFFFFFFFFFFFFF AND PUSH2 0x2446 DUP4 PUSH2 0x10FE JUMP JUMPDEST PUSH20 0xFFFFFFFFFFFFFFFFFFFFFFFFFFFFFFFFFFFFFFFF AND EQ JUMPDEST JUMPDEST SWAP1 POP SWAP4 SWAP3 POP POP POP JUMP JUMPDEST PUSH0 PUSH32 0x8B73C3C69BB8FE3D512ECC4CF759CC79239F7B179B0FFACAA9A75D522B39400F PUSH32 0x0 PUSH32 0x0 CHAINID ADDRESS PUSH1 0x40 MLOAD PUSH1 0x20 ADD PUSH2 0x24E2 SWAP6 SWAP5 SWAP4 SWAP3 SWAP2 SWAP1 PUSH2 0x40BF JUMP JUMPDEST PUSH1 0x40 MLOAD PUSH1 0x20 DUP2 DUP4 SUB SUB DUP2 MSTORE SWAP1 PUSH1 0x40 MSTORE DUP1 MLOAD SWAP1 PUSH1 0x20 ADD KECCAK256 SWAP1 POP SWAP1 JUMP JUMPDEST PUSH0 PUSH0 PUSH0 PUSH32 0x7FFFFFFFFFFFFFFFFFFFFFFFFFFFFFFF5D576E7357A4501DDFE92F46681B20A0 DUP5 PUSH0 SHR GT ISZERO PUSH2 0x2539 JUMPI PUSH0 PUSH1 0x3 DUP6 SWAP3 POP SWAP3 POP SWAP3 POP PUSH2 0x25DA JUMP JUMPDEST PUSH0 PUSH1 0x1 DUP9 DUP9 DUP9 DUP9 PUSH1 0x40 MLOAD PUSH0 DUP2 MSTORE PUSH1 0x20 ADD PUSH1 0x40 MSTORE PUSH1 0x40 MLOAD PUSH2 0x255C SWAP5 SWAP4 SWAP3 SWAP2 SWAP1 PUSH2 0x412B JUMP JUMPDEST PUSH1 0x20 PUSH1 0x40 MLOAD PUSH1 0x20 DUP2 SUB SWAP1 DUP1 DUP5 SUB SWAP1 DUP6 GAS STATICCALL ISZERO DUP1 ISZERO PUSH2 0x257C JUMPI RETURNDATASIZE PUSH0 PUSH0 RETURNDATACOPY RETURNDATASIZE PUSH0 REVERT JUMPDEST POP POP POP PUSH1 0x20 PUSH1 0x40 MLOAD SUB MLOAD SWAP1 POP PUSH0 PUSH20 0xFFFFFFFFFFFFFFFFFFFFFFFFFFFFFFFFFFFFFFFF AND DUP2 PUSH20 0xFFFFFFFFFFFFFFFFFFFFFFFFFFFFFFFFFFFFFFFF AND SUB PUSH2 0x25CD JUMPI PUSH0 PUSH1 0x1 PUSH0 PUSH0 SHL SWAP4 POP SWAP4 POP SWAP4 POP POP PUSH2 0x25DA JUMP JUMPDEST DUP1 PUSH0 PUSH0 PUSH0 SHL SWAP4 POP SWAP4 POP SWAP4 POP POP JUMPDEST SWAP5 POP SWAP5 POP SWAP5 SWAP2 POP POP JUMP JUMPDEST PUSH0 PUSH20 0xFFFFFFFFFFFFFFFFFFFFFFFFFFFFFFFFFFFFFFFF AND DUP3 PUSH20 0xFFFFFFFFFFFFFFFFFFFFFFFFFFFFFFFFFFFFFFFF AND SUB PUSH2 0x2654 JUMPI PUSH0 PUSH1 0x40 MLOAD PUSH32 0x64A0AE9200000000000000000000000000000000000000000000000000000000 DUP2 MSTORE PUSH1 0x4 ADD PUSH2 0x264B SWAP2 SWAP1 PUSH2 0x2CE5 JUMP JUMPDEST PUSH1 0x40 MLOAD DUP1 SWAP2 SUB SWAP1 REVERT JUMPDEST PUSH0 PUSH2 0x2660 DUP4 DUP4 PUSH0 PUSH2 0x1150 JUMP JUMPDEST SWAP1 POP PUSH0 PUSH20 0xFFFFFFFFFFFFFFFFFFFFFFFFFFFFFFFFFFFFFFFF AND DUP2 PUSH20 0xFFFFFFFFFFFFFFFFFFFFFFFFFFFFFFFFFFFFFFFF AND EQ PUSH2 0x26D2 JUMPI PUSH0 PUSH1 0x40 MLOAD PUSH32 0x73C6AC6E00000000000000000000000000000000000000000000000000000000 DUP2 MSTORE PUSH1 0x4 ADD PUSH2 0x26C9 SWAP2 SWAP1 PUSH2 0x2CE5 JUMP JUMPDEST PUSH1 0x40 MLOAD DUP1 SWAP2 SUB SWAP1 REVERT JUMPDEST POP POP POP JUMP JUMPDEST PUSH1 0x60 PUSH0 DUP5 MLOAD SUB PUSH2 0x26F7 JUMPI PUSH1 0x40 MLOAD DUP1 PUSH1 0x20 ADD PUSH1 0x40 MSTORE DUP1 PUSH0 DUP2 MSTORE POP SWAP1 POP PUSH2 0x285F JUMP JUMPDEST PUSH0 DUP3 PUSH2 0x2728 JUMPI PUSH1 0x3 PUSH1 0x2 DUP7 MLOAD PUSH1 0x4 PUSH2 0x270F SWAP2 SWAP1 PUSH2 0x416E JUMP JUMPDEST PUSH2 0x2719 SWAP2 SWAP1 PUSH2 0x41AF JUMP JUMPDEST PUSH2 0x2723 SWAP2 SWAP1 PUSH2 0x41E2 JUMP JUMPDEST PUSH2 0x274F JUMP JUMPDEST PUSH1 0x3 PUSH1 0x2 DUP7 MLOAD PUSH2 0x2738 SWAP2 SWAP1 PUSH2 0x41AF JUMP JUMPDEST PUSH2 0x2742 SWAP2 SWAP1 PUSH2 0x41E2 JUMP JUMPDEST PUSH1 0x4 PUSH2 0x274E SWAP2 SWAP1 PUSH2 0x416E JUMP JUMPDEST JUMPDEST SWAP1 POP PUSH0 DUP2 PUSH8 0xFFFFFFFFFFFFFFFF DUP2 GT ISZERO PUSH2 0x276C JUMPI PUSH2 0x276B PUSH2 0x2D94 JUMP JUMPDEST JUMPDEST PUSH1 0x40 MLOAD SWAP1 DUP1 DUP3 MSTORE DUP1 PUSH1 0x1F ADD PUSH1 0x1F NOT AND PUSH1 0x20 ADD DUP3 ADD PUSH1 0x40 MSTORE DUP1 ISZERO PUSH2 0x279E JUMPI DUP2 PUSH1 0x20 ADD PUSH1 0x1 DUP3 MUL DUP1 CALLDATASIZE DUP4 CALLDATACOPY DUP1 DUP3 ADD SWAP2 POP POP SWAP1 POP JUMPDEST POP SWAP1 POP PUSH1 0x1 DUP6 ADD PUSH1 0x20 DUP3 ADD DUP8 DUP9 MLOAD DUP10 ADD PUSH1 0x20 DUP2 ADD DUP1 MLOAD PUSH0 DUP3 MSTORE JUMPDEST DUP3 DUP5 LT ISZERO PUSH2 0x2813 JUMPI PUSH1 0x3 DUP5 ADD SWAP4 POP DUP4 MLOAD PUSH1 0x3F DUP2 PUSH1 0x12 SHR AND DUP8 ADD MLOAD DUP7 MSTORE8 PUSH1 0x1 DUP7 ADD SWAP6 POP PUSH1 0x3F DUP2 PUSH1 0xC SHR AND DUP8 ADD MLOAD DUP7 MSTORE8 PUSH1 0x1 DUP7 ADD SWAP6 POP PUSH1 0x3F DUP2 PUSH1 0x6 SHR AND DUP8 ADD MLOAD DUP7 MSTORE8 PUSH1 0x1 DUP7 ADD SWAP6 POP PUSH1 0x3F DUP2 AND DUP8 ADD MLOAD DUP7 MSTORE8 PUSH1 0x1 DUP7 ADD SWAP6 POP POP PUSH2 0x27B8 JUMP JUMPDEST DUP1 DUP3 MSTORE DUP10 ISZERO PUSH2 0x2853 JUMPI PUSH1 0x3 DUP13 MLOAD MOD PUSH1 0x1 DUP2 EQ PUSH2 0x2836 JUMPI PUSH1 0x2 DUP2 EQ PUSH2 0x2849 JUMPI PUSH2 0x2851 JUMP JUMPDEST PUSH1 0x3D PUSH1 0x1 DUP8 SUB MSTORE8 PUSH1 0x3D PUSH1 0x2 DUP8 SUB MSTORE8 PUSH2 0x2851 JUMP JUMPDEST PUSH1 0x3D PUSH1 0x1 DUP8 SUB MSTORE8 JUMPDEST POP JUMPDEST POP POP POP POP POP POP DUP1 SWAP3 POP POP POP JUMPDEST SWAP4 SWAP3 POP POP POP JUMP JUMPDEST PUSH0 PUSH0 PUSH0 SWAP1 POP PUSH27 0x184F03E93FF9F4DAA797ED6E38ED64BF6A1F010000000000000000 DUP4 LT PUSH2 0x28C2 JUMPI PUSH27 0x184F03E93FF9F4DAA797ED6E38ED64BF6A1F010000000000000000 DUP4 DUP2 PUSH2 0x28B8 JUMPI PUSH2 0x28B7 PUSH2 0x4092 JUMP JUMPDEST JUMPDEST DIV SWAP3 POP PUSH1 0x40 DUP2 ADD SWAP1 POP JUMPDEST PUSH14 0x4EE2D6D415B85ACEF8100000000 DUP4 LT PUSH2 0x28FF JUMPI PUSH14 0x4EE2D6D415B85ACEF8100000000 DUP4 DUP2 PUSH2 0x28F5 JUMPI PUSH2 0x28F4 PUSH2 0x4092 JUMP JUMPDEST JUMPDEST DIV SWAP3 POP PUSH1 0x20 DUP2 ADD SWAP1 POP JUMPDEST PUSH7 0x2386F26FC10000 DUP4 LT PUSH2 0x292E JUMPI PUSH7 0x2386F26FC10000 DUP4 DUP2 PUSH2 0x2924 JUMPI PUSH2 0x2923 PUSH2 0x4092 JUMP JUMPDEST JUMPDEST DIV SWAP3 POP PUSH1 0x10 DUP2 ADD SWAP1 POP JUMPDEST PUSH4 0x5F5E100 DUP4 LT PUSH2 0x2957 JUMPI PUSH4 0x5F5E100 DUP4 DUP2 PUSH2 0x294D JUMPI PUSH2 0x294C PUSH2 0x4092 JUMP JUMPDEST JUMPDEST DIV SWAP3 POP PUSH1 0x8 DUP2 ADD SWAP1 POP JUMPDEST PUSH2 0x2710 DUP4 LT PUSH2 0x297C JUMPI PUSH2 0x2710 DUP4 DUP2 PUSH2 0x2972 JUMPI PUSH2 0x2971 PUSH2 0x4092 JUMP JUMPDEST JUMPDEST DIV SWAP3 POP PUSH1 0x4 DUP2 ADD SWAP1 POP JUMPDEST PUSH1 0x64 DUP4 LT PUSH2 0x299F JUMPI PUSH1 0x64 DUP4 DUP2 PUSH2 0x2995 JUMPI PUSH2 0x2994 PUSH2 0x4092 JUMP JUMPDEST JUMPDEST DIV SWAP3 POP PUSH1 0x2 DUP2 ADD SWAP1 POP JUMPDEST PUSH1 0xA DUP4 LT PUSH2 0x29AE JUMPI PUSH1 0x1 DUP2 ADD SWAP1 POP JUMPDEST DUP1 SWAP2 POP POP SWAP2 SWAP1 POP JUMP JUMPDEST PUSH1 0x60 PUSH0 PUSH2 0x29C3 DUP4 PUSH2 0x2A29 JUMP JUMPDEST SWAP1 POP PUSH0 PUSH1 0x20 PUSH8 0xFFFFFFFFFFFFFFFF DUP2 GT ISZERO PUSH2 0x29E1 JUMPI PUSH2 0x29E0 PUSH2 0x2D94 JUMP JUMPDEST JUMPDEST PUSH1 0x40 MLOAD SWAP1 DUP1 DUP3 MSTORE DUP1 PUSH1 0x1F ADD PUSH1 0x1F NOT AND PUSH1 0x20 ADD DUP3 ADD PUSH1 0x40 MSTORE DUP1 ISZERO PUSH2 0x2A13 JUMPI DUP2 PUSH1 0x20 ADD PUSH1 0x1 DUP3 MUL DUP1 CALLDATASIZE DUP4 CALLDATACOPY DUP1 DUP3 ADD SWAP2 POP POP SWAP1 POP JUMPDEST POP SWAP1 POP DUP2 DUP2 MSTORE DUP4 PUSH1 0x20 DUP3 ADD MSTORE DUP1 SWAP3 POP POP POP SWAP2 SWAP1 POP JUMP JUMPDEST PUSH0 PUSH0 PUSH1 0xFF DUP4 PUSH0 SHR AND SWAP1 POP PUSH1 0x1F DUP2 GT ISZERO PUSH2 0x2A6E JUMPI PUSH1 0x40 MLOAD PUSH32 0xB3512B0C00000000000000000000000000000000000000000000000000000000 DUP2 MSTORE PUSH1 0x4 ADD PUSH1 0x40 MLOAD DUP1 SWAP2 SUB SWAP1 REVERT JUMPDEST DUP1 SWAP2 POP POP SWAP2 SWAP1 POP JUMP JUMPDEST PUSH0 PUSH1 0x40 MLOAD SWAP1 POP SWAP1 JUMP JUMPDEST PUSH0 PUSH0 REVERT JUMPDEST PUSH0 PUSH0 REVERT JUMPDEST PUSH0 PUSH32 0xFFFFFFFF00000000000000000000000000000000000000000000000000000000 DUP3 AND SWAP1 POP SWAP2 SWAP1 POP JUMP JUMPDEST PUSH2 0x2ABC DUP2 PUSH2 0x2A88 JUMP JUMPDEST DUP2 EQ PUSH2 0x2AC6 JUMPI PUSH0 PUSH0 REVERT JUMPDEST POP JUMP JUMPDEST PUSH0 DUP2 CALLDATALOAD SWAP1 POP PUSH2 0x2AD7 DUP2 PUSH2 0x2AB3 JUMP JUMPDEST SWAP3 SWAP2 POP POP JUMP JUMPDEST PUSH0 PUSH1 0x20 DUP3 DUP5 SUB SLT ISZERO PUSH2 0x2AF2 JUMPI PUSH2 0x2AF1 PUSH2 0x2A80 JUMP JUMPDEST JUMPDEST PUSH0 PUSH2 0x2AFF DUP5 DUP3 DUP6 ADD PUSH2 0x2AC9 JUMP JUMPDEST SWAP2 POP POP SWAP3 SWAP2 POP POP JUMP JUMPDEST PUSH0 DUP2 ISZERO ISZERO SWAP1 POP SWAP2 SWAP1 POP JUMP JUMPDEST PUSH2 0x2B1C DUP2 PUSH2 0x2B08 JUMP JUMPDEST DUP3 MSTORE POP POP JUMP JUMPDEST PUSH0 PUSH1 0x20 DUP3 ADD SWAP1 POP PUSH2 0x2B35 PUSH0 DUP4 ADD DUP5 PUSH2 0x2B13 JUMP JUMPDEST SWAP3 SWAP2 POP POP JUMP JUMPDEST PUSH0 PUSH20 0xFFFFFFFFFFFFFFFFFFFFFFFFFFFFFFFFFFFFFFFF DUP3 AND SWAP1 POP SWAP2 SWAP1 POP JUMP JUMPDEST PUSH0 PUSH2 0x2B64 DUP3 PUSH2 0x2B3B JUMP JUMPDEST SWAP1 POP SWAP2 SWAP1 POP JUMP JUMPDEST PUSH2 0x2B74 DUP2 PUSH2 0x2B5A JUMP JUMPDEST DUP2 EQ PUSH2 0x2B7E JUMPI PUSH0 PUSH0 REVERT JUMPDEST POP JUMP JUMPDEST PUSH0 DUP2 CALLDATALOAD SWAP1 POP PUSH2 0x2B8F DUP2 PUSH2 0x2B6B JUMP JUMPDEST SWAP3 SWAP2 POP POP JUMP JUMPDEST PUSH0 PUSH1 0x20 DUP3 DUP5 SUB SLT ISZERO PUSH2 0x2BAA JUMPI PUSH2 0x2BA9 PUSH2 0x2A80 JUMP JUMPDEST JUMPDEST PUSH0 PUSH2 0x2BB7 DUP5 DUP3 DUP6 ADD PUSH2 0x2B81 JUMP JUMPDEST SWAP2 POP POP SWAP3 SWAP2 POP POP JUMP JUMPDEST PUSH0 DUP2 SWAP1 POP SWAP2 SWAP1 POP JUMP JUMPDEST PUSH2 0x2BD2 DUP2 PUSH2 0x2BC0 JUMP JUMPDEST DUP3 MSTORE POP POP JUMP JUMPDEST PUSH0 PUSH1 0x20 DUP3 ADD SWAP1 POP PUSH2 0x2BEB PUSH0 DUP4 ADD DUP5 PUSH2 0x2BC9 JUMP JUMPDEST SWAP3 SWAP2 POP POP JUMP JUMPDEST PUSH0 DUP2 MLOAD SWAP1 POP SWAP2 SWAP1 POP JUMP JUMPDEST PUSH0 DUP3 DUP3 MSTORE PUSH1 0x20 DUP3 ADD SWAP1 POP SWAP3 SWAP2 POP POP JUMP JUMPDEST DUP3 DUP2 DUP4 MCOPY PUSH0 DUP4 DUP4 ADD MSTORE POP POP POP JUMP JUMPDEST PUSH0 PUSH1 0x1F NOT PUSH1 0x1F DUP4 ADD AND SWAP1 POP SWAP2 SWAP1 POP JUMP JUMPDEST PUSH0 PUSH2 0x2C33 DUP3 PUSH2 0x2BF1 JUMP JUMPDEST PUSH2 0x2C3D DUP2 DUP6 PUSH2 0x2BFB JUMP JUMPDEST SWAP4 POP PUSH2 0x2C4D DUP2 DUP6 PUSH1 0x20 DUP7 ADD PUSH2 0x2C0B JUMP JUMPDEST PUSH2 0x2C56 DUP2 PUSH2 0x2C19 JUMP JUMPDEST DUP5 ADD SWAP2 POP POP SWAP3 SWAP2 POP POP JUMP JUMPDEST PUSH0 PUSH1 0x20 DUP3 ADD SWAP1 POP DUP2 DUP2 SUB PUSH0 DUP4 ADD MSTORE PUSH2 0x2C79 DUP2 DUP5 PUSH2 0x2C29 JUMP JUMPDEST SWAP1 POP SWAP3 SWAP2 POP POP JUMP JUMPDEST PUSH2 0x2C8A DUP2 PUSH2 0x2BC0 JUMP JUMPDEST DUP2 EQ PUSH2 0x2C94 JUMPI PUSH0 PUSH0 REVERT JUMPDEST POP JUMP JUMPDEST PUSH0 DUP2 CALLDATALOAD SWAP1 POP PUSH2 0x2CA5 DUP2 PUSH2 0x2C81 JUMP JUMPDEST SWAP3 SWAP2 POP POP JUMP JUMPDEST PUSH0 PUSH1 0x20 DUP3 DUP5 SUB SLT ISZERO PUSH2 0x2CC0 JUMPI PUSH2 0x2CBF PUSH2 0x2A80 JUMP JUMPDEST JUMPDEST PUSH0 PUSH2 0x2CCD DUP5 DUP3 DUP6 ADD PUSH2 0x2C97 JUMP JUMPDEST SWAP2 POP POP SWAP3 SWAP2 POP POP JUMP JUMPDEST PUSH2 0x2CDF DUP2 PUSH2 0x2B5A JUMP JUMPDEST DUP3 MSTORE POP POP JUMP JUMPDEST PUSH0 PUSH1 0x20 DUP3 ADD SWAP1 POP PUSH2 0x2CF8 PUSH0 DUP4 ADD DUP5 PUSH2 0x2CD6 JUMP JUMPDEST SWAP3 SWAP2 POP POP JUMP JUMPDEST PUSH0 PUSH0 PUSH1 0x40 DUP4 DUP6 SUB SLT ISZERO PUSH2 0x2D14 JUMPI PUSH2 0x2D13 PUSH2 0x2A80 JUMP JUMPDEST JUMPDEST PUSH0 PUSH2 0x2D21 DUP6 DUP3 DUP7 ADD PUSH2 0x2B81 JUMP JUMPDEST SWAP3 POP POP PUSH1 0x20 PUSH2 0x2D32 DUP6 DUP3 DUP7 ADD PUSH2 0x2C97 JUMP JUMPDEST SWAP2 POP POP SWAP3 POP SWAP3 SWAP1 POP JUMP JUMPDEST PUSH0 PUSH0 PUSH0 PUSH1 0x60 DUP5 DUP7 SUB SLT ISZERO PUSH2 0x2D53 JUMPI PUSH2 0x2D52 PUSH2 0x2A80 JUMP JUMPDEST JUMPDEST PUSH0 PUSH2 0x2D60 DUP7 DUP3 DUP8 ADD PUSH2 0x2B81 JUMP JUMPDEST SWAP4 POP POP PUSH1 0x20 PUSH2 0x2D71 DUP7 DUP3 DUP8 ADD PUSH2 0x2B81 JUMP JUMPDEST SWAP3 POP POP PUSH1 0x40 PUSH2 0x2D82 DUP7 DUP3 DUP8 ADD PUSH2 0x2C97 JUMP JUMPDEST SWAP2 POP POP SWAP3 POP SWAP3 POP SWAP3 JUMP JUMPDEST PUSH0 PUSH0 REVERT JUMPDEST PUSH0 PUSH0 REVERT JUMPDEST PUSH32 0x4E487B7100000000000000000000000000000000000000000000000000000000 PUSH0 MSTORE PUSH1 0x41 PUSH1 0x4 MSTORE PUSH1 0x24 PUSH0 REVERT JUMPDEST PUSH2 0x2DCA DUP3 PUSH2 0x2C19 JUMP JUMPDEST DUP2 ADD DUP2 DUP2 LT PUSH8 0xFFFFFFFFFFFFFFFF DUP3 GT OR ISZERO PUSH2 0x2DE9 JUMPI PUSH2 0x2DE8 PUSH2 0x2D94 JUMP JUMPDEST JUMPDEST DUP1 PUSH1 0x40 MSTORE POP POP POP JUMP JUMPDEST PUSH0 PUSH2 0x2DFB PUSH2 0x2A77 JUMP JUMPDEST SWAP1 POP PUSH2 0x2E07 DUP3 DUP3 PUSH2 0x2DC1 JUMP JUMPDEST SWAP2 SWAP1 POP JUMP JUMPDEST PUSH0 PUSH8 0xFFFFFFFFFFFFFFFF DUP3 GT ISZERO PUSH2 0x2E26 JUMPI PUSH2 0x2E25 PUSH2 0x2D94 JUMP JUMPDEST JUMPDEST PUSH2 0x2E2F DUP3 PUSH2 0x2C19 JUMP JUMPDEST SWAP1 POP PUSH1 0x20 DUP2 ADD SWAP1 POP SWAP2 SWAP1 POP JUMP JUMPDEST DUP3 DUP2 DUP4 CALLDATACOPY PUSH0 DUP4 DUP4 ADD MSTORE POP POP POP JUMP JUMPDEST PUSH0 PUSH2 0x2E5C PUSH2 0x2E57 DUP5 PUSH2 0x2E0C JUMP JUMPDEST PUSH2 0x2DF2 JUMP JUMPDEST SWAP1 POP DUP3 DUP2 MSTORE PUSH1 0x20 DUP2 ADD DUP5 DUP5 DUP5 ADD GT ISZERO PUSH2 0x2E78 JUMPI PUSH2 0x2E77 PUSH2 0x2D90 JUMP JUMPDEST JUMPDEST PUSH2 0x2E83 DUP5 DUP3 DUP6 PUSH2 0x2E3C JUMP JUMPDEST POP SWAP4 SWAP3 POP POP POP JUMP JUMPDEST PUSH0 DUP3 PUSH1 0x1F DUP4 ADD SLT PUSH2 0x2E9F JUMPI PUSH2 0x2E9E PUSH2 0x2D8C JUMP JUMPDEST JUMPDEST DUP2 CALLDATALOAD PUSH2 0x2EAF DUP5 DUP3 PUSH1 0x20 DUP7 ADD PUSH2 0x2E4A JUMP JUMPDEST SWAP2 POP POP SWAP3 SWAP2 POP POP JUMP JUMPDEST PUSH0 PUSH0 PUSH0 PUSH0 PUSH1 0x80 DUP6 DUP8 SUB SLT ISZERO PUSH2 0x2ED0 JUMPI PUSH2 0x2ECF PUSH2 0x2A80 JUMP JUMPDEST JUMPDEST PUSH0 PUSH2 0x2EDD DUP8 DUP3 DUP9 ADD PUSH2 0x2B81 JUMP JUMPDEST SWAP5 POP POP PUSH1 0x20 PUSH2 0x2EEE DUP8 DUP3 DUP9 ADD PUSH2 0x2C97 JUMP JUMPDEST SWAP4 POP POP PUSH1 0x40 PUSH2 0x2EFF DUP8 DUP3 DUP9 ADD PUSH2 0x2C97 JUMP JUMPDEST SWAP3 POP POP PUSH1 0x60 DUP6 ADD CALLDATALOAD PUSH8 0xFFFFFFFFFFFFFFFF DUP2 GT ISZERO PUSH2 0x2F20 JUMPI PUSH2 0x2F1F PUSH2 0x2A84 JUMP JUMPDEST JUMPDEST PUSH2 0x2F2C DUP8 DUP3 DUP9 ADD PUSH2 0x2E8B JUMP JUMPDEST SWAP2 POP POP SWAP3 SWAP6 SWAP2 SWAP5 POP SWAP3 POP JUMP JUMPDEST PUSH0 PUSH32 0xFF00000000000000000000000000000000000000000000000000000000000000 DUP3 AND SWAP1 POP SWAP2 SWAP1 POP JUMP JUMPDEST PUSH2 0x2F6C DUP2 PUSH2 0x2F38 JUMP JUMPDEST DUP3 MSTORE POP POP JUMP JUMPDEST PUSH0 DUP2 SWAP1 POP SWAP2 SWAP1 POP JUMP JUMPDEST PUSH2 0x2F84 DUP2 PUSH2 0x2F72 JUMP JUMPDEST DUP3 MSTORE POP POP JUMP JUMPDEST PUSH0 DUP2 MLOAD SWAP1 POP SWAP2 SWAP1 POP JUMP JUMPDEST PUSH0 DUP3 DUP3 MSTORE PUSH1 0x20 DUP3 ADD SWAP1 POP SWAP3 SWAP2 POP POP JUMP JUMPDEST PUSH0 DUP2 SWAP1 POP PUSH1 0x20 DUP3 ADD SWAP1 POP SWAP2 SWAP1 POP JUMP JUMPDEST PUSH2 0x2FBC DUP2 PUSH2 0x2BC0 JUMP JUMPDEST DUP3 MSTORE POP POP JUMP JUMPDEST PUSH0 PUSH2 0x2FCD DUP4 DUP4 PUSH2 0x2FB3 JUMP JUMPDEST PUSH1 0x20 DUP4 ADD SWAP1 POP SWAP3 SWAP2 POP POP JUMP JUMPDEST PUSH0 PUSH1 0x20 DUP3 ADD SWAP1 POP SWAP2 SWAP1 POP JUMP JUMPDEST PUSH0 PUSH2 0x2FEF DUP3 PUSH2 0x2F8A JUMP JUMPDEST PUSH2 0x2FF9 DUP2 DUP6 PUSH2 0x2F94 JUMP JUMPDEST SWAP4 POP PUSH2 0x3004 DUP4 PUSH2 0x2FA4 JUMP JUMPDEST DUP1 PUSH0 JUMPDEST DUP4 DUP2 LT ISZERO PUSH2 0x3034 JUMPI DUP2 MLOAD PUSH2 0x301B DUP9 DUP3 PUSH2 0x2FC2 JUMP JUMPDEST SWAP8 POP PUSH2 0x3026 DUP4 PUSH2 0x2FD9 JUMP JUMPDEST SWAP3 POP POP PUSH1 0x1 DUP2 ADD SWAP1 POP PUSH2 0x3007 JUMP JUMPDEST POP DUP6 SWAP4 POP POP POP POP SWAP3 SWAP2 POP POP JUMP JUMPDEST PUSH0 PUSH1 0xE0 DUP3 ADD SWAP1 POP PUSH2 0x3054 PUSH0 DUP4 ADD DUP11 PUSH2 0x2F63 JUMP JUMPDEST DUP2 DUP2 SUB PUSH1 0x20 DUP4 ADD MSTORE PUSH2 0x3066 DUP2 DUP10 PUSH2 0x2C29 JUMP JUMPDEST SWAP1 POP DUP2 DUP2 SUB PUSH1 0x40 DUP4 ADD MSTORE PUSH2 0x307A DUP2 DUP9 PUSH2 0x2C29 JUMP JUMPDEST SWAP1 POP PUSH2 0x3089 PUSH1 0x60 DUP4 ADD DUP8 PUSH2 0x2BC9 JUMP JUMPDEST PUSH2 0x3096 PUSH1 0x80 DUP4 ADD DUP7 PUSH2 0x2CD6 JUMP JUMPDEST PUSH2 0x30A3 PUSH1 0xA0 DUP4 ADD DUP6 PUSH2 0x2F7B JUMP JUMPDEST DUP2 DUP2 SUB PUSH1 0xC0 DUP4 ADD MSTORE PUSH2 0x30B5 DUP2 DUP5 PUSH2 0x2FE5 JUMP JUMPDEST SWAP1 POP SWAP9 SWAP8 POP POP POP POP POP POP POP POP JUMP JUMPDEST PUSH2 0x30CC DUP2 PUSH2 0x2B08 JUMP JUMPDEST DUP2 EQ PUSH2 0x30D6 JUMPI PUSH0 PUSH0 REVERT JUMPDEST POP JUMP JUMPDEST PUSH0 DUP2 CALLDATALOAD SWAP1 POP PUSH2 0x30E7 DUP2 PUSH2 0x30C3 JUMP JUMPDEST SWAP3 SWAP2 POP POP JUMP JUMPDEST PUSH0 PUSH0 PUSH1 0x40 DUP4 DUP6 SUB SLT ISZERO PUSH2 0x3103 JUMPI PUSH2 0x3102 PUSH2 0x2A80 JUMP JUMPDEST JUMPDEST PUSH0 PUSH2 0x3110 DUP6 DUP3 DUP7 ADD PUSH2 0x2B81 JUMP JUMPDEST SWAP3 POP POP PUSH1 0x20 PUSH2 0x3121 DUP6 DUP3 DUP7 ADD PUSH2 0x30D9 JUMP JUMPDEST SWAP2 POP POP SWAP3 POP SWAP3 SWAP1 POP JUMP JUMPDEST PUSH0 PUSH0 PUSH0 PUSH0 PUSH1 0x80 DUP6 DUP8 SUB SLT ISZERO PUSH2 0x3143 JUMPI PUSH2 0x3142 PUSH2 0x2A80 JUMP JUMPDEST JUMPDEST PUSH0 PUSH2 0x3150 DUP8 DUP3 DUP9 ADD PUSH2 0x2B81 JUMP JUMPDEST SWAP5 POP POP PUSH1 0x20 PUSH2 0x3161 DUP8 DUP3 DUP9 ADD PUSH2 0x2B81 JUMP JUMPDEST SWAP4 POP POP PUSH1 0x40 PUSH2 0x3172 DUP8 DUP3 DUP9 ADD PUSH2 0x2C97 JUMP JUMPDEST SWAP3 POP POP PUSH1 0x60 DUP6 ADD CALLDATALOAD PUSH8 0xFFFFFFFFFFFFFFFF DUP2 GT ISZERO PUSH2 0x3193 JUMPI PUSH2 0x3192 PUSH2 0x2A84 JUMP JUMPDEST JUMPDEST PUSH2 0x319F DUP8 DUP3 DUP9 ADD PUSH2 0x2E8B JUMP JUMPDEST SWAP2 POP POP SWAP3 SWAP6 SWAP2 SWAP5 POP SWAP3 POP JUMP JUMPDEST PUSH0 PUSH0 PUSH1 0x40 DUP4 DUP6 SUB SLT ISZERO PUSH2 0x31C1 JUMPI PUSH2 0x31C0 PUSH2 0x2A80 JUMP JUMPDEST JUMPDEST PUSH0 PUSH2 0x31CE DUP6 DUP3 DUP7 ADD PUSH2 0x2B81 JUMP JUMPDEST SWAP3 POP POP PUSH1 0x20 PUSH2 0x31DF DUP6 DUP3 DUP7 ADD PUSH2 0x2B81 JUMP JUMPDEST SWAP2 POP POP SWAP3 POP SWAP3 SWAP1 POP JUMP JUMPDEST PUSH32 0x4E487B7100000000000000000000000000000000000000000000000000000000 PUSH0 MSTORE PUSH1 0x22 PUSH1 0x4 MSTORE PUSH1 0x24 PUSH0 REVERT JUMPDEST PUSH0 PUSH1 0x2 DUP3 DIV SWAP1 POP PUSH1 0x1 DUP3 AND DUP1 PUSH2 0x322D JUMPI PUSH1 0x7F DUP3 AND SWAP2 POP JUMPDEST PUSH1 0x20 DUP3 LT DUP2 SUB PUSH2 0x3240 JUMPI PUSH2 0x323F PUSH2 0x31E9 JUMP JUMPDEST JUMPDEST POP SWAP2 SWAP1 POP JUMP JUMPDEST PUSH0 PUSH1 0x60 DUP3 ADD SWAP1 POP PUSH2 0x3259 PUSH0 DUP4 ADD DUP7 PUSH2 0x2CD6 JUMP JUMPDEST PUSH2 0x3266 PUSH1 0x20 DUP4 ADD DUP6 PUSH2 0x2BC9 JUMP JUMPDEST PUSH2 0x3273 PUSH1 0x40 DUP4 ADD DUP5 PUSH2 0x2CD6 JUMP JUMPDEST SWAP5 SWAP4 POP POP POP POP JUMP JUMPDEST PUSH32 0x416C726561647920686173204E46540000000000000000000000000000000000 PUSH0 DUP3 ADD MSTORE POP JUMP JUMPDEST PUSH0 PUSH2 0x32AF PUSH1 0xF DUP4 PUSH2 0x2BFB JUMP JUMPDEST SWAP2 POP PUSH2 0x32BA DUP3 PUSH2 0x327B JUMP JUMPDEST PUSH1 0x20 DUP3 ADD SWAP1 POP SWAP2 SWAP1 POP JUMP JUMPDEST PUSH0 PUSH1 0x20 DUP3 ADD SWAP1 POP DUP2 DUP2 SUB PUSH0 DUP4 ADD MSTORE PUSH2 0x32DC DUP2 PUSH2 0x32A3 JUMP JUMPDEST SWAP1 POP SWAP2 SWAP1 POP JUMP JUMPDEST PUSH32 0x496E76616C69642073636F726500000000000000000000000000000000000000 PUSH0 DUP3 ADD MSTORE POP JUMP JUMPDEST PUSH0 PUSH2 0x3317 PUSH1 0xD DUP4 PUSH2 0x2BFB JUMP JUMPDEST SWAP2 POP PUSH2 0x3322 DUP3 PUSH2 0x32E3 JUMP JUMPDEST PUSH1 0x20 DUP3 ADD SWAP1 POP SWAP2 SWAP1 POP JUMP JUMPDEST PUSH0 PUSH1 0x20 DUP3 ADD SWAP1 POP DUP2 DUP2 SUB PUSH0 DUP4 ADD MSTORE PUSH2 0x3344 DUP2 PUSH2 0x330B JUMP JUMPDEST SWAP1 POP SWAP2 SWAP1 POP JUMP JUMPDEST PUSH0 PUSH1 0x80 DUP3 ADD SWAP1 POP PUSH2 0x335E PUSH0 DUP4 ADD DUP8 PUSH2 0x2F7B JUMP JUMPDEST PUSH2 0x336B PUSH1 0x20 DUP4 ADD DUP7 PUSH2 0x2CD6 JUMP JUMPDEST PUSH2 0x3378 PUSH1 0x40 DUP4 ADD DUP6 PUSH2 0x2BC9 JUMP JUMPDEST PUSH2 0x3385 PUSH1 0x60 DUP4 ADD DUP5 PUSH2 0x2BC9 JUMP JUMPDEST SWAP6 SWAP5 POP POP POP POP POP JUMP JUMPDEST PUSH32 0x496E76616C696420736967000000000000000000000000000000000000000000 PUSH0 DUP3 ADD MSTORE POP JUMP JUMPDEST PUSH0 PUSH2 0x33C2 PUSH1 0xB DUP4 PUSH2 0x2BFB JUMP JUMPDEST SWAP2 POP PUSH2 0x33CD DUP3 PUSH2 0x338E JUMP JUMPDEST PUSH1 0x20 DUP3 ADD SWAP1 POP SWAP2 SWAP1 POP JUMP JUMPDEST PUSH0 PUSH1 0x20 DUP3 ADD SWAP1 POP DUP2 DUP2 SUB PUSH0 DUP4 ADD MSTORE PUSH2 0x33EF DUP2 PUSH2 0x33B6 JUMP JUMPDEST SWAP1 POP SWAP2 SWAP1 POP JUMP JUMPDEST PUSH32 0x496E76616C6964206E6F6E636500000000000000000000000000000000000000 PUSH0 DUP3 ADD MSTORE POP JUMP JUMPDEST PUSH0 PUSH2 0x342A PUSH1 0xD DUP4 PUSH2 0x2BFB JUMP JUMPDEST SWAP2 POP PUSH2 0x3435 DUP3 PUSH2 0x33F6 JUMP JUMPDEST PUSH1 0x20 DUP3 ADD SWAP1 POP SWAP2 SWAP1 POP JUMP JUMPDEST PUSH0 PUSH1 0x20 DUP3 ADD SWAP1 POP DUP2 DUP2 SUB PUSH0 DUP4 ADD MSTORE PUSH2 0x3457 DUP2 PUSH2 0x341E JUMP JUMPDEST SWAP1 POP SWAP2 SWAP1 POP JUMP JUMPDEST PUSH32 0x4E487B7100000000000000000000000000000000000000000000000000000000 PUSH0 MSTORE PUSH1 0x11 PUSH1 0x4 MSTORE PUSH1 0x24 PUSH0 REVERT JUMPDEST PUSH0 PUSH2 0x3495 DUP3 PUSH2 0x2BC0 JUMP JUMPDEST SWAP2 POP PUSH32 0xFFFFFFFFFFFFFFFFFFFFFFFFFFFFFFFFFFFFFFFFFFFFFFFFFFFFFFFFFFFFFFFF DUP3 SUB PUSH2 0x34C7 JUMPI PUSH2 0x34C6 PUSH2 0x345E JUMP JUMPDEST JUMPDEST PUSH1 0x1 DUP3 ADD SWAP1 POP SWAP2 SWAP1 POP JUMP JUMPDEST PUSH32 0x4E6F204E46542079657400000000000000000000000000000000000000000000 PUSH0 DUP3 ADD MSTORE POP JUMP JUMPDEST PUSH0 PUSH2 0x3506 PUSH1 0xA DUP4 PUSH2 0x2BFB JUMP JUMPDEST SWAP2 POP PUSH2 0x3511 DUP3 PUSH2 0x34D2 JUMP JUMPDEST PUSH1 0x20 DUP3 ADD SWAP1 POP SWAP2 SWAP1 POP JUMP JUMPDEST PUSH0 PUSH1 0x20 DUP3 ADD SWAP1 POP DUP2 DUP2 SUB PUSH0 DUP4 ADD MSTORE PUSH2 0x3533 DUP2 PUSH2 0x34FA JUMP JUMPDEST SWAP1 POP SWAP2 SWAP1 POP JUMP JUMPDEST PUSH0 DUP2 SWAP1 POP SWAP3 SWAP2 POP POP JUMP JUMPDEST PUSH32 0x7B226E616D65223A224275696C6465722053636F726520230000000000000000 PUSH0 DUP3 ADD MSTORE POP JUMP JUMPDEST PUSH0 PUSH2 0x3578 PUSH1 0x18 DUP4 PUSH2 0x353A JUMP JUMPDEST SWAP2 POP PUSH2 0x3583 DUP3 PUSH2 0x3544 JUMP JUMPDEST PUSH1 0x18 DUP3 ADD SWAP1 POP SWAP2 SWAP1 POP JUMP JUMPDEST PUSH0 PUSH2 0x3598 DUP3 PUSH2 0x2BF1 JUMP JUMPDEST PUSH2 0x35A2 DUP2 DUP6 PUSH2 0x353A JUMP JUMPDEST SWAP4 POP PUSH2 0x35B2 DUP2 DUP6 PUSH1 0x20 DUP7 ADD PUSH2 0x2C0B JUMP JUMPDEST DUP1 DUP5 ADD SWAP2 POP POP SWAP3 SWAP2 POP POP JUMP JUMPDEST PUSH32 0x222C226465736372697074696F6E223A224F6E2D636861696E206275696C6465 PUSH0 DUP3 ADD MSTORE PUSH32 0x722072657075746174696F6E2073636F7265222C000000000000000000000000 PUSH1 0x20 DUP3 ADD MSTORE POP JUMP JUMPDEST PUSH0 PUSH2 0x3618 PUSH1 0x34 DUP4 PUSH2 0x353A JUMP JUMPDEST SWAP2 POP PUSH2 0x3623 DUP3 PUSH2 0x35BE JUMP JUMPDEST PUSH1 0x34 DUP3 ADD SWAP1 POP SWAP2 SWAP1 POP JUMP JUMPDEST PUSH32 0x22696D616765223A220000000000000000000000000000000000000000000000 PUSH0 DUP3 ADD MSTORE POP JUMP JUMPDEST PUSH0 PUSH2 0x3662 PUSH1 0x9 DUP4 PUSH2 0x353A JUMP JUMPDEST SWAP2 POP PUSH2 0x366D DUP3 PUSH2 0x362E JUMP JUMPDEST PUSH1 0x9 DUP3 ADD SWAP1 POP SWAP2 SWAP1 POP JUMP JUMPDEST PUSH32 0x222C000000000000000000000000000000000000000000000000000000000000 PUSH0 DUP3 ADD MSTORE POP JUMP JUMPDEST PUSH0 PUSH2 0x36AC PUSH1 0x2 DUP4 PUSH2 0x353A JUMP JUMPDEST SWAP2 POP PUSH2 0x36B7 DUP3 PUSH2 0x3678 JUMP JUMPDEST PUSH1 0x2 DUP3 ADD SWAP1 POP SWAP2 SWAP1 POP JUMP JUMPDEST PUSH32 0x2261747472696275746573223A5B7B2274726169745F74797065223A2253636F PUSH0 DUP3 ADD MSTORE PUSH32 0x7265222C2276616C7565223A0000000000000000000000000000000000000000 PUSH1 0x20 DUP3 ADD MSTORE POP JUMP JUMPDEST PUSH0 PUSH2 0x371C PUSH1 0x2C DUP4 PUSH2 0x353A JUMP JUMPDEST SWAP2 POP PUSH2 0x3727 DUP3 PUSH2 0x36C2 JUMP JUMPDEST PUSH1 0x2C DUP3 ADD SWAP1 POP SWAP2 SWAP1 POP JUMP JUMPDEST PUSH32 0x7D2C7B2274726169745F74797065223A224C6576656C222C2276616C7565223A PUSH0 DUP3 ADD MSTORE PUSH32 0x2200000000000000000000000000000000000000000000000000000000000000 PUSH1 0x20 DUP3 ADD MSTORE POP JUMP JUMPDEST PUSH0 PUSH2 0x378C PUSH1 0x21 DUP4 PUSH2 0x353A JUMP JUMPDEST SWAP2 POP PUSH2 0x3797 DUP3 PUSH2 0x3732 JUMP JUMPDEST PUSH1 0x21 DUP3 ADD SWAP1 POP SWAP2 SWAP1 POP JUMP JUMPDEST PUSH32 0x227D5D7D00000000000000000000000000000000000000000000000000000000 PUSH0 DUP3 ADD MSTORE POP JUMP JUMPDEST PUSH0 PUSH2 0x37D6 PUSH1 0x4 DUP4 PUSH2 0x353A JUMP JUMPDEST SWAP2 POP PUSH2 0x37E1 DUP3 PUSH2 0x37A2 JUMP JUMPDEST PUSH1 0x4 DUP3 ADD SWAP1 POP SWAP2 SWAP1 POP JUMP JUMPDEST PUSH0 PUSH2 0x37F6 DUP3 PUSH2 0x356C JUMP JUMPDEST SWAP2 POP PUSH2 0x3802 DUP3 DUP8 PUSH2 0x358E JUMP JUMPDEST SWAP2 POP PUSH2 0x380D DUP3 PUSH2 0x360C JUMP JUMPDEST SWAP2 POP PUSH2 0x3818 DUP3 PUSH2 0x3656 JUMP JUMPDEST SWAP2 POP PUSH2 0x3824 DUP3 DUP7 PUSH2 0x358E JUMP JUMPDEST SWAP2 POP PUSH2 0x382F DUP3 PUSH2 0x36A0 JUMP JUMPDEST SWAP2 POP PUSH2 0x383A DUP3 PUSH2 0x3710 JUMP JUMPDEST SWAP2 POP PUSH2 0x3846 DUP3 DUP6 PUSH2 0x358E JUMP JUMPDEST SWAP2 POP PUSH2 0x3851 DUP3 PUSH2 0x3780 JUMP JUMPDEST SWAP2 POP PUSH2 0x385D DUP3 DUP5 PUSH2 0x358E JUMP JUMPDEST SWAP2 POP PUSH2 0x3868 DUP3 PUSH2 0x37CA JUMP JUMPDEST SWAP2 POP DUP2 SWAP1 POP SWAP6 SWAP5 POP POP POP POP POP JUMP JUMPDEST PUSH32 0x646174613A6170706C69636174696F6E2F6A736F6E3B6261736536342C000000 PUSH0 DUP3 ADD MSTORE POP JUMP JUMPDEST PUSH0 PUSH2 0x38AA PUSH1 0x1D DUP4 PUSH2 0x353A JUMP JUMPDEST SWAP2 POP PUSH2 0x38B5 DUP3 PUSH2 0x3876 JUMP JUMPDEST PUSH1 0x1D DUP3 ADD SWAP1 POP SWAP2 SWAP1 POP JUMP JUMPDEST PUSH0 PUSH2 0x38CA DUP3 PUSH2 0x389E JUMP JUMPDEST SWAP2 POP PUSH2 0x38D6 DUP3 DUP5 PUSH2 0x358E JUMP JUMPDEST SWAP2 POP DUP2 SWAP1 POP SWAP3 SWAP2 POP POP JUMP JUMPDEST PUSH0 DUP2 SWAP1 POP DUP2 PUSH0 MSTORE PUSH1 0x20 PUSH0 KECCAK256 SWAP1 POP SWAP2 SWAP1 POP JUMP JUMPDEST PUSH0 PUSH1 0x20 PUSH1 0x1F DUP4 ADD DIV SWAP1 POP SWAP2 SWAP1 POP JUMP JUMPDEST PUSH0 DUP3 DUP3 SHL SWAP1 POP SWAP3 SWAP2 POP POP JUMP JUMPDEST PUSH0 PUSH1 0x8 DUP4 MUL PUSH2 0x393D PUSH32 0xFFFFFFFFFFFFFFFFFFFFFFFFFFFFFFFFFFFFFFFFFFFFFFFFFFFFFFFFFFFFFFFF DUP3 PUSH2 0x3902 JUMP JUMPDEST PUSH2 0x3947 DUP7 DUP4 PUSH2 0x3902 JUMP JUMPDEST SWAP6 POP DUP1 NOT DUP5 AND SWAP4 POP DUP1 DUP7 AND DUP5 OR SWAP3 POP POP POP SWAP4 SWAP3 POP POP POP JUMP JUMPDEST PUSH0 DUP2 SWAP1 POP SWAP2 SWAP1 POP JUMP JUMPDEST PUSH0 PUSH2 0x3982 PUSH2 0x397D PUSH2 0x3978 DUP5 PUSH2 0x2BC0 JUMP JUMPDEST PUSH2 0x395F JUMP JUMPDEST PUSH2 0x2BC0 JUMP JUMPDEST SWAP1 POP SWAP2 SWAP1 POP JUMP JUMPDEST PUSH0 DUP2 SWAP1 POP SWAP2 SWAP1 POP JUMP JUMPDEST PUSH2 0x399B DUP4 PUSH2 0x3968 JUMP JUMPDEST PUSH2 0x39AF PUSH2 0x39A7 DUP3 PUSH2 0x3989 JUMP JUMPDEST DUP5 DUP5 SLOAD PUSH2 0x390E JUMP JUMPDEST DUP3 SSTORE POP POP POP POP JUMP JUMPDEST PUSH0 PUSH0 SWAP1 POP SWAP1 JUMP JUMPDEST PUSH2 0x39C6 PUSH2 0x39B7 JUMP JUMPDEST PUSH2 0x39D1 DUP2 DUP5 DUP5 PUSH2 0x3992 JUMP JUMPDEST POP POP POP JUMP JUMPDEST JUMPDEST DUP2 DUP2 LT ISZERO PUSH2 0x39F4 JUMPI PUSH2 0x39E9 PUSH0 DUP3 PUSH2 0x39BE JUMP JUMPDEST PUSH1 0x1 DUP2 ADD SWAP1 POP PUSH2 0x39D7 JUMP JUMPDEST POP POP JUMP JUMPDEST PUSH1 0x1F DUP3 GT ISZERO PUSH2 0x3A39 JUMPI PUSH2 0x3A0A DUP2 PUSH2 0x38E1 JUMP JUMPDEST PUSH2 0x3A13 DUP5 PUSH2 0x38F3 JUMP JUMPDEST DUP2 ADD PUSH1 0x20 DUP6 LT ISZERO PUSH2 0x3A22 JUMPI DUP2 SWAP1 POP JUMPDEST PUSH2 0x3A36 PUSH2 0x3A2E DUP6 PUSH2 0x38F3 JUMP JUMPDEST DUP4 ADD DUP3 PUSH2 0x39D6 JUMP JUMPDEST POP POP JUMPDEST POP POP POP JUMP JUMPDEST PUSH0 DUP3 DUP3 SHR SWAP1 POP SWAP3 SWAP2 POP POP JUMP JUMPDEST PUSH0 PUSH2 0x3A59 PUSH0 NOT DUP5 PUSH1 0x8 MUL PUSH2 0x3A3E JUMP JUMPDEST NOT DUP1 DUP4 AND SWAP2 POP POP SWAP3 SWAP2 POP POP JUMP JUMPDEST PUSH0 PUSH2 0x3A71 DUP4 DUP4 PUSH2 0x3A4A JUMP JUMPDEST SWAP2 POP DUP3 PUSH1 0x2 MUL DUP3 OR SWAP1 POP SWAP3 SWAP2 POP POP JUMP JUMPDEST PUSH2 0x3A8A DUP3 PUSH2 0x2BF1 JUMP JUMPDEST PUSH8 0xFFFFFFFFFFFFFFFF DUP2 GT ISZERO PUSH2 0x3AA3 JUMPI PUSH2 0x3AA2 PUSH2 0x2D94 JUMP JUMPDEST JUMPDEST PUSH2 0x3AAD DUP3 SLOAD PUSH2 0x3216 JUMP JUMPDEST PUSH2 0x3AB8 DUP3 DUP3 DUP6 PUSH2 0x39F8 JUMP JUMPDEST PUSH0 PUSH1 0x20 SWAP1 POP PUSH1 0x1F DUP4 GT PUSH1 0x1 DUP2 EQ PUSH2 0x3AE9 JUMPI PUSH0 DUP5 ISZERO PUSH2 0x3AD7 JUMPI DUP3 DUP8 ADD MLOAD SWAP1 POP JUMPDEST PUSH2 0x3AE1 DUP6 DUP3 PUSH2 0x3A66 JUMP JUMPDEST DUP7 SSTORE POP PUSH2 0x3B48 JUMP JUMPDEST PUSH1 0x1F NOT DUP5 AND PUSH2 0x3AF7 DUP7 PUSH2 0x38E1 JUMP JUMPDEST PUSH0 JUMPDEST DUP3 DUP2 LT ISZERO PUSH2 0x3B1E JUMPI DUP5 DUP10 ADD MLOAD DUP3 SSTORE PUSH1 0x1 DUP3 ADD SWAP2 POP PUSH1 0x20 DUP6 ADD SWAP5 POP PUSH1 0x20 DUP2 ADD SWAP1 POP PUSH2 0x3AF9 JUMP JUMPDEST DUP7 DUP4 LT ISZERO PUSH2 0x3B3B JUMPI DUP5 DUP10 ADD MLOAD PUSH2 0x3B37 PUSH1 0x1F DUP10 AND DUP3 PUSH2 0x3A4A JUMP JUMPDEST DUP4 SSTORE POP JUMPDEST PUSH1 0x1 PUSH1 0x2 DUP9 MUL ADD DUP9 SSTORE POP POP POP JUMPDEST POP POP POP POP POP POP JUMP JUMPDEST PUSH0 DUP2 MLOAD SWAP1 POP SWAP2 SWAP1 POP JUMP JUMPDEST PUSH0 DUP3 DUP3 MSTORE PUSH1 0x20 DUP3 ADD SWAP1 POP SWAP3 SWAP2 POP POP JUMP JUMPDEST PUSH0 PUSH2 0x3B74 DUP3 PUSH2 0x3B50 JUMP JUMPDEST PUSH2 0x3B7E DUP2 DUP6 PUSH2 0x3B5A JUMP JUMPDEST SWAP4 POP PUSH2 0x3B8E DUP2 DUP6 PUSH1 0x20 DUP7 ADD PUSH2 0x2C0B JUMP JUMPDEST PUSH2 0x3B97 DUP2 PUSH2 0x2C19 JUMP JUMPDEST DUP5 ADD SWAP2 POP POP SWAP3 SWAP2 POP POP JUMP JUMPDEST PUSH0 PUSH1 0x80 DUP3 ADD SWAP1 POP PUSH2 0x3BB5 PUSH0 DUP4 ADD DUP8 PUSH2 0x2CD6 JUMP JUMPDEST PUSH2 0x3BC2 PUSH1 0x20 DUP4 ADD DUP7 PUSH2 0x2CD6 JUMP JUMPDEST PUSH2 0x3BCF PUSH1 0x40 DUP4 ADD DUP6 PUSH2 0x2BC9 JUMP JUMPDEST DUP2 DUP2 SUB PUSH1 0x60 DUP4 ADD MSTORE PUSH2 0x3BE1 DUP2 DUP5 PUSH2 0x3B6A JUMP JUMPDEST SWAP1 POP SWAP6 SWAP5 POP POP POP POP POP JUMP JUMPDEST PUSH0 DUP2 MLOAD SWAP1 POP PUSH2 0x3BFA DUP2 PUSH2 0x2AB3 JUMP JUMPDEST SWAP3 SWAP2 POP POP JUMP JUMPDEST PUSH0 PUSH1 0x20 DUP3 DUP5 SUB SLT ISZERO PUSH2 0x3C15 JUMPI PUSH2 0x3C14 PUSH2 0x2A80 JUMP JUMPDEST JUMPDEST PUSH0 PUSH2 0x3C22 DUP5 DUP3 DUP6 ADD PUSH2 0x3BEC JUMP JUMPDEST SWAP2 POP POP SWAP3 SWAP2 POP POP JUMP JUMPDEST PUSH0 PUSH2 0x3C36 DUP3 DUP6 PUSH2 0x358E JUMP JUMPDEST SWAP2 POP PUSH2 0x3C42 DUP3 DUP5 PUSH2 0x358E JUMP JUMPDEST SWAP2 POP DUP2 SWAP1 POP SWAP4 SWAP3 POP POP POP JUMP JUMPDEST PUSH0 PUSH1 0x40 DUP3 ADD SWAP1 POP PUSH2 0x3C61 PUSH0 DUP4 ADD DUP6 PUSH2 0x2CD6 JUMP JUMPDEST PUSH2 0x3C6E PUSH1 0x20 DUP4 ADD DUP5 PUSH2 0x2BC9 JUMP JUMPDEST SWAP4 SWAP3 POP POP POP JUMP JUMPDEST PUSH32 0x4E487B7100000000000000000000000000000000000000000000000000000000 PUSH0 MSTORE PUSH1 0x21 PUSH1 0x4 MSTORE PUSH1 0x24 PUSH0 REVERT JUMPDEST PUSH0 PUSH1 0x20 DUP3 ADD SWAP1 POP PUSH2 0x3CB5 PUSH0 DUP4 ADD DUP5 PUSH2 0x2F7B JUMP JUMPDEST SWAP3 SWAP2 POP POP JUMP JUMPDEST PUSH32 0x3C73766720786D6C6E733D22687474703A2F2F7777772E77332E6F72672F3230 PUSH0 DUP3 ADD MSTORE PUSH32 0x30302F737667222077696474683D2235303022206865696768743D2235303022 PUSH1 0x20 DUP3 ADD MSTORE PUSH32 0x207374796C653D226261636B67726F756E643A23306631373261223E00000000 PUSH1 0x40 DUP3 ADD MSTORE POP JUMP JUMPDEST PUSH0 PUSH2 0x3D3B PUSH1 0x5C DUP4 PUSH2 0x353A JUMP JUMPDEST SWAP2 POP PUSH2 0x3D46 DUP3 PUSH2 0x3CBB JUMP JUMPDEST PUSH1 0x5C DUP3 ADD SWAP1 POP SWAP2 SWAP1 POP JUMP JUMPDEST PUSH32 0x3C7265637420783D22302220793D2230222077696474683D2235303022206865 PUSH0 DUP3 ADD MSTORE PUSH32 0x696768743D22353030222066696C6C3D2223316532393362222F3E0000000000 PUSH1 0x20 DUP3 ADD MSTORE POP JUMP JUMPDEST PUSH0 PUSH2 0x3DAB PUSH1 0x3B DUP4 PUSH2 0x353A JUMP JUMPDEST SWAP2 POP PUSH2 0x3DB6 DUP3 PUSH2 0x3D51 JUMP JUMPDEST PUSH1 0x3B DUP3 ADD SWAP1 POP SWAP2 SWAP1 POP JUMP JUMPDEST PUSH32 0x3C7465787420783D223235302220793D223138302220666F6E742D66616D696C PUSH0 DUP3 ADD MSTORE PUSH32 0x793D22417269616C2220666F6E742D73697A653D223630222066696C6C3D2223 PUSH1 0x20 DUP3 ADD MSTORE PUSH32 0x3630613566612220746578742D616E63686F723D226D6964646C65223E000000 PUSH1 0x40 DUP3 ADD MSTORE POP JUMP JUMPDEST PUSH0 PUSH2 0x3E41 PUSH1 0x5D DUP4 PUSH2 0x353A JUMP JUMPDEST SWAP2 POP PUSH2 0x3E4C DUP3 PUSH2 0x3DC1 JUMP JUMPDEST PUSH1 0x5D DUP3 ADD SWAP1 POP SWAP2 SWAP1 POP JUMP JUMPDEST PUSH32 0x3C2F746578743E00000000000000000000000000000000000000000000000000 PUSH0 DUP3 ADD MSTORE POP JUMP JUMPDEST PUSH0 PUSH2 0x3E8B PUSH1 0x7 DUP4 PUSH2 0x353A JUMP JUMPDEST SWAP2 POP PUSH2 0x3E96 DUP3 PUSH2 0x3E57 JUMP JUMPDEST PUSH1 0x7 DUP3 ADD SWAP1 POP SWAP2 SWAP1 POP JUMP JUMPDEST PUSH32 0x3C7465787420783D223235302220793D223238302220666F6E742D66616D696C PUSH0 DUP3 ADD MSTORE PUSH32 0x793D22417269616C2220666F6E742D73697A653D223336222066696C6C3D2223 PUSH1 0x20 DUP3 ADD MSTORE PUSH32 0x3934613362382220746578742D616E63686F723D226D6964646C65223E000000 PUSH1 0x40 DUP3 ADD MSTORE POP JUMP JUMPDEST PUSH0 PUSH2 0x3F21 PUSH1 0x5D DUP4 PUSH2 0x353A JUMP JUMPDEST SWAP2 POP PUSH2 0x3F2C DUP3 PUSH2 0x3EA1 JUMP JUMPDEST PUSH1 0x5D DUP3 ADD SWAP1 POP SWAP2 SWAP1 POP JUMP JUMPDEST PUSH32 0x3C7465787420783D223235302220793D223332302220666F6E742D66616D696C PUSH0 DUP3 ADD MSTORE PUSH32 0x793D22417269616C2220666F6E742D73697A653D223230222066696C6C3D2223 PUSH1 0x20 DUP3 ADD MSTORE PUSH32 0x3634373438622220746578742D616E63686F723D226D6964646C65223E000000 PUSH1 0x40 DUP3 ADD MSTORE POP JUMP JUMPDEST PUSH0 PUSH2 0x3FB7 PUSH1 0x5D DUP4 PUSH2 0x353A JUMP JUMPDEST SWAP2 POP PUSH2 0x3FC2 DUP3 PUSH2 0x3F37 JUMP JUMPDEST PUSH1 0x5D DUP3 ADD SWAP1 POP SWAP2 SWAP1 POP JUMP JUMPDEST PUSH32 0x4275696C6465722053636F72653C2F746578743E3C2F7376673E000000000000 PUSH0 DUP3 ADD MSTORE POP JUMP JUMPDEST PUSH0 PUSH2 0x4001 PUSH1 0x1A DUP4 PUSH2 0x353A JUMP JUMPDEST SWAP2 POP PUSH2 0x400C DUP3 PUSH2 0x3FCD JUMP JUMPDEST PUSH1 0x1A DUP3 ADD SWAP1 POP SWAP2 SWAP1 POP JUMP JUMPDEST PUSH0 PUSH2 0x4021 DUP3 PUSH2 0x3D2F JUMP JUMPDEST SWAP2 POP PUSH2 0x402C DUP3 PUSH2 0x3D9F JUMP JUMPDEST SWAP2 POP PUSH2 0x4037 DUP3 PUSH2 0x3E35 JUMP JUMPDEST SWAP2 POP PUSH2 0x4043 DUP3 DUP6 PUSH2 0x358E JUMP JUMPDEST SWAP2 POP PUSH2 0x404E DUP3 PUSH2 0x3E7F JUMP JUMPDEST SWAP2 POP PUSH2 0x4059 DUP3 PUSH2 0x3F15 JUMP JUMPDEST SWAP2 POP PUSH2 0x4065 DUP3 DUP5 PUSH2 0x358E JUMP JUMPDEST SWAP2 POP PUSH2 0x4070 DUP3 PUSH2 0x3E7F JUMP JUMPDEST SWAP2 POP PUSH2 0x407B DUP3 PUSH2 0x3FAB JUMP JUMPDEST SWAP2 POP PUSH2 0x4086 DUP3 PUSH2 0x3FF5 JUMP JUMPDEST SWAP2 POP DUP2 SWAP1 POP SWAP4 SWAP3 POP POP POP JUMP JUMPDEST PUSH32 0x4E487B7100000000000000000000000000000000000000000000000000000000 PUSH0 MSTORE PUSH1 0x12 PUSH1 0x4 MSTORE PUSH1 0x24 PUSH0 REVERT JUMPDEST PUSH0 PUSH1 0xA0 DUP3 ADD SWAP1 POP PUSH2 0x40D2 PUSH0 DUP4 ADD DUP9 PUSH2 0x2F7B JUMP JUMPDEST PUSH2 0x40DF PUSH1 0x20 DUP4 ADD DUP8 PUSH2 0x2F7B JUMP JUMPDEST PUSH2 0x40EC PUSH1 0x40 DUP4 ADD DUP7 PUSH2 0x2F7B JUMP JUMPDEST PUSH2 0x40F9 PUSH1 0x60 DUP4 ADD DUP6 PUSH2 0x2BC9 JUMP JUMPDEST PUSH2 0x4106 PUSH1 0x80 DUP4 ADD DUP5 PUSH2 0x2CD6 JUMP JUMPDEST SWAP7 SWAP6 POP POP POP POP POP POP JUMP JUMPDEST PUSH0 PUSH1 0xFF DUP3 AND SWAP1 POP SWAP2 SWAP1 POP JUMP JUMPDEST PUSH2 0x4125 DUP2 PUSH2 0x4110 JUMP JUMPDEST DUP3 MSTORE POP POP JUMP JUMPDEST PUSH0 PUSH1 0x80 DUP3 ADD SWAP1 POP PUSH2 0x413E PUSH0 DUP4 ADD DUP8 PUSH2 0x2F7B JUMP JUMPDEST PUSH2 0x414B PUSH1 0x20 DUP4 ADD DUP7 PUSH2 0x411C JUMP JUMPDEST PUSH2 0x4158 PUSH1 0x40 DUP4 ADD DUP6 PUSH2 0x2F7B JUMP JUMPDEST PUSH2 0x4165 PUSH1 0x60 DUP4 ADD DUP5 PUSH2 0x2F7B JUMP JUMPDEST SWAP6 SWAP5 POP POP POP POP POP JUMP JUMPDEST PUSH0 PUSH2 0x4178 DUP3 PUSH2 0x2BC0 JUMP JUMPDEST SWAP2 POP PUSH2 0x4183 DUP4 PUSH2 0x2BC0 JUMP JUMPDEST SWAP3 POP DUP3 DUP3 MUL PUSH2 0x4191 DUP2 PUSH2 0x2BC0 JUMP JUMPDEST SWAP2 POP DUP3 DUP3 DIV DUP5 EQ DUP4 ISZERO OR PUSH2 0x41A8 JUMPI PUSH2 0x41A7 PUSH2 0x345E JUMP JUMPDEST JUMPDEST POP SWAP3 SWAP2 POP POP JUMP JUMPDEST PUSH0 PUSH2 0x41B9 DUP3 PUSH2 0x2BC0 JUMP JUMPDEST SWAP2 POP PUSH2 0x41C4 DUP4 PUSH2 0x2BC0 JUMP JUMPDEST SWAP3 POP DUP3 DUP3 ADD SWAP1 POP DUP1 DUP3 GT ISZERO PUSH2 0x41DC JUMPI PUSH2 0x41DB PUSH2 0x345E JUMP JUMPDEST JUMPDEST SWAP3 SWAP2 POP POP JUMP JUMPDEST PUSH0 PUSH2 0x41EC DUP3 PUSH2 0x2BC0 JUMP JUMPDEST SWAP2 POP PUSH2 0x41F7 DUP4 PUSH2 0x2BC0 JUMP JUMPDEST SWAP3 POP DUP3 PUSH2 0x4207 JUMPI PUSH2 0x4206 PUSH2 0x4092 JUMP JUMPDEST JUMPDEST DUP3 DUP3 DIV SWAP1 POP SWAP3 SWAP2 POP POP JUMP INVALID COINBASE TIMESTAMP NUMBER PREVRANDAO GASLIMIT CHAINID SELFBALANCE BASEFEE BLOBHASH BLOBBASEFEE 0x4B 0x4C 0x4D 0x4E 0x4F POP MLOAD MSTORE MSTORE8 SLOAD SSTORE JUMP JUMPI PC MSIZE GAS PUSH2 0x6263 PUSH5 0x6566676869 PUSH11 0x6B6C6D6E6F707172737475 PUSH23 0x7778797A303132333435363738392B2FA2646970667358 0x22 SLT KECCAK256 0xC6 CALLCODE BALANCE CREATE2 0xB0 0xA8 0xD6 MULMOD 0xC8 SWAP1 SWAP5 GASPRICE 0xB9 PUSH9 0x644CA06914D85AAE84 CALLDATACOPY DUP6 0xEA DUP1 0xD0 0x24 CALLDATASIZE KECCAK256 PUSH8 0x64736F6C63430008 0x1E STOP CALLER "
		},
		"gasEstimates": {
			"creation": {
				"codeDepositCost": "3406400",
				"executionCost": "infinite",
				"totalCost": "infinite"
			},
			"external": {
				"approve(address,uint256)": "infinite",
				"balanceOf(address)": "infinite",
				"builderScores(address)": "2934",
				"eip712Domain()": "infinite",
				"getApproved(uint256)": "infinite",
				"getLevel(uint256)": "infinite",
				"isApprovedForAll(address,address)": "infinite",
				"mintWithSignature(address,uint256,uint256,bytes)": "infinite",
				"name()": "infinite",
				"nonces(address)": "2847",
				"owner()": "2626",
				"ownerOf(uint256)": "infinite",
				"renounceOwnership()": "infinite",
				"safeTransferFrom(address,address,uint256)": "infinite",
				"safeTransferFrom(address,address,uint256,bytes)": "infinite",
				"setApprovalForAll(address,bool)": "infinite",
				"supportsInterface(bytes4)": "923",
				"symbol()": "infinite",
				"tokenURI(uint256)": "infinite",
				"transferFrom(address,address,uint256)": "infinite",
				"transferOwnership(address)": "infinite",
				"updateScore(address,uint256)": "infinite",
				"walletToToken(address)": "2848"
			},
			"internal": {
				"generateSVG(uint256,string memory)": "infinite",
				"generateTokenURI(uint256,uint256)": "infinite"
			}
		},
		"methodIdentifiers": {
			"approve(address,uint256)": "095ea7b3",
			"balanceOf(address)": "70a08231",
			"builderScores(address)": "f50e3da1",
			"eip712Domain()": "84b0196e",
			"getApproved(uint256)": "081812fc",
			"getLevel(uint256)": "86481d40",
			"isApprovedForAll(address,address)": "e985e9c5",
			"mintWithSignature(address,uint256,uint256,bytes)": "46c389bb",
			"name()": "06fdde03",
			"nonces(address)": "7ecebe00",
			"owner()": "8da5cb5b",
			"ownerOf(uint256)": "6352211e",
			"renounceOwnership()": "715018a6",
			"safeTransferFrom(address,address,uint256)": "42842e0e",
			"safeTransferFrom(address,address,uint256,bytes)": "b88d4fde",
			"setApprovalForAll(address,bool)": "a22cb465",
			"supportsInterface(bytes4)": "01ffc9a7",
			"symbol()": "95d89b41",
			"tokenURI(uint256)": "c87b56dd",
			"transferFrom(address,address,uint256)": "23b872dd",
			"transferOwnership(address)": "f2fde38b",
			"updateScore(address,uint256)": "65d97724",
			"walletToToken(address)": "03a1b24e"
		}
	},
	"abi": [
		{
			"inputs": [],
			"stateMutability": "nonpayable",
			"type": "constructor"
		},
		{
			"inputs": [],
			"name": "ECDSAInvalidSignature",
			"type": "error"
		},
		{
			"inputs": [
				{
					"internalType": "uint256",
					"name": "length",
					"type": "uint256"
				}
			],
			"name": "ECDSAInvalidSignatureLength",
			"type": "error"
		},
		{
			"inputs": [
				{
					"internalType": "bytes32",
					"name": "s",
					"type": "bytes32"
				}
			],
			"name": "ECDSAInvalidSignatureS",
			"type": "error"
		},
		{
			"inputs": [
				{
					"internalType": "address",
					"name": "sender",
					"type": "address"
				},
				{
					"internalType": "uint256",
					"name": "tokenId",
					"type": "uint256"
				},
				{
					"internalType": "address",
					"name": "owner",
					"type": "address"
				}
			],
			"name": "ERC721IncorrectOwner",
			"type": "error"
		},
		{
			"inputs": [
				{
					"internalType": "address",
					"name": "operator",
					"type": "address"
				},
				{
					"internalType": "uint256",
					"name": "tokenId",
					"type": "uint256"
				}
			],
			"name": "ERC721InsufficientApproval",
			"type": "error"
		},
		{
			"inputs": [
				{
					"internalType": "address",
					"name": "approver",
					"type": "address"
				}
			],
			"name": "ERC721InvalidApprover",
			"type": "error"
		},
		{
			"inputs": [
				{
					"internalType": "address",
					"name": "operator",
					"type": "address"
				}
			],
			"name": "ERC721InvalidOperator",
			"type": "error"
		},
		{
			"inputs": [
				{
					"internalType": "address",
					"name": "owner",
					"type": "address"
				}
			],
			"name": "ERC721InvalidOwner",
			"type": "error"
		},
		{
			"inputs": [
				{
					"internalType": "address",
					"name": "receiver",
					"type": "address"
				}
			],
			"name": "ERC721InvalidReceiver",
			"type": "error"
		},
		{
			"inputs": [
				{
					"internalType": "address",
					"name": "sender",
					"type": "address"
				}
			],
			"name": "ERC721InvalidSender",
			"type": "error"
		},
		{
			"inputs": [
				{
					"internalType": "uint256",
					"name": "tokenId",
					"type": "uint256"
				}
			],
			"name": "ERC721NonexistentToken",
			"type": "error"
		},
		{
			"inputs": [],
			"name": "InvalidShortString",
			"type": "error"
		},
		{
			"inputs": [
				{
					"internalType": "address",
					"name": "owner",
					"type": "address"
				}
			],
			"name": "OwnableInvalidOwner",
			"type": "error"
		},
		{
			"inputs": [
				{
					"internalType": "address",
					"name": "account",
					"type": "address"
				}
			],
			"name": "OwnableUnauthorizedAccount",
			"type": "error"
		},
		{
			"inputs": [
				{
					"internalType": "string",
					"name": "str",
					"type": "string"
				}
			],
			"name": "StringTooLong",
			"type": "error"
		},
		{
			"anonymous": false,
			"inputs": [
				{
					"indexed": true,
					"internalType": "address",
					"name": "owner",
					"type": "address"
				},
				{
					"indexed": true,
					"internalType": "address",
					"name": "approved",
					"type": "address"
				},
				{
					"indexed": true,
					"internalType": "uint256",
					"name": "tokenId",
					"type": "uint256"
				}
			],
			"name": "Approval",
			"type": "event"
		},
		{
			"anonymous": false,
			"inputs": [
				{
					"indexed": true,
					"internalType": "address",
					"name": "owner",
					"type": "address"
				},
				{
					"indexed": true,
					"internalType": "address",
					"name": "operator",
					"type": "address"
				},
				{
					"indexed": false,
					"internalType": "bool",
					"name": "approved",
					"type": "bool"
				}
			],
			"name": "ApprovalForAll",
			"type": "event"
		},
		{
			"anonymous": false,
			"inputs": [
				{
					"indexed": false,
					"internalType": "uint256",
					"name": "_fromTokenId",
					"type": "uint256"
				},
				{
					"indexed": false,
					"internalType": "uint256",
					"name": "_toTokenId",
					"type": "uint256"
				}
			],
			"name": "BatchMetadataUpdate",
			"type": "event"
		},
		{
			"anonymous": false,
			"inputs": [],
			"name": "EIP712DomainChanged",
			"type": "event"
		},
		{
			"anonymous": false,
			"inputs": [
				{
					"indexed": false,
					"internalType": "uint256",
					"name": "_tokenId",
					"type": "uint256"
				}
			],
			"name": "MetadataUpdate",
			"type": "event"
		},
		{
			"anonymous": false,
			"inputs": [
				{
					"indexed": true,
					"internalType": "address",
					"name": "previousOwner",
					"type": "address"
				},
				{
					"indexed": true,
					"internalType": "address",
					"name": "newOwner",
					"type": "address"
				}
			],
			"name": "OwnershipTransferred",
			"type": "event"
		},
		{
			"anonymous": false,
			"inputs": [
				{
					"indexed": true,
					"internalType": "address",
					"name": "from",
					"type": "address"
				},
				{
					"indexed": true,
					"internalType": "address",
					"name": "to",
					"type": "address"
				},
				{
					"indexed": true,
					"internalType": "uint256",
					"name": "tokenId",
					"type": "uint256"
				}
			],
			"name": "Transfer",
			"type": "event"
		},
		{
			"inputs": [
				{
					"internalType": "address",
					"name": "to",
					"type": "address"
				},
				{
					"internalType": "uint256",
					"name": "tokenId",
					"type": "uint256"
				}
			],
			"name": "approve",
			"outputs": [],
			"stateMutability": "nonpayable",
			"type": "function"
		},
		{
			"inputs": [
				{
					"internalType": "address",
					"name": "owner",
					"type": "address"
				}
			],
			"name": "balanceOf",
			"outputs": [
				{
					"internalType": "uint256",
					"name": "",
					"type": "uint256"
				}
			],
			"stateMutability": "view",
			"type": "function"
		},
		{
			"inputs": [
				{
					"internalType": "address",
					"name": "",
					"type": "address"
				}
			],
			"name": "builderScores",
			"outputs": [
				{
					"internalType": "uint256",
					"name": "",
					"type": "uint256"
				}
			],
			"stateMutability": "view",
			"type": "function"
		},
		{
			"inputs": [],
			"name": "eip712Domain",
			"outputs": [
				{
					"internalType": "bytes1",
					"name": "fields",
					"type": "bytes1"
				},
				{
					"internalType": "string",
					"name": "name",
					"type": "string"
				},
				{
					"internalType": "string",
					"name": "version",
					"type": "string"
				},
				{
					"internalType": "uint256",
					"name": "chainId",
					"type": "uint256"
				},
				{
					"internalType": "address",
					"name": "verifyingContract",
					"type": "address"
				},
				{
					"internalType": "bytes32",
					"name": "salt",
					"type": "bytes32"
				},
				{
					"internalType": "uint256[]",
					"name": "extensions",
					"type": "uint256[]"
				}
			],
			"stateMutability": "view",
			"type": "function"
		},
		{
			"inputs": [
				{
					"internalType": "uint256",
					"name": "tokenId",
					"type": "uint256"
				}
			],
			"name": "getApproved",
			"outputs": [
				{
					"internalType": "address",
					"name": "",
					"type": "address"
				}
			],
			"stateMutability": "view",
			"type": "function"
		},
		{
			"inputs": [
				{
					"internalType": "uint256",
					"name": "score",
					"type": "uint256"
				}
			],
			"name": "getLevel",
			"outputs": [
				{
					"internalType": "string",
					"name": "",
					"type": "string"
				}
			],
			"stateMutability": "pure",
			"type": "function"
		},
		{
			"inputs": [
				{
					"internalType": "address",
					"name": "owner",
					"type": "address"
				},
				{
					"internalType": "address",
					"name": "operator",
					"type": "address"
				}
			],
			"name": "isApprovedForAll",
			"outputs": [
				{
					"internalType": "bool",
					"name": "",
					"type": "bool"
				}
			],
			"stateMutability": "view",
			"type": "function"
		},
		{
			"inputs": [
				{
					"internalType": "address",
					"name": "wallet",
					"type": "address"
				},
				{
					"internalType": "uint256",
					"name": "score",
					"type": "uint256"
				},
				{
					"internalType": "uint256",
					"name": "nonce",
					"type": "uint256"
				},
				{
					"internalType": "bytes",
					"name": "sig",
					"type": "bytes"
				}
			],
			"name": "mintWithSignature",
			"outputs": [],
			"stateMutability": "nonpayable",
			"type": "function"
		},
		{
			"inputs": [],
			"name": "name",
			"outputs": [
				{
					"internalType": "string",
					"name": "",
					"type": "string"
				}
			],
			"stateMutability": "view",
			"type": "function"
		},
		{
			"inputs": [
				{
					"internalType": "address",
					"name": "",
					"type": "address"
				}
			],
			"name": "nonces",
			"outputs": [
				{
					"internalType": "uint256",
					"name": "",
					"type": "uint256"
				}
			],
			"stateMutability": "view",
			"type": "function"
		},
		{
			"inputs": [],
			"name": "owner",
			"outputs": [
				{
					"internalType": "address",
					"name": "",
					"type": "address"
				}
			],
			"stateMutability": "view",
			"type": "function"
		},
		{
			"inputs": [
				{
					"internalType": "uint256",
					"name": "tokenId",
					"type": "uint256"
				}
			],
			"name": "ownerOf",
			"outputs": [
				{
					"internalType": "address",
					"name": "",
					"type": "address"
				}
			],
			"stateMutability": "view",
			"type": "function"
		},
		{
			"inputs": [],
			"name": "renounceOwnership",
			"outputs": [],
			"stateMutability": "nonpayable",
			"type": "function"
		},
		{
			"inputs": [
				{
					"internalType": "address",
					"name": "from",
					"type": "address"
				},
				{
					"internalType": "address",
					"name": "to",
					"type": "address"
				},
				{
					"internalType": "uint256",
					"name": "tokenId",
					"type": "uint256"
				}
			],
			"name": "safeTransferFrom",
			"outputs": [],
			"stateMutability": "nonpayable",
			"type": "function"
		},
		{
			"inputs": [
				{
					"internalType": "address",
					"name": "from",
					"type": "address"
				},
				{
					"internalType": "address",
					"name": "to",
					"type": "address"
				},
				{
					"internalType": "uint256",
					"name": "tokenId",
					"type": "uint256"
				},
				{
					"internalType": "bytes",
					"name": "data",
					"type": "bytes"
				}
			],
			"name": "safeTransferFrom",
			"outputs": [],
			"stateMutability": "nonpayable",
			"type": "function"
		},
		{
			"inputs": [
				{
					"internalType": "address",
					"name": "operator",
					"type": "address"
				},
				{
					"internalType": "bool",
					"name": "approved",
					"type": "bool"
				}
			],
			"name": "setApprovalForAll",
			"outputs": [],
			"stateMutability": "nonpayable",
			"type": "function"
		},
		{
			"inputs": [
				{
					"internalType": "bytes4",
					"name": "interfaceId",
					"type": "bytes4"
				}
			],
			"name": "supportsInterface",
			"outputs": [
				{
					"internalType": "bool",
					"name": "",
					"type": "bool"
				}
			],
			"stateMutability": "view",
			"type": "function"
		},
		{
			"inputs": [],
			"name": "symbol",
			"outputs": [
				{
					"internalType": "string",
					"name": "",
					"type": "string"
				}
			],
			"stateMutability": "view",
			"type": "function"
		},
		{
			"inputs": [
				{
					"internalType": "uint256",
					"name": "tokenId",
					"type": "uint256"
				}
			],
			"name": "tokenURI",
			"outputs": [
				{
					"internalType": "string",
					"name": "",
					"type": "string"
				}
			],
			"stateMutability": "view",
			"type": "function"
		},
		{
			"inputs": [
				{
					"internalType": "address",
					"name": "from",
					"type": "address"
				},
				{
					"internalType": "address",
					"name": "to",
					"type": "address"
				},
				{
					"internalType": "uint256",
					"name": "tokenId",
					"type": "uint256"
				}
			],
			"name": "transferFrom",
			"outputs": [],
			"stateMutability": "nonpayable",
			"type": "function"
		},
		{
			"inputs": [
				{
					"internalType": "address",
					"name": "newOwner",
					"type": "address"
				}
			],
			"name": "transferOwnership",
			"outputs": [],
			"stateMutability": "nonpayable",
			"type": "function"
		},
		{
			"inputs": [
				{
					"internalType": "address",
					"name": "builder",
					"type": "address"
				},
				{
					"internalType": "uint256",
					"name": "newScore",
					"type": "uint256"
				}
			],
			"name": "updateScore",
			"outputs": [],
			"stateMutability": "nonpayable",
			"type": "function"
		},
		{
			"inputs": [
				{
					"internalType": "address",
					"name": "",
					"type": "address"
				}
			],
			"name": "walletToToken",
			"outputs": [
				{
					"internalType": "uint256",
					"name": "",
					"type": "uint256"
				}
			],
			"stateMutability": "view",
			"type": "function"
		}
	]
}